:020000040800F2
:100000000000022025A400088D9F0008959F00088D
:100010009D9F0008A59F0008AD9F000800000000FC
:1000200000000000000000000000000071880008CF
:10003000B59F000800000000C18A0008298B000855
:1000400075A4000875A4000875A4000875A400082C
:10005000C39F000875A4000875A4000875A40008D3
:1000600075A4000875A4000875A4000875A400080C
:10007000D19F000875A4000875A4000875A40008A5
:1000800075A4000875A4000875A4000875A40008EC
:10009000E59F0008F99F000875A4000875A40008F2
:1000A00075A4000875A4000875A4000875A40008CC
:1000B00075A4000875A4000875A4000875A40008BC
:1000C00075A400080DA0000821A0000835A00008B4
:1000D00075A4000849A0000875A400085DA00008E8
:1000E00075A4000875A4000875A4000875A400088C
:1000F00075A4000871A0000875A4000875A4000884
:1001000075A4000875A4000875A4000875A400086B
:1001100075A4000875A4000875A4000875A400085B
:1001200085A0000899A00008ADA00008C1A00008A3
:1001300075A4000875A4000875A4000875A400083B
:10014000D5A00008E9A0000875A4000875A400085F
:1001500075A40008FDA0000811A1000825A1000851
:1001600075A4000875A4000875A4000875A400080B
:1001700075A4000875A4000875A40008000000001C
:0801800075A4000875A4000835
:1001900010B5054C237833B9044B13B10448AFF3C1
:1001A00000800123237010BD7001002000000000BA
:1001B000E03F010808B5034B1BB103490348AFF307
:1001C000008008BD0000000074010020E03F01082D
:1001D00053B94AB9002908BF00281CBF4FF0FF31AE
:1001E0004FF0FF3000F088B9ADF1080C6DE904CE96
:1001F00000F006F8DDF804E0DDE9022304B0704702
:100200002DE9F047089D8E4604468846002B4AD1CA
:100210008A42174662D9B2FA82F64EB1C6F120037D
:1002200001FA06F820FA03F3B74043EA0808B4409D
:100230004FEA174E1FFA87FCB8FBFEF1230C0EFBAA
:10024000118843EA084301FB0CF29A4209D9FB18D2
:1002500001F1FF3080F0EA809A4240F2E7800239F3
:100260003B449A1AA3B2B2FBFEF00EFB102243EA03
:10027000024300FB0CFC9C4509D9FB1800F1FF323E
:1002800080F0D6809C4540F2D3803B44023840EA5F
:100290000140A3EB0C0300211DB1F3400022C5E98E
:1002A0000032BDE8F0878B4205D90DB1C5E90001E8
:1002B00000210846F5E7B3FA83F1002946D17345DA
:1002C00002D3824200F20581841A6EEB0302012000
:1002D0009046002DE5D0C5E90048E2E7002A00F08D
:1002E0009080B2FA82F6002E40F0A4808A1A030CA5
:1002F0004FEA174E80B2BCB20121B2FBFEFC0EFBEE
:100300001C2243EA024304FB0CF29A4207D9FB1871
:100310000CF1FF3802D29A4200F2E080C4469B1AE8
:10032000B3FBFEF20EFB123340EA034302FB04F47C
:100330009C4207D9FB1802F1FF3002D29C4200F226
:10034000CA8002461B1B42EA0C40A5E7C1F1200609
:100350008B4022FA06F71F430EFA01F420FA06F347
:100360002EFA06FE4FEA1749234300FA01F81FFA56
:1003700087FCBEFBF9F01C0C09FB10EE44EA0E44AE
:1003800000FB0CFEA64502FA01F209D93C1900F166
:10039000FF3A80F09C80A64540F2998002383C44A8
:1003A000A4EB0E041FFA83FEB4FBF9F309FB13441C
:1003B0004EEA044403FB0CFCA44508D93C1903F1A4
:1003C000FF3E80F08280A4457FD9023B3C4443EA53
:1003D0000040A4EB0C04A0FB02EC64457346E1462C
:1003E00062D35FD05DB1B8EB030264EB090404FA99
:1003F00006F622FA01F31E43CC40C5E90064002151
:100400004FE7B1FBF2FC010C41EA0E4180B240EA39
:1004100001423B4638463C46B846BE462026B1FB24
:10042000F7F1A2EB080241EA0C4166E7014618E742
:1004300010462CE7C6F120022EFA02F3B740B14075
:1004400020FA02F24FEA174E0A43B3FBFEF8BCB2A1
:100450000EFB1833110C41EA034108FB04F9B040CC
:1004600089454FEA104380B23ED9791808F1FF3C24
:1004700001D289451FD8A1EB0901B1FBFEF909FBA7
:1004800004F80EFB191192B242EA0142424529D208
:10049000BA1809F1FF31C4D24245C2D2A9F1020112
:1004A0003A44BEE7F0459DD2BEEB02036CEB070C6D
:1004B0000138E14696E7A7EB09094944A8F1020C87
:1004C000B1FBFEF909FB04F8DBE773467FE7504612
:1004D00066E70846FDE63B44023A33E7ACF1020C1E
:1004E0003B441CE749469CE7A1EB0901C446B1FB2C
:1004F000FEF909FB04F8C4E7704700BF10F8012BB0
:1005000011F8013B012A28BF9A42F7D0D01A704750
:1005100001F0FF01102A2BDB10F0070F08D010F8B4
:10052000013B013A8B422DD010F0070F42B3F6D1B8
:10053000F0B441EA012141EA014122F007047FF0D1
:1005400000070023F0E80256083C85EA010586EA28
:10055000010685FA47F5A3FA87F586FA47F6A5FA64
:1005600087F68EB9EED1F0BC01F0FF0102F0070270
:1005700032B110F8013B013A83EA010313B1F8D11B
:100580000020704701387047002D06BF35460338FC
:10059000073815F0010F07D1013015F4807F02BF35
:1005A000013015F4C03F0130F0BC0138704700BF86
:1005B000002310B50446C0E90033C0E9043383606A
:1005C00081814366C2818361194608225C3000F054
:1005D000F4F80D4B63620D4BA3620D4BE3620D4BC0
:1005E00023630D4B24629C4206D003F168029442BF
:1005F00002D0D0339C4205D104F15800BDE8104030
:1006000000F04EB910BD00BF3507000857070008BD
:100610008F070008B30700088C010020024A034935
:10062000034800F069B800BF00000020A10B0008DB
:100630001000002041680C4B994210B5044601D0CF
:1006400000F0AEFAA168094B994202D0204600F0B2
:10065000A7FAE168064B994204D02046BDE8104055
:1006600000F09EBA10BD00BF8C010020F4010020F4
:100670005C02002010B50B4B0B4C0C4A1A60204654
:1006800000220421FFF794FF04F1680001220921F0
:10069000FFF78EFF04F1D0000222BDE810401221C6
:1006A000FFF786BFC40200208C0100201D06000851
:1006B000014800F0F6B800BFCD020020014800F06C
:1006C000F1B800BFCD02002010B50446FFF7F0FFDF
:1006D000236A1BB1BDE81040FFF7F0BF044B236253
:1006E000044B1B68002BF5D1FFF7C4FFF2E700BFF6
:1006F00035060008C40200202DE9F8430746884665
:1007000014460026D4E90195B9F1010905D52468FC
:10071000002CF7D13046BDE8F883AB89012B07D90F
:10072000B5F90E30013303D029463846C047064399
:100730006835E9E710B50C46B1F90E1000F068F81D
:100740000028ABBF636DA3891B1823F48053ACBF93
:100750006365A38110BD2DE9F0411F468B89DB0540
:1007600005460C46164605D5B1F90E1002230022A7
:1007700000F03CF8A389B4F90E1023F48053A38150
:1007800032463B462846BDE8F04100F053B810B56C
:100790000C46B1F90E1000F029F8431CA38915BFCF
:1007A000606523F4805343F48053A38118BFA38171
:1007B00010BDB1F90E1000F009B80244034693428F
:1007C00000D1704703F8011BF9E7000038B5064D6A
:1007D0000023044608462B6009F0F0FD431C02D1BB
:1007E0002B6803B1236038BDC802002038B5074D1F
:1007F00004460846114600222A601A4609F005FE02
:10080000431C02D12B6803B1236038BDC80200200D
:1008100038B5074D04460846114600222A601A469C
:1008200009F093FD431C02D12B6803B1236038BD4E
:10083000C802002038B5074D04460846114600227C
:100840002A601A4609F09EFD431C02D12B6803B1B1
:10085000236038BDC802002070B50D4D0D4C641BDF
:10086000A4100026A64209D10B4D0C4C13F0B8FB86
:10087000641BA4100026A64205D170BD55F8043BA8
:1008800098470136EEE755F8043B98470136F2E702
:10089000FC510108FC510108FC51010800520108FB
:1008A000704770477047000038B50546002941D0B1
:1008B00051F8043C0C1F002BB8BFE41800F0E0F81E
:1008C0001D4A136833B9636014602846BDE8384098
:1008D00000F0DCB8A34208D9206821188B4201BF80
:1008E00019685B6809182160EDE71A465B680BB16F
:1008F000A342FAD911685018A0420BD120680144D4
:10090000501883421160E0D118685B685360084456
:100910001060DAE702D90C232B60D6E72068211893
:100920008B4204BF19685B68636004BF09182160CB
:100930005460CAE738BD00BFD402002070B50F4E26
:100940000C463168054611B900F052F93060214675
:10095000284600F04DF9431C03D14FF0FF342046E8
:1009600070BDC41C24F00304A042F8D0211A28460C
:1009700000F03EF90130F2D1EFE700BFD0020020D5
:100980002DE9F843CD1C25F0030508350C2D38BFA3
:100990000C25002D064601DBA94204D90C23336047
:1009A0000020BDE8F883DFF8D48000F069F8D8F8BB
:1009B00000301C4644BB29463046FFF7BFFF431CAE
:1009C000044658D1D8F800402746002F43D1002CC8
:1009D0004BD023683946304604EB030900F008F990
:1009E000814542D121686D1A29463046FFF7A6FF9E
:1009F00001303AD023682B442360D8F800305A687D
:100A000062BBC8F800700FE02268521B20D40B2A8A
:100A100017D96119A342256018BF5960636808BFE0
:100A2000C8F8001062514B60304600F02FF804F116
:100A30000B00231D20F00700C21A1CBF1B1AA35075
:100A4000AFE76268A3420CBFC8F800205A60EBE72A
:100A500023466468AEE73C467F68B6E71A465B68A3
:100A6000A342FBD100235360DEE70C233360304602
:100A700000F00CF894E70560D6E700BFD402002030
:100A80000148FFF70EBF00BFCC0200200148FFF76E
:100A900009BF00BFCC020020B1F90C202DE9F041C4
:100AA000160705460C4654D44B68002B02DC0B6C31
:100AB000002B48DDE66A002E45D0002312F4805258
:100AC0002F68216A2B6030D0626DA389590705D544
:100AD0006368D21A636B0BB1236CD21A0023E66AE7
:100AE000216A2846B047431CA38906D129681D29DD
:100AF0002BD82A4ACA40D60727D500226260D904DB
:100B00002269226004D5421C01D12B6803B96065BB
:100B1000616B2F60B9B104F14403994202D02846B9
:100B2000FFF7C2FE002363630DE001232846B047B0
:100B30000246501CC9D12B68002BC6D01D2B01D0FA
:100B4000162B1ED12F60002022E043F040031BB281
:100B50001BE00F69002FF6D093070E6808BF4B69A2
:100B60000F6018BF0023A6EB07088B60B8F1000FD9
:100B7000E9DD216AA66A43463A462846B04700287E
:100B800008DCB4F90C3043F04003A3814FF0FF3090
:100B9000BDE8F0810744A8EB0008E7E7010040202A
:100BA00038B50B6905460C4613B90025284638BDF3
:100BB00018B1036A0BB9FFF787FDB4F90C30002BAD
:100BC000F3D0626ED00704D4990502D4A06DFFF76C
:100BD00068FE28462146FFF75FFF636EDA07054689
:100BE000E4D4A3899B05E1D4A06DFFF75BFEDDE7AC
:100BF00038B5064D0023044608462B6009F04CFB2F
:100C0000431C02D12B6803B1236038BDC802002009
:100C100080B400AF064BD3F88830054A43F4700324
:100C2000C2F8883000BFBD465DF8047B704700BF46
:100C300000ED00E080B582B000AF78607B68002BEB
:100C400001D1012341E07B6893F83D30DBB2002BFA
:100C500006D17B68002283F83C20786800F039F8E0
:100C60007B68022283F83D207B681A687B68043326
:100C70001946104600F09AFB7B68012283F8462053
:100C80007B68012283F83E207B68012283F83F20A5
:100C90007B68012283F840207B68012283F8412091
:100CA0007B68012283F842207B68012283F843207D
:100CB0007B68012283F844207B68012283F8452069
:100CC0007B68012283F83D20002318460837BD4683
:100CD00080BD80B483B000AF786000BF0C37BD46E4
:100CE0005DF8047B7047000080B485B000AF786089
:100CF0007B6893F83D30DBB2012B01D001234EE03D
:100D00007B68022283F83D207B681B68DA687B6879
:100D10001B6842F00102DA607B681B68234A934239
:100D200022D07B681B68B3F1804F1DD07B681B68A5
:100D30001F4A934218D07B681B681E4A934213D007
:100D40007B681B681C4A93420ED07B681B681B4A59
:100D5000934209D07B681B68194A934204D07B6890
:100D60001B68184A934211D17B681B689B6803F08B
:100D70000703FB60FB68062B10D07B681B681A68B2
:100D80007B681B6842F001021A6007E07B681B6801
:100D90001A687B681B6842F001021A60002318463B
:100DA0001437BD465DF8047B704700BF000001406A
:100DB0000004004000080040000C00400004014016
:100DC000004001400018004080B582B000AF78605C
:100DD0007B68002B01D1012341E07B6893F83D3013
:100DE000DBB2002B06D17B68002283F83C207868B8
:100DF00008F0A0FD7B68022283F83D207B681A681A
:100E00007B6804331946104600F0D0FA7B68012253
:100E100083F846207B68012283F83E207B6801220C
:100E200083F83F207B68012283F840207B68012201
:100E300083F841207B68012283F842207B680122ED
:100E400083F843207B68012283F844207B680122D9
:100E500083F845207B68012283F83D200023184653
:100E60000837BD4680BD000080B584B000AF786013
:100E700039603B68002B09D17B6893F83E30DBB2C8
:100E8000012B14BF01230023DBB222E03B68042BBB
:100E900009D17B6893F83F30DBB2012B14BF0123EB
:100EA0000023DBB215E03B68082B09D17B6893F87F
:100EB0004030DBB2012B14BF01230023DBB208E07A
:100EC0007B6893F84130DBB2012B14BF0123002370
:100ED000DBB2002B01D001237CE03B68002B04D166
:100EE0007B68022283F83E2013E03B68042B04D188
:100EF0007B68022283F83F200BE03B68082B04D17B
:100F00007B68022283F8402003E07B68022283F89A
:100F100041207B681B6801223968184600F09CFC60
:100F20007B681B682D4A934204D07B681B682C4A5F
:100F3000934201D1012300E00023002B07D07B68FE
:100F40001B685A6C7B681B6842F400425A647B68D9
:100F50001B68224A934222D07B681B68B3F1804F02
:100F60001DD07B681B681F4A934218D07B681B68A2
:100F70001D4A934213D07B681B681C4A93420ED0D3
:100F80007B681B68164A934209D07B681B68184A25
:100F9000934204D07B681B68164A934211D17B6848
:100FA0001B689B6803F00703FB60FB68062B10D0EF
:100FB0007B681B681A687B681B6842F001021A6034
:100FC00007E07B681B681A687B681B6842F00102B7
:100FD0001A60002318461037BD4680BD000001404E
:100FE000000401400004004000080040000C0040E4
:100FF000004001400018004080B584B000AF786028
:101000007B681B68DB68FB607B681B681B69BB60D7
:10101000BB6803F00203002B20D0FB6803F002033F
:10102000002B1BD07B681B686FF002021A617B6883
:1010300001221A777B681B689B6903F00303002B6E
:1010400003D0786800F094F905E0786800F086F93C
:10105000786800F097F97B6800221A77BB6803F084
:101060000403002B20D0FB6803F00403002B1BD0EB
:101070007B681B686FF004021A617B6802221A7792
:101080007B681B689B6903F44073002B03D078686E
:1010900000F06EF905E0786800F060F9786800F01B
:1010A00071F97B6800221A77BB6803F00803002BF4
:1010B00020D0FB6803F00803002B1BD07B681B6863
:1010C0006FF008021A617B6804221A777B681B683C
:1010D000DB6903F00303002B03D0786800F048F9C4
:1010E00005E0786800F03AF9786800F04BF97B6821
:1010F00000221A77BB6803F01003002B20D0FB6896
:1011000003F01003002B1BD07B681B686FF01002EC
:101110001A617B6808221A777B681B68DB6903F415
:101120004073002B03D0786800F022F905E078685E
:1011300000F014F9786800F025F97B6800221A772E
:10114000BB6803F00103002B0CD0FB6803F0010324
:10115000002B07D07B681B686FF001021A6178686A
:1011600007F0C6FDBB6803F08003002B0CD0FB68C2
:1011700003F08003002B07D07B681B686FF08002B0
:101180001A61786800F066FCBB6803F04003002B2E
:101190000CD0FB6803F04003002B07D07B681B6872
:1011A0006FF040021A61786800F0F6F8BB6803F04F
:1011B0002003002B0CD0FB6803F02003002B07D08A
:1011C0007B681B686FF020021A61786800F038FCB9
:1011D00000BF1037BD4680BD80B586B000AFF86057
:1011E000B9607A600023FB75FB6893F83C30012BF3
:1011F00001D10223AEE0FB68012283F83C207B682A
:101200000C2B00F29F8001A252F823F0411200083B
:101210004513000845130008451300088112000813
:10122000451300084513000845130008C3120008C1
:101230004513000845130008451300080313000870
:10124000FB681B68B968184600F056F9FB681B6814
:101250009A69FB681B6842F008029A61FB681B6888
:101260009A69FB681B6822F004029A61FB681B689C
:101270009969BB681A69FB681B680A439A6164E054
:10128000FB681B68B968184600F0A6F9FB681B6884
:101290009A69FB681B6842F400629A61FB681B68EC
:1012A0009A69FB681B6822F480629A61FB681B687C
:1012B0009969BB681B691A02FB681B680A439A613B
:1012C00043E0FB681B68B968184600F0FBF9FB684F
:1012D0001B68DA69FB681B6842F00802DA61FB6888
:1012E0001B68DA69FB681B6822F00402DA61FB689C
:1012F0001B68D969BB681A69FB681B680A43DA6115
:1013000023E0FB681B68B968184600F04FFAFB68D9
:101310001B68DA69FB681B6842F40062DA61FB68EB
:101320001B68DA69FB681B6822F48062DA61FB687B
:101330001B68D969BB681B691A02FB681B680A43F2
:10134000DA6102E00123FB7500BFFB68002283F82D
:101350003C20FB7D18461837BD4680BD80B483B065
:1013600000AF786000BF0C37BD465DF8047B704766
:1013700080B483B000AF786000BF0C37BD465DF825
:10138000047B704780B483B000AF786000BF0C3737
:10139000BD465DF8047B704780B483B000AF7860D1
:1013A00000BF0C37BD465DF8047B704780B485B044
:1013B00000AF786039607B681B68FB607B68434ADC
:1013C000934213D07B68B3F1804F0FD07B68404AC3
:1013D00093420BD07B683F4A934207D07B683E4ADA
:1013E000934203D07B683D4A934208D1FB6823F0C7
:1013F0007003FB603B685B68FA681343FB607B68C3
:10140000324A93422BD07B68B3F1804F27D07B6860
:101410002F4A934223D07B682E4A93421FD07B6889
:101420002D4A93421BD07B682C4A934217D07B688D
:101430002B4A934213D07B682A4A93420FD07B6891
:10144000294A93420BD07B68284A934207D07B6895
:10145000274A934203D07B68264A934208D1FB680F
:1014600023F44073FB603B68DB68FA681343FB605E
:10147000FB6823F080023B685B691343FB603B68B9
:101480009A687B68DA623B681A687B689A627B6854
:101490000E4A934203D07B68104A934203D13B68C3
:1014A0001A697B681A637B681B6843F004027B68D7
:1014B0001A607B6801225A617B68FA681A6000BF73
:1014C0001437BD465DF8047B704700BF0000014043
:1014D0000004004000080040000C004000040140EF
:1014E0000040014000440140004801400018004015
:1014F000001C00400020004080B487B000AF78603E
:1015000039607B681B6A7B617B681B6A23F0010280
:101510007B681A627B685B683B617B689B69FB60E8
:10152000FB6823F07003FB60FB6823F00303FB60A0
:101530003B681B68FA681343FB607B6923F0020376
:101540007B613B689B687A6913437B617B68204AB7
:10155000934203D07B681F4A93420CD17B6923F0EE
:1015600008037B613B68DB687A6913437B617B69B5
:1015700023F004037B617B68154A934203D07B68A8
:10158000144A934211D13B6923F480733B613B6958
:1015900023F400733B613B685B693A6913433B6129
:1015A0003B689B693A6913433B617B683A695A60BF
:1015B0007B68FA689A613B685A687B685A637B6803
:1015C0007A691A6200BF1C37BD465DF8047B70471C
:1015D000000001400004014080B487B000AF786093
:1015E00039607B681B6A7B617B681B6A23F0100291
:1015F0007B681A627B685B683B617B689B69FB6008
:10160000FB6823F4E043FB60FB6823F44073FB605A
:101610003B681B681B02FA681343FB607B6923F07D
:1016200020037B613B689B681B017A6913437B61E4
:101630007B68224A934203D07B68214A93420DD1B2
:101640007B6923F080037B613B68DB681B017A695F
:1016500013437B617B6923F040037B617B68174AFE
:10166000934203D07B68164A934213D13B6923F41B
:1016700080633B613B6923F400633B613B685B69CA
:101680009B003A6913433B613B689B699B003A6945
:1016900013433B617B683A695A607B68FA689A61D8
:1016A0003B685A687B689A637B687A691A6200BFF4
:1016B0001C37BD465DF8047B704700BF0000014049
:1016C0000004014080B487B000AF786039607B6867
:1016D0001B6A7B617B681B6A23F480727B681A62D9
:1016E0007B685B683B617B68DB69FB60FB6823F0C0
:1016F0007003FB60FB6823F00303FB603B681B681F
:10170000FA681343FB607B6923F400737B613B68D9
:101710009B681B027A6913437B617B68214A934271
:1017200003D07B68204A93420DD17B6923F4006388
:101730007B613B68DB681B027A6913437B617B69D1
:1017400023F480637B617B68164A934203D07B68F5
:10175000154A934213D13B6923F480533B613B69A3
:1017600023F400533B613B685B691B013A691343F7
:101770003B613B689B691B013A6913433B617B6892
:101780003A695A607B68FA68DA613B685A687B6834
:10179000DA637B687A691A6200BF1C37BD465DF860
:1017A000047B7047000001400004014080B487B012
:1017B00000AF786039607B681B6A3B617B681B6A9D
:1017C00023F480527B681A627B685B687B617B686C
:1017D000DB69FB60FB6823F4E043FB60FB6823F4F8
:1017E0004073FB603B681B681B02FA681343FB6095
:1017F0003B6923F400533B613B689B681B033A69D8
:1018000013433B617B68124A934203D07B68114AC1
:10181000934209D17B6923F480437B613B685B6918
:101820009B017A6913437B617B687A695A607B68A4
:10183000FA68DA613B685A687B681A647B683A69BF
:101840001A6200BF1C37BD465DF8047B704700BFBD
:10185000000001400004014080B487B000AFF86090
:10186000B9607A60BB6803F01F03012202FA03F338
:101870007B61FB681A6A7B69DB431A40FB681A626A
:10188000FB681A6ABB6803F01F03796801FA03F367
:101890001A43FB681A6200BF1C37BD465DF8047B23
:1018A0007047000080B485B000AF786039607B6815
:1018B00093F83C30012B01D102235AE07B680122CE
:1018C00083F83C207B68022283F83D207B681B68FC
:1018D0005B68FB607B681B689B68BB60FB6823F0F0
:1018E0007003FB603B681B68FA681343FB607B680E
:1018F0001B68FA685A607B681B68214A934222D0B1
:101900007B681B68B3F1804F1DD07B681B681D4A44
:10191000934218D07B681B681B4A934213D07B68A4
:101920001B681A4A93420ED07B681B68184A934280
:1019300009D07B681B68174A934204D07B681B68F8
:10194000154A93420CD1BB6823F08003BB603B680F
:101950005B68BA681343BB607B681B68BA689A60AF
:101960007B68012283F83D207B68002283F83C20BD
:10197000002318461437BD465DF8047B704700BF4E
:10198000000001400004004000080040000C00403E
:1019900000040140004001400018004080B485B0C0
:1019A00000AF786039600023FB607B6893F83C30BF
:1019B000012B01D102233DE07B68012283F83C200A
:1019C000FB6823F0FF023B68DB681343FB60FB68A6
:1019D00023F440723B689B681343FB60FB6823F46D
:1019E00080623B685B681343FB60FB6823F4006222
:1019F0003B681B681343FB60FB6823F480523B6821
:101A00001B691343FB60FB6823F400523B685B696E
:101A10001343FB60FB6823F480423B68DB6913439C
:101A2000FB607B681B68FA685A647B68002283F855
:101A30003C20002318461437BD465DF8047B7047F0
:101A400080B483B000AF786000BF0C37BD465DF84E
:101A5000047B704780B483B000AF786000BF0C3760
:101A6000BD465DF8047B704780B584B000AF7860F8
:101A70007B68002B01D10123EDE07B6893F82030D7
:101A8000DBB2002B02D1786807F00EFB7B681B6885
:101A90001A687B681B6842F001021A6002F034F990
:101AA000F86012E002F030F90246FB68D31A0A2B04
:101AB0000BD97B685B6A43F400327B685A627B68AF
:101AC000052283F820200123C5E07B681B685B6842
:101AD00003F00103002BE5D07B681B681A687B6864
:101AE0001B6822F002021A6002F00EF9F86012E0A0
:101AF00002F00AF90246FB68D31A0A2B0BD97B685D
:101B00005B6A43F400327B685A627B68052283F883
:101B1000202001239FE07B681B685B6803F00203C1
:101B2000002BE5D17B681B7E012B08D17B681B68ED
:101B30001A687B681B6842F080021A6007E07B68C5
:101B40001B681A687B681B6822F080021A607B6839
:101B50005B7E012B08D17B681B681A687B681B6859
:101B600042F040021A6007E07B681B681A687B68D5
:101B70001B6822F040021A607B689B7E012B08D113
:101B80007B681B681A687B681B6842F020021A6039
:101B900007E07B681B681A687B681B6822F02002DC
:101BA0001A607B68DB7E012B08D17B681B681A6892
:101BB0007B681B6822F010021A6007E07B681B68D4
:101BC0001A687B681B6842F010021A607B681B7FF2
:101BD000012B08D17B681B681A687B681B6842F080
:101BE00008021A6007E07B681B681A687B681B683C
:101BF00022F008021A607B685B7F012B08D17B68AA
:101C00001B681A687B681B6842F004021A6007E0D0
:101C10007B681B681A687B681B6822F004021A60E4
:101C20007B689A687B68DB681A437B681B691A4388
:101C30007B685B6942EA03017B685B685A1E7B68CC
:101C40001B680A43DA617B6800225A627B680122C2
:101C500083F82020002318461037BD4680BD80B48D
:101C600085B000AF786039607B6893F82030FB73F3
:101C7000FB7B012B02D0FB7B022B09D17B681B680D
:101C800059697B681B683A680A435A61002306E079
:101C90007B685B6A43F480227B685A6201231846A2
:101CA0001437BD465DF8047B704780B58AB000AF3D
:101CB000786000237B627B681B685B693B627B68A2
:101CC0001B685B68FB617B681B689B68BB617B680A
:101CD0001B68DB687B617B681B681B693B617B68F9
:101CE0001B689B69FB603B6A03F00103002B7CD0FF
:101CF000BB6903F00103002B23D07B681B68012222
:101D00009A60BB6903F00203002B03D0786800F0EF
:101D100083F916E0BB6903F00403002B04D07B6A4F
:101D200043F400637B620CE0BB6903F00803002B03
:101D300004D07B6A43F480537B6202E0786800F051
:101D400089F9BB6903F48073002B24D07B681B687E
:101D50004FF480729A60BB6903F40073002B03D0C8
:101D6000786800F063F916E0BB6903F48063002B28
:101D700004D07B6A43F400537B620CE0BB6903F43C
:101D80000063002B04D07B6A43F480437B6202E053
:101D9000786800F069F9BB6903F48033002B24D024
:101DA0007B681B684FF480329A60BB6903F4003390
:101DB000002B03D0786800F043F916E0BB6903F408
:101DC0008023002B04D07B6A43F400437B620CE049
:101DD000BB6903F40023002B04D07B6A43F48033F7
:101DE0007B6202E0786800F049F93B6A03F008037F
:101DF000002B0CD07B6903F01003002B07D07B6A0B
:101E000043F400737B627B681B681022DA603B6AD4
:101E100003F00403002B0BD07B6903F00803002BB5
:101E200006D07B681B680822DA60786800F03AF90F
:101E30003B6A03F00203002B09D07B681B68DB6858
:101E400003F00303002B02D0786800F021F93B6A0D
:101E500003F04003002B0CD03B6903F01003002B70
:101E600007D07B6A43F480637B627B681B68102227
:101E70001A613B6A03F02003002B0BD03B6903F08F
:101E80000803002B06D07B681B6808221A6178685B
:101E900000F01CF93B6A03F01003002B09D07B68AB
:101EA0001B681B6903F00303002B02D0786800F065
:101EB00003F93B6A03F40033002B0BD0FB6903F0FA
:101EC0001003002B06D07B681B6810225A607868CC
:101ED00000F006F93B6A03F48033002B0BD0FB695A
:101EE00003F00803002B06D07B681B6808225A60A9
:101EF000786800F0FFF83B6A03F40043002B7BD0C6
:101F0000FB6903F00403002B72D03B6A03F4807377
:101F1000002B08D0FB6803F00103002B03D07B6A81
:101F200043F001037B623B6A03F40073002B08D08B
:101F3000FB6803F00203002B03D07B6A43F002032B
:101F40007B623B6A03F48063002B08D0FB6803F0DC
:101F50000403002B03D07B6A43F004037B623B6ADB
:101F600003F40063002B43D0FB6803F07003002BE5
:101F70003ED0FB6803F07003602B2BD0602B2ED873
:101F8000502B22D0502B2AD8402B19D0402B26D8AA
:101F9000302B10D0302B22D8102B02D0202B05D084
:101FA0001DE07B6A43F008037B6219E07B6A43F023
:101FB00010037B6214E07B6A43F020037B620FE036
:101FC0007B6A43F040037B620AE07B6A43F0800354
:101FD0007B6205E07B6A43F480737B6200E000BFB4
:101FE0007B681B689A697B681B6822F070029A61A3
:101FF0007B681B6804225A607B6A002B08D07B68D0
:102000005A6A7B6A1A437B685A62786800F07CF8E7
:1020100000BF2837BD4680BD80B483B000AF786074
:1020200000BF0C37BD465DF8047B704780B483B0B9
:1020300000AF786000BF0C37BD465DF8047B704789
:1020400080B483B000AF786000BF0C37BD465DF848
:10205000047B704780B483B000AF786000BF0C375A
:10206000BD465DF8047B704780B483B000AF7860F4
:1020700000BF0C37BD465DF8047B704780B483B069
:1020800000AF786000BF0C37BD465DF8047B704739
:1020900080B483B000AF786000BF0C37BD465DF8F8
:1020A000047B704780B483B000AF786000BF0C370A
:1020B000BD465DF8047B704780B483B000AF7860A4
:1020C00000BF0C37BD465DF8047B704780B483B019
:1020D00000AF786000BF0C37BD465DF8047B7047E9
:1020E00080B483B000AF786000BF0C37BD465DF8A8
:1020F000047B704780B483B000AF786000BF0C37BA
:10210000BD465DF8047B704780B483B000AF786053
:1021100000BF0C37BD465DF8047B704780B586B0C4
:1021200000AF78607B68002B01D1012367E27B68F8
:102130001B6803F00103002B75D0884B9B6803F0EC
:102140000C03042B0CD0854B9B6803F00C03082B6D
:1021500012D1824B5B6803F48003B3F5800F0BD17F
:102160007E4B1B6803F40033002B5BD07B685B68FD
:10217000002B57D1012342E27B685B68B3F5803FB7
:1021800006D1764B1B68754A43F4803313601DE01B
:102190007B685B68B3F5A02F0CD1704B1B686F4A4E
:1021A00043F4802313606D4B1B686C4A43F4803307
:1021B00013600BE0694B1B68684A23F4803313609B
:1021C000664B1B68654A23F4802313607B685B6859
:1021D000002B13D001F098FD386108E001F094FD68
:1021E00002463B69D31A642B01D9032307E25B4BF8
:1021F0001B6803F40033002BF0D014E001F084FDE1
:10220000386108E001F080FD02463B69D31A642B77
:1022100001D90323F3E1514B1B6803F40033002B76
:10222000F0D100E000BF7B681B6803F00203002BC5
:1022300063D04A4B9B6803F00C03002B0BD0474B39
:102240009B6803F00C03082B1CD1444B5B6803F420
:102250008003002B16D1414B1B6803F00203002BB7
:1022600005D07B68DB68012B01D00123C7E13B4B24
:102270001B6823F0F8027B681B69DB0037491343B6
:102280000B603AE07B68DB68002B20D0344B0122E6
:102290001A6001F039FD386108E001F035FD0246B1
:1022A0003B69D31A022B01D90323A8E12B4B1B68EE
:1022B00003F00203002BF0D0284B1B6823F0F80238
:1022C0007B681B69DB00254913430B6015E0244B39
:1022D00000221A6001F018FD386108E001F014FDD9
:1022E00002463B69D31A022B01D9032387E11B4B1A
:1022F0001B6803F00203002BF0D17B681B6803F01E
:102300000803002B36D07B685B69002B16D0154B79
:1023100001221A6001F0F8FC386108E001F0F4FCD9
:1023200002463B69D31A022B01D9032367E10B4B09
:102330005B6F03F00203002BF0D01BE0094B00227F
:102340001A6001F0E1FC38610EE001F0DDFC0246AC
:102350003B69D31A022B07D9032350E1003802400E
:1023600000004742800E4742884B5B6F03F0020338
:10237000002BEAD17B681B6803F00403002B00F0FC
:1023800097800023FB75814B1B6C03F08053002B5F
:102390000FD10023BB607D4B1B6C7C4A43F0805304
:1023A00013647A4B1B6C03F08053BB60BB68012342
:1023B000FB75774B1B6803F48073002B18D1744BAB
:1023C0001B68734A43F48073136001F09DFC38610D
:1023D00008E001F099FC02463B69D31A022B01D9AF
:1023E00003230CE16A4B1B6803F48073002BF0D0CD
:1023F0007B689B68012B06D1644B1B6F634A43F0DB
:10240000010313671CE07B689B68052B0CD15F4BB5
:102410001B6F5E4A43F0040313675C4B1B6F5B4A00
:1024200043F0010313670BE0584B1B6F574A23F02F
:1024300001031367554B1B6F544A23F004031367C2
:102440007B689B68002B15D001F05EFC38610AE0C8
:1024500001F05AFC02463B69D31A41F2883293429A
:1024600001D90323CBE0494B1B6F03F00203002B80
:10247000EED014E001F048FC38610AE001F044FCC1
:1024800002463B69D31A41F28832934201D90323B1
:10249000B5E03E4B1B6F03F00203002BEED1FB7D3A
:1024A000012B05D1394B1B6C384A23F08053136440
:1024B0007B689B69002B00F0A180344B9B6803F084
:1024C0000C03082B5CD07B689B69022B41D1314BFC
:1024D00000221A6001F018FC386108E001F014FCD9
:1024E00002463B69D31A022B01D9032387E0274B0D
:1024F0001B6803F00073002BF0D17B68DA697B68FE
:102500001B6A1A437B685B6A9B011A437B689B6A60
:102510005B08013B1B041A437B68DB6A1B061B49F3
:1025200013434B601B4B01221A6001F0EDFB386135
:1025300008E001F0E9FB02463B69D31A022B01D9FE
:1025400003235CE0114B1B6803F00073002BF0D0F9
:1025500054E0104B00221A6001F0D6FB386108E00D
:1025600001F0D2FB02463B69D31A022B01D90323A7
:1025700045E0064B1B6803F00073002BF0D13DE0F3
:102580007B689B69012B07D1012338E000380240AA
:1025900000700040600047421B4B5B68FB607B683B
:1025A0009B69012B28D0FB6803F480027B68DB6900
:1025B0009A4221D1FB6803F03F027B681B6A9A4272
:1025C0001AD1FA6847F6C07313407A68526A9201CA
:1025D000934211D1FB6803F440327B689B6A5B082D
:1025E000013B1B049A4207D1FB6803F070627B68D1
:1025F000DB6A1B069A4201D0012300E00023184643
:102600001837BD4680BD00BF0038024080B584B099
:1026100000AF786039607B68002B01D10123CCE0EA
:10262000684B1B6803F007033A689A420CD9654B64
:102630003A68D2B21A70634B1B6803F007033A681A
:102640009A4201D00123B8E07B681B6803F00203C3
:10265000002B20D07B681B6803F00403002B05D0FF
:10266000594B9B68584A43F4E05393607B681B685E
:1026700003F00803002B05D0534B9B68524A43F4E8
:1026800060439360504B9B6823F0F0027B689B682B
:102690004D4913438B607B681B6803F00103002BDB
:1026A00044D07B685B68012B07D1474B1B6803F460
:1026B0000033002B19D101237FE07B685B68022B7C
:1026C00003D07B685B68032B07D13F4B1B6803F08B
:1026D0000073002B09D101236FE03B4B1B6803F013
:1026E0000203002B01D1012367E0374B9B6823F0E5
:1026F00003027B685B68344913438B6001F004FB81
:10270000F8600AE001F000FB0246FB68D31A41F2D0
:102710008832934201D903234FE02B4B9B6803F08F
:102720000C027B685B689B009A42EBD1254B1B68CF
:1027300003F007033A689A420CD2224B3A68D2B2AD
:102740001A70204B1B6803F007033A689A4201D0C5
:10275000012332E07B681B6803F00403002B08D0E0
:10276000194B9B6823F4E0527B68DB6816491343DE
:102770008B607B681B6803F00803002B09D0124BA9
:102780009B6823F460427B681B69DB000E4913439E
:102790008B6000F021F802460B4B9B681B0903F08D
:1027A0000F030A49CB5C22FA03F3094A1360094B71
:1027B0001B68184607F0F4FC002318461037BD4686
:1027C00080BD00BF003C0240003802400C430108BD
:1027D0005C000020600000202DE9B04F90B000AFF9
:1027E00000237B630023FB6300233B630023BB6365
:1027F000594B9B6803F00C03082B0DD0082B00F2FB
:10280000A180002B02D0042B03D09BE0534BBB6371
:102810009BE0534BBB6398E04F4B5B6803F03F0377
:102820007B634D4B5B6803F48003002B28D04A4B3D
:102830005B689B0900223B627A623B6AC3F3080033
:102840000021474B03FB01F2002300FB03F3134479
:10285000434AA0FB0212FA620A46BA62FA6A1344B9
:10286000FB627B6B0022BB61FA61D7E90623D7E9E3
:102870000A01FDF7ADFC02460B461346FB6353E02D
:10288000354B5B689B0900223B617A613B69C3F36E
:10289000080A4FF0000B52465B464FF000004FF025
:1028A0000001590141EAD261500102460B46B2EBE8
:1028B0000A0863EB0B094FF000024FF000034FEAE8
:1028C000891343EA98634FEA8812B2EB080463EB7A
:1028D00009054FF000024FF00003EB0043EA547388
:1028E000E20014461D4614EB0A033B6045EB0B0364
:1028F0007B604FF000024FF00003D7E90045294606
:102900008B02214643EA915321468A02104619461A
:102910007B6B0022BB60FA60D7E90223FDF758FC0D
:1029200002460B461346FB630B4B5B681B0C03F024
:10293000030301335B003B63FA6B3B6BB2FBF3F3C6
:10294000BB6302E0054BBB6300BFBB6B184640375F
:10295000BD46BDE8B08F00BF003802400024F4003F
:10296000001BB70080B400AF034B1B681846BD4680
:102970005DF8047B704700BF5C00002080B500AFAD
:10298000FFF7F0FF0246054B9B689B0A03F0070325
:102990000349CB5C22FA03F3184680BD003802409D
:1029A0001C43010880B500AFFFF7DCFF0246054B72
:1029B0009B685B0B03F007030349CB5C22FA03F32C
:1029C000184680BD003802401C43010880B483B023
:1029D00000AF786039607B680F221A60124B9B68E9
:1029E00003F003027B685A600F4B9B6803F0F00210
:1029F0007B689A600C4B9B6803F4E0527B68DA605A
:102A0000094B9B68DB0803F4E0527B681A61074BB3
:102A10001B6803F007023B681A6000BF0C37BD4615
:102A20005DF8047B704700BF00380240003C024064
:102A300080B586B000AF786000237B6100233B61E6
:102A40007B681B6803F00103002B05D17B681B68C2
:102A500003F00403002B35D0624B00221A6001F012
:102A600053F9786108E001F04FF902467B69D31A07
:102A7000022B01D90323B0E05B4B1B6803F000631A
:102A8000002BF0D17B685B689A017B689B681B0711
:102A900055491343C1F88430524B01221A6001F0AA
:102AA00033F9786108E001F02FF902467B69D31A07
:102AB000022B01D9032390E04B4B1B6803F000630A
:102AC000002BF0D07B681B6803F00203002B00F0A2
:102AD00083800023FB60444B1B6C434A43F08053CC
:102AE0001364414B1B6C03F08053FB60FB683F4B4E
:102AF0001B683E4A43F48073136001F005F9786166
:102B000008E001F001F902467B69D31A022B01D9D2
:102B1000032362E0354B1B6803F48073002BF0D075
:102B2000314B1B6F03F440733B613B69002B2FD08B
:102B30007B68DB6803F440733A699A4228D02A4BD9
:102B40001B6F23F440733B61294B01221A60284B11
:102B500000221A60244A3B691367234B1B6F03F062
:102B60000103012B14D101F0CFF878610AE001F0E4
:102B7000CBF802467B69D31A41F28832934201D9DD
:102B800003232AE0184B1B6F03F00203002BEED047
:102B90007B68DB6803F44073B3F5407F0DD1124BC3
:102BA0009B6823F4F8127B68DB6823F0704323F4FE
:102BB00040730D4913438B6005E00B4B9B680A4A39
:102BC00023F4F8139360084B1A6F7B68DB68C3F338
:102BD0000B03054913430B67002318461837BD46FE
:102BE00080BD00BF680047420038024000700040CE
:102BF000400E474280B582B000AF00237B60494B56
:102C0000DB6803F0F203002B20D0474B1B78DBB2CC
:102C1000012B07D1444BDB687B60434B4FF0FF3205
:102C2000DA600BE0404B1B78DBB2022B03D13E4B4A
:102C30001B697B6002E03C4B5B697B6000F08AF8BB
:102C4000786800F07DF8384B00221A70354BDB684D
:102C500003F00103002B4AD0324B0122DA60324BE1
:102C60001B78DBB2012B2DD12F4B5B68013B2E4A29
:102C700053602D4B5B68002B15D02B4BDB687B60C2
:102C8000786800F053F8284BDB680133264AD3609C
:102C9000254BDB687B60244B1B7ADBB219467868D6
:102CA00000F0AEF823E04FF0FF337B601E4A7B68F4
:102CB000D3601D4B00221A7000F0EAF8786800F02B
:102CC00035F814E0184B1B78DBB2022B07D100F06B
:102CD000DFF8154B1B69184600F028F804E0124B8A
:102CE0005B69184600F022F80F4B00221A700E4B59
:102CF0001B78DBB2002B11D10A4B1B69094A23F068
:102D00007F031361074B1B69064A23F0807313612D
:102D1000044B1B69034A23F00073136100BF08379B
:102D2000BD4680BD003C0240D802002080B483B084
:102D300000AF786000BF0C37BD465DF8047B70477C
:102D400080B483B000AF786000BF0C37BD465DF83B
:102D5000047B704780B400AF274BDB6803F010039F
:102D6000002B08D0254BDB6943F01003234AD361C5
:102D7000214B1022DA60204BDB6803F02003002B8C
:102D800008D01E4BDB6943F008031C4AD3611A4B81
:102D90002022DA60184BDB6803F04003002B08D0D8
:102DA000164BDB6943F00403144AD361124B4022F3
:102DB000DA60114BDB6803F08003002B08D00F4B67
:102DC000DB6943F002030D4AD3610B4B8022DA60CA
:102DD000094BDB6803F00203002B08D0074BDB69CB
:102DE00043F02003054AD361034B0222DA6000BF9F
:102DF000BD465DF8047B7047003C0240D8020020CD
:102E000080B485B000AF78600B46FB700023FB6098
:102E1000FB78002B02D10023FB6010E0FB78012B34
:102E200003D14FF48073FB6009E0FB78022B03D1E0
:102E30004FF40073FB6002E04FF44073FB60134BF0
:102E40001B69124A23F440731361104B1A690F492E
:102E5000FB6813430B610D4B1B690C4A23F078038D
:102E600013610A4B1A697B68DB001343074A43F07E
:102E700002031361054B1B69044A43F48033136159
:102E800000BF1437BD465DF8047B7047003C02402C
:102E900080B400AF204B1B6803F40073002B17D0E5
:102EA0001D4B1B681C4A23F4007313601A4B1B68EC
:102EB000194A43F400631360174B1B68164A23F446
:102EC00000631360144B1B68134A43F400731360D0
:102ED000114B1B6803F48063002B17D00E4B1B684B
:102EE0000D4A23F4806313600B4B1B680A4A43F4BA
:102EF00080531360084B1B68074A23F48053136008
:102F0000054B1B68044A43F48063136000BFBD4651
:102F10005DF8047B704700BF003C024080B489B07C
:102F200000AF7860396000237B6100233B610023A0
:102F3000BB610023FB616BE10122FB6902FA03F331
:102F40007B613B681B687A6913403B613A697B6926
:102F50009A4240F05A813B685B6803F00303012BFF
:102F600005D03B685B6803F00303022B30D17B681C
:102F70009B68BB61FB695B00032202FA03F3DB433E
:102F8000BA691340BB613B68DA68FB695B0002FA0F
:102F900003F3BA691343BB617B68BA699A607B68C3
:102FA0005B68BB610122FB6902FA03F3DB43BA6988
:102FB0001340BB613B685B681B0903F00102FB69BE
:102FC00002FA03F3BA691343BB617B68BA695A60BA
:102FD0003B685B6803F00303032B17D07B68DB6857
:102FE000BB61FB695B00032202FA03F3DB43BA69AE
:102FF0001340BB613B689A68FB695B0002FA03F30C
:10300000BA691343BB617B68BA69DA603B685B6885
:1030100003F00303022B23D1FB69DA087B68083233
:1030200053F82230BB61FB6903F007039B000F22BA
:1030300002FA03F3DB43BA691340BB613B681A69C8
:10304000FB6903F007039B0002FA03F3BA69134319
:10305000BB61FB69DA087B680832B96943F8221062
:103060007B681B68BB61FB695B00032202FA03F308
:10307000DB43BA691340BB613B685B6803F0030242
:10308000FB695B0002FA03F3BA691343BB617B6817
:10309000BA691A603B685B6803F44033002B00F0A8
:1030A000B4800023FB60604B5B6C5F4A43F4804359
:1030B00053645D4B5B6C03F48043FB60FB685B4ACD
:1030C000FB699B08023352F82330BB61FB6903F0B4
:1030D00003039B000F2202FA03F3DB43BA69134098
:1030E000BB617B68524A93422BD07B68514A934222
:1030F00025D07B68504A93421FD07B684F4A934249
:1031000019D07B684E4A934213D07B684D4A934254
:103110000DD07B684C4A934207D07B684B4A934260
:1031200001D107230EE008230CE006230AE0052363
:1031300008E0042306E0032304E0022302E0012365
:1031400000E00023FA6902F0030292009340BA699A
:103150001343BB613549FB699B080233BA6941F8E7
:1031600023203B4B9B68BB613B69DB43BA6913403F
:10317000BB613B685B6803F48013002B03D0BA6922
:103180003B691343BB61324ABB699360304BDB68D8
:10319000BB613B69DB43BA691340BB613B685B6859
:1031A00003F40013002B03D0BA693B691343BB61DE
:1031B000274ABB69D360264B5B68BB613B69DB4335
:1031C000BA691340BB613B685B6803F40033002BB2
:1031D00003D0BA693B691343BB611D4ABB695360A5
:1031E0001B4B1B68BB613B69DB43BA691340BB6186
:1031F0003B685B6803F48033002B03D0BA693B69FA
:103200001343BB61124ABB691360FB690133FB6165
:10321000FB690F2B7FF690AE00BF00BF2437BD4681
:103220005DF8047B704700BF003802400038014061
:10323000000002400004024000080240000C02406E
:10324000001002400014024000180240001C02401E
:10325000003C014080B485B000AF78600B467B80B5
:103260007B681A697B881340002B02D00123FB7313
:1032700001E00023FB73FB7B18461437BD465DF865
:10328000047B704780B483B000AF78600B467B80CE
:1032900013467B707B78002B03D07A887B689A6119
:1032A00003E07B881A047B689A6100BF0C37BD4637
:1032B0005DF8047B7047000080B586B000AF786091
:1032C00000237B6100F020FD38617B68002B01D179
:1032D000012399E07B68022283F835207B68002275
:1032E00083F834207B681B681A687B681B6822F0AF
:1032F00001021A600FE000F007FD02463B69D31A95
:10330000052B08D97B6820225A657B68032283F845
:103310003520032378E07B681B681B6803F00103FA
:10332000002BE8D17B681B681B687B617A69384B8E
:1033300013407B617B685A687B689B681A437B6893
:10334000DB681A437B681B691A437B685B691A4315
:103350007B689B691A437B68DB691A437B681B6A3D
:1033600013437A6913437B617B685B6A042B07D143
:103370007B68DA6A7B681B6B13437A6913437B6152
:103380007B681B687A691A607B681B685B697B6174
:103390007B6923F007037B617B685B6A7A6913436F
:1033A0007B617B685B6A042B17D17B689B6A7A69B7
:1033B00013437B617B68DB6A002B0ED0786800F0DA
:1033C0000FFB0346002B08D07B6840225A657B68C0
:1033D000012283F83520012316E07B681B687A6997
:1033E0005A61786800F0C6FA0346FB607B68DB6DC3
:1033F0003F229A40FB689A607B6800225A657B688E
:10340000012283F83520002318461837BD4680BDB9
:103410003F8010F080B586B000AFF860B9607A6088
:103420003B600023FB75FB689B6D3B61FB6893F879
:103430003430012B01D1022340E0FB68012283F8E4
:103440003420FB6893F83530DBB2012B2FD1FB68B9
:10345000022283F83520FB6800225A653B687A68AF
:10346000B968F86800F058FAFB68DB6D3F229A40B3
:103470003B699A60FB681B681A68FB681B6842F02E
:1034800016021A60FB681B6C002B07D0FB681B68D8
:103490001A68FB681B6842F008021A60FB681B6828
:1034A0001A68FB681B6842F001021A6005E0FB68BD
:1034B000002283F834200223FB75FB7D1846183761
:1034C000BD4680BD80B584B000AF78607B689B6DE1
:1034D000FB6000F019FCB8607B6893F83530DBB214
:1034E000022B08D07B6880225A657B68002283F813
:1034F0003420012352E07B681B681A687B681B68D4
:1035000022F016021A607B681B685A697B681B6888
:1035100022F080025A617B681B6C002B03D17B6810
:103520009B6C002B07D07B681B681A687B681B6844
:1035300022F008021A607B681B681A687B681B68A7
:1035400022F001021A6013E000F0DEFB0246BB68C5
:10355000D31A052B0CD97B6820225A657B6803227D
:1035600083F835207B68002283F83420032315E09C
:103570007B681B681B6803F00103002BE4D17B68A8
:10358000DB6D3F229A40FB689A607B68012283F8DA
:1035900035207B68002283F834200023184610373A
:1035A000BD4680BD80B483B000AF78607B6893F87F
:1035B0003530DBB2022B04D07B6880225A650123B0
:1035C0000CE07B68052283F835207B681B681A684D
:1035D0007B681B6822F001021A60002318460C3732
:1035E000BD465DF8047B704780B586B000AF78605B
:1035F0000023BB608E4B1B688E4AA2FB03239B0AF1
:103600007B617B689B6D3B613B691B68FB607B68F2
:10361000DB6D08229A40FB681340002B1AD07B68B0
:103620001B681B6803F00403002B13D07B681B6826
:103630001A687B681B6822F004021A607B68DB6DE5
:1036400008229A403B699A607B685B6D43F00102F7
:103650007B685A657B68DB6D01229A40FB681340EA
:10366000002B12D07B681B685B6903F08003002B82
:103670000BD07B68DB6D01229A403B699A607B68C6
:103680005B6D43F002027B685A657B68DB6D042248
:103690009A40FB681340002B12D07B681B681B68A4
:1036A00003F00203002B0BD07B68DB6D04229A40F1
:1036B0003B699A607B685B6D43F004027B685A65E6
:1036C0007B68DB6D10229A40FB681340002B43D0CF
:1036D0007B681B681B6803F00803002B3CD07B68E9
:1036E000DB6D10229A403B699A607B681B681B68FF
:1036F00003F48023002B18D07B681B681B6803F43D
:103700000023002B08D17B681B6C002B24D07B6826
:103710001B6C786898471FE07B689B6C002B1BD064
:103720007B689B6C7868984716E07B681B681B6811
:1037300003F48073002B07D17B681B681A687B68D1
:103740001B6822F008021A607B681B6C002B03D0F8
:103750007B681B6C786898477B68DB6D20229A40F9
:10376000FB681340002B00F08F807B681B681B6890
:1037700003F01003002B00F087807B68DB6D2022B4
:103780009A403B699A607B6893F83530DBB2052B31
:1037900036D17B681B681A687B681B6822F01602AA
:1037A0001A607B681B685A697B681B6822F080027C
:1037B0005A617B681B6C002B03D17B689B6C002BD0
:1037C00007D07B681B681A687B681B6822F00802B8
:1037D0001A607B68DB6D3F229A403B699A607B6888
:1037E000012283F835207B68002283F834207B682F
:1037F0001B6D002B7ED07B681B6D7868984779E045
:103800007B681B681B6803F48023002B1DD07B683A
:103810001B681B6803F40023002B0DD17B685B6CD5
:10382000002B31D07B685B6C786898472CE000BF38
:103830005C000020B5814E1B7B68DB6B002B23D026
:103840007B68DB6B786898471EE07B681B681B68A9
:1038500003F48073002B0FD17B681B681A687B68A8
:103860001B6822F010021A607B68012283F8352061
:103870007B68002283F834207B68DB6B002B03D04D
:103880007B68DB6B786898477B685B6D002B32D078
:103890007B685B6D03F00103002B22D07B6805225F
:1038A00083F835207B681B681A687B681B6822F0E8
:1038B00001021A60BB680133BB607A699A4207D380
:1038C0007B681B681B6803F00103002BF2D100E04A
:1038D00000BF7B68012283F835207B68002283F8D3
:1038E00034207B68DB6C002B05D07B68DB6C786850
:1038F000984700E000BF1837BD4680BD80B483B054
:1039000000AF78607B6893F83530DBB218460C372F
:10391000BD465DF8047B704780B485B000AFF860A9
:10392000B9607A603B60FB681B681A68FB681B68BB
:1039300022F480221A60FB681B683A685A60FB68B0
:103940009B68402B08D1FB681B687A689A60FB680B
:103950001B68BA68DA6007E0FB681B68BA689A609F
:10396000FB681B687A68DA6000BF1437BD465DF8F3
:10397000047B704780B485B000AF78607B681B68BB
:10398000DBB2103B144AA2FB03231B09FB60134A62
:10399000FB6813441B781A467B68DA65FB68032BC7
:1039A00009D97B681B6823F47F7323F003031A1D76
:1039B0007B689A6507E07B681B6823F47F7323F0BC
:1039C00003037A6893657B689B6D18461437BD4680
:1039D0005DF8047B704700BFABAAAAAA2443010884
:1039E00080B485B000AF78600023FB737B689B6A6E
:1039F000BB607B689B69002B1FD1BB68032B56D82B
:103A000001A252F823F000BF193A00082B3A00082F
:103A1000193A0008AF3A00087B68DB6A03F080734C
:103A2000002B46D00123FB7343E07B68DB6AB3F1D4
:103A3000C07F40D10123FB733DE07B689B69B3F5F8
:103A4000005F21D1BB68032B37D801A252F823F0C5
:103A5000613A0008673A0008613A0008793A0008BC
:103A60000123FB7330E07B68DB6A03F08073002B7B
:103A700025D00123FB7322E07B68DB6AB3F1C07FB2
:103A80001FD10123FB731CE0BB68022B03D9BB6869
:103A9000032B03D018E00123FB7315E07B68DB6A7E
:103AA00003F08073002B0ED00123FB730BE000BFEB
:103AB0000AE000BF08E000BF06E000BF04E000BF6E
:103AC00002E000BF00E000BFFB7B18461437BD4694
:103AD0005DF8047B704700BF80B485B000AF7860AC
:103AE0007B6803F00703FB600C4BDB68BB60BA68C4
:103AF0004FF6FF031340BB60FB681A02BB68134319
:103B000043F0BF6343F40033BB60044ABB68D36037
:103B100000BF1437BD465DF8047B704700ED00E040
:103B200080B400AF044BDB681B0A03F007031846A0
:103B3000BD465DF8047B704700ED00E080B483B0C3
:103B400000AF0346FB7197F90730002B0BDBFB79C5
:103B500003F01F02074997F907305B09012000FABB
:103B600002F241F8232000BF0C37BD465DF8047B0C
:103B7000704700BF00E100E080B483B000AF0346AF
:103B80003960FB7197F90730002B0ADB3B68DAB22A
:103B90000C4997F907301201D2B20B4483F8002385
:103BA0000AE03B68DAB20849FB7903F00F03043BF3
:103BB0001201D2B20B441A7600BF0C37BD465DF835
:103BC000047B704700E100E000ED00E080B489B0C4
:103BD00000AFF860B9607A60FB6803F00703FB612F
:103BE000FB69C3F10703042B28BF0423BB61FB69F6
:103BF0000433062B02D9FB69033B00E000237B6101
:103C00004FF0FF32BB6902FA03F3DA43BB681A4094
:103C10007B699A404FF0FF317B6901FA03F3D94386
:103C20007B680B40134318462437BD465DF8047B80
:103C3000704780B582B000AF78607868FFF74CFFBE
:103C400000BF0837BD4680BD80B586B000AF0346D3
:103C5000B9607A60FB7300237B61FFF761FF7861D5
:103C60007A68B9687869FFF7B1FF024697F90F30B3
:103C700011461846FFF780FF00BF1837BD4680BDCC
:103C800080B582B000AF0346FB7197F90730184644
:103C9000FFF754FF00BF0837BD4680BD80B500AFB9
:103CA0000E4B1B680D4A43F4007313600B4B1B68EB
:103CB0000A4A43F480631360084B1B68074A43F4C5
:103CC000807313600320FFF7B4FF052006F068FA45
:103CD00006F032FA0023184680BD00BF003C0240C7
:103CE00080B400AF064B1B781A46064B1B68134482
:103CF000044A136000BFBD465DF8047B704700BFF7
:103D000064000020F802002080B400AF034B1B6861
:103D10001846BD465DF8047B704700BFF8020020DE
:103D200080B584B000AF78607B68002B01D101239F
:103D30002BE17B6893F83D30DBB2002B06D17B682A
:103D4000002283F83C20786805F018FB7B68242269
:103D500083F83D207B681B681A687B681B6822F02B
:103D600001021A607B681B681A687B681B6842F452
:103D700000421A607B681B681A687B681B6822F423
:103D800000421A60FEF7FAFDF8607B685B68814AC2
:103D9000934207D8FB68804A934294BF01230023D3
:103DA000DBB206E0FB687D4A934294BF0123002307
:103DB000DBB2002B01D00123E7E0FB68784AA2FBCD
:103DC00003239B0CBB607B681B685B6823F03F018F
:103DD0007B681B68BA680A435A607B681B681B6A69
:103DE00023F03F017B685B686A4A934202D8BB6854
:103DF000013309E0BB684FF4967202FB03F3694A92
:103E0000A2FB03239B0901337A6812680B431362F8
:103E10007B681B68DB6923F44F4222F0FF027B685A
:103E20005B685C498B4219D8FB68591E7B685B68EC
:103E30005B00B1FBF3F3591C40F6FC730B40002B05
:103E40000AD0FB68591E7B685B685B00B1FBF3F32B
:103E50000133C3F30B0351E004234FE07B689B68FD
:103E6000002B11D1FB68581E7B6859680B465B001C
:103E70000B44B0FBF3F30133C3F30B03002B0CBF74
:103E800001230023DBB212E0FB68581E7B685968EF
:103E90000B469B000B4499000B44B0FBF3F301333A
:103EA000C3F30B03002B0CBF01230023DBB2002B59
:103EB00001D0012322E07B689B68002B0ED1FB68B8
:103EC000581E7B6859680B465B000B44B0FBF3F34C
:103ED0000133C3F30B0343F400430FE0FB68581EA8
:103EE0007B6859680B469B000B4499000B44B0FB60
:103EF000F3F30133C3F30B0343F4404379680968D8
:103F00001343CB617B681B681B6823F0C0017B688F
:103F1000DA697B681B6A1A437B681B680A431A606C
:103F20007B681B689B6823F4034323F0FF037A68D4
:103F300011697A68D26811437A6812680B439360FA
:103F40007B681B68DB6823F0FF017B685A697B682C
:103F50009B691A437B681B680A43DA607B681B68AD
:103F60001A687B681B6842F001021A607B680022B5
:103F70001A647B68202283F83D207B6800221A6344
:103F80007B68002283F83E20002318461037BD4688
:103F900080BD00BFA08601007F841E00FF083D0099
:103FA00083DE1B43D34D621080B483B000AF7860D2
:103FB0007B681B685B6903F08003802B03D17B68FF
:103FC0001B6800221A6100BF0C37BD465DF8047BF8
:103FD000704780B588B000AF78600023BB617B6814
:103FE0001B685B687B617B68DB6A3B617B6893F87D
:103FF0003E30FB737B6893F83D30BB73FB7B102B2B
:1040000003D0FB7B402B40F0C1807B681B689B6921
:10401000BB617B681B685B69FB61FB6903F00103A3
:10402000002B0DD13B69B3F52A0F03D03B69B3F1E7
:104030002A4F01D1012300E00023012B00F032813F
:10404000FB6903F00103002B0CD07B695B0A03F0D2
:104050000103002B06D0786801F098FC786800F026
:104060009BFD92E0FB69DB0803F00103002B09D004
:104070007B695B0A03F00103002B03D0786800F032
:1040800011FE82E0FB695B0803F00103002B09D0FD
:104090007B695B0A03F00103002B03D0786800F012
:1040A0002BFE72E0BB699B0803F00103002B3BD0A1
:1040B0007B681B685B6803F40063B3F5006F00F076
:1040C000F380FB69DB0903F00103002B0FD07B6950
:1040D0009B0A03F00103002B09D0FB699B0803F046
:1040E0000103002B03D1786800F0F3F94DE0FB6980
:1040F0009B0803F00103002B00F0D6807B695B0A6C
:1041000003F00103002B00F0CF80BB7B212B03D1F8
:10411000786800F07AFAC7E0FB7B402B40F0C4805F
:10412000786800F0E8FABFE07B681B685B6803F41E
:104130000063B3F5006F00F0B780FB699B0903F0E3
:104140000103002B0FD07B699B0A03F00103002BB6
:1041500009D0FB699B0803F00103002B03D17868A9
:1041600000F061FB11E0FB699B0803F00103002BE9
:1041700000F09A807B695B0A03F00103002B00F0DA
:104180009380786800F017FC8EE08DE07B681B6CF4
:10419000002B04D07B681B685B69FB6107E07B68D0
:1041A0001B689B69BB617B681B685B69FB61FB6982
:1041B0005B0803F00103002B12D07B695B0A03F05C
:1041C0000103002B0CD07B681B6C002B03D07B6899
:1041D0001B689B69BB61B969786800F0DCFF66E029
:1041E000FB691B0903F00103002B09D07B695B0A03
:1041F00003F00103002B03D0786801F017F856E0B4
:10420000BB7B212B02D0BB7B292B25D1FB69DB0992
:1042100003F00103002B0FD07B699B0A03F001031D
:10422000002B09D0FB699B0803F00103002B03D18D
:10423000786800F0F2FE39E0FB699B0803F00103A7
:10424000002B33D07B695B0A03F00103002B2DD0D8
:10425000786800F01FFF29E0FB699B0903F0010368
:10426000002B0FD07B699B0A03F00103002B09D0C0
:10427000FB699B0803F00103002B03D1786800F071
:104280002AFF14E0FB699B0803F00103002B0ED00A
:104290007B695B0A03F00103002B08D0786800F00B
:1042A00058FF04E000BF02E000BF00E000BF20377D
:1042B000BD4680BD80B58AB000AF78607B681B6862
:1042C0005B693B627B681B685B68FB6100237B6208
:1042D0007B6893F83E30FB763B6A1B0A03F00103D0
:1042E000002B0ED0FB691B0A03F00103002B08D042
:1042F0007B6A43F001037B627B681B686FF480720A
:104300005A613B6A5B0A03F00103002B0ED0FB6984
:104310001B0A03F00103002B08D07B6A43F0020361
:104320007B627B681B686FF400725A613B6A9B0A70
:1043300003F00103002B3FD0FB691B0A03F00103CC
:10434000002B39D0FB7EBB767B685B8D9BB27B619B
:104350007B6893F83D30FB747B681B6BFB60BB7E16
:10436000202B12D17B69002B0FD1FB7C212B08D095
:10437000FB7C292B05D0FB7C282B06D1FB68212B4D
:1043800003D1786801F082F816E07B681B686FF44F
:1043900080625A617B6A43F004037B62FB7E102BD0
:1043A00002D0FB7E402B07D17B681B681A687B68B4
:1043B0001B6842F400721A603B6ADB0A03F00103D7
:1043C000002B0ED0FB691B0A03F00103002B08D061
:1043D0007B6A43F008037B627B681B686FF40062B2
:1043E0005A617B6A002B08D07B681A6C7B6A1A437F
:1043F0007B681A64786801F0BDF800BF2837BD46B5
:1044000080BD80B483B000AF786000BF0C37BD467C
:104410005DF8047B704780B483B000AF786000BF64
:104420000C37BD465DF8047B704780B483B000AFA5
:10443000786000BF0C37BD465DF8047B704780B4E0
:1044400083B000AF786000BF0C37BD465DF8047BD9
:10445000704780B483B000AF78600B46FB701346A2
:104460003B8000BF0C37BD465DF8047B704780B4CD
:1044700083B000AF786000BF0C37BD465DF8047BA9
:10448000704780B483B000AF786000BF0C37BD4682
:104490005DF8047B704780B483B000AF786000BFE4
:1044A0000C37BD465DF8047B704780B483B000AF25
:1044B000786000BF0C37BD465DF8047B704780B460
:1044C00083B000AF786000BF0C37BD465DF8047B59
:1044D000704780B584B000AF78607B6893F83D305A
:1044E000FB737B6893F83E30BB737B68DB6ABB6011
:1044F0007B681B8D002B50D1FB7B212B4DD1BB68E2
:10450000082B1DD0BB68202B1AD0BB6813F5803F49
:1045100016D07B681B685A687B681B6822F4E062CF
:104520005A607B6811221A637B68002283F83E2060
:104530007B68202283F83D207868FFF762FF60E007
:104540007B681B685A687B681B6822F4E0625A60CB
:104550007B681B681A687B681B6842F400721A60EB
:104560007B6800221A637B68202283F83D207B68E9
:1045700093F83E30DBB2402B07D17B68002283F8F2
:104580003E207868FFF77DFF3BE07B68002283F8E0
:104590003E207868FFF735FF33E0FB7B212B05D009
:1045A000BB7B402B2DD1FB7B222B2AD17B685B8DE3
:1045B0009BB2002B08D17B681B685A687B681B681C
:1045C00022F480625A601CE07B6893F83E30DBB2D4
:1045D000402B03D1786800F08EF812E07B685B6AAC
:1045E0001A787B681B681A617B685B6A5A1C7B6857
:1045F0005A627B685B8D9BB2013B9AB27B685A859D
:10460000FFE700BF1037BD4680BD80B584B000AF66
:1046100078607B68DB6AFB607B6893F83D30DBB2D7
:10462000212B64D17B685B8D9BB2002B12D07B6801
:104630005B6A1A787B681B681A617B685B6A5A1C24
:104640007B685A627B685B8D9BB2013B9AB27B6848
:104650005A854CE0FB68082B1DD0FB68202B1AD034
:10466000FB6813F5803F16D07B681B685A687B682F
:104670001B6822F4E0625A607B6811221A637B682F
:10468000002283F83E207B68202283F83D20786852
:10469000FFF7B7FE2BE07B681B685A687B681B68D6
:1046A00022F4E0625A607B681B681A687B681B68AA
:1046B00042F400721A607B6800221A637B68202231
:1046C00083F83D207B6893F83E30DBB2402B07D166
:1046D0007B68002283F83E207868FFF7D2FE06E070
:1046E0007B68002283F83E207868FFF78AFE00BFCF
:1046F0001037BD4680BD80B584B000AF78607B6860
:1047000093F83D30FB737B681B6D002B1DD17B68DC
:10471000DB6C012B0BD17B689B6CDAB27B681B686E
:104720001A617B681B6D9A1C7B681A6577E07B6851
:104730009B6C9BB21B12DAB27B681B681A617B68A8
:104740001B6D5A1C7B681A6569E07B681B6D012B29
:104750000BD17B689B6CDAB27B681B681A617B6843
:104760001B6D5A1C7B681A6559E07B681B6D022B18
:1047700052D1FB7B222B0DD17B681B681A687B68AA
:104780001B6842F480721A607B681B6D5A1C7B6840
:104790001A6544E07B685B8D9BB2002B15D0FB7BD8
:1047A000212B12D17B685B6A1A787B681B681A61BF
:1047B0007B685B6A5A1C7B685A627B685B8D9BB224
:1047C000013B9AB27B685A8529E07B685B8D9BB27E
:1047D000002B24D1FB7B212B21D17B681B685A68DD
:1047E0007B681B6822F4E0625A607B681B681A6869
:1047F0007B681B6842F400721A607B6800221A63AF
:104800007B68202283F83D207B68002283F83E20CD
:104810007868FFF736FE02E07868FFF7C5FB00BF57
:104820001037BD4680BD80B584B000AF78607B682E
:1048300093F83D30DBB2222B40F0B9807B68DB6A15
:10484000FB607B685B8D9BB2BB60BB68032B21D98F
:104850007B681B681A697B685B6AD2B21A707B68D6
:104860005B6A5A1C7B685A627B685B8D9BB2013B1A
:104870009AB27B685A857B685B8D9BB2032B40F0B4
:1048800096807B681B685A687B681B6822F480628C
:104890005A608CE07B68DB6A022B7FD0BB68012BFF
:1048A00002D0BB68002B79D1786801F03DF803464F
:1048B000002B4CD17B681B681A687B681B6822F44C
:1048C00080621A607B681B685A687B681B6822F4E8
:1048D000E0625A607B681B681A697B685B6AD2B2C7
:1048E0001A707B685B6A5A1C7B685A627B685B8DB6
:1048F0009BB2013B9AB27B685A857B68202283F881
:104900003D207B6893F83E30DBB2402B0AD17B68B8
:10491000002283F83E207B6800221A637868FFF744
:10492000BAFD44E07B68002283F83E20FB68082B38
:1049300002D0FB68202B03D17B6800221A6302E0BF
:104940007B6812221A637868FFF765FD2FE07B68A9
:104950001B685A687B681B6822F4E0625A607B68B7
:104960001B681A697B685B6AD2B21A707B685B6AE3
:104970005A1C7B685A627B685B8D9BB2013B9AB282
:104980007B685A857B68202283F83D207B68002263
:1049900083F83E207868FFF788FD08E07B681B6895
:1049A0005A687B681B6822F480625A60FFE700BF88
:1049B0001037BD4680BD80B584B000AF78607B689D
:1049C000DB6AFB607B685B8D9BB2042B1BD17B6831
:1049D0001B685A687B681B6822F480625A607B6897
:1049E0001B681A697B685B6AD2B21A707B685B6A63
:1049F0005A1C7B685A627B685B8D9BB2013B9AB202
:104A00007B685A85C4E07B685B8D9BB2032B29D100
:104A10007B681B685A687B681B6822F480625A6056
:104A2000FB68042B0AD0FB68022B07D07B681B684D
:104A30001A687B681B6822F480621A607B681B68B6
:104A40001A697B685B6AD2B21A707B685B6A5A1C0F
:104A50007B685A627B685B8D9BB2013B9AB27B6834
:104A60005A8595E07B685B8D9BB2022B7DD1FB68FC
:104A7000012B02D0FB68102B08D17B681B681A68D9
:104A80007B681B6822F480621A6016E0FB68042BC6
:104A900002D0FB68022B08D17B681B681A687B6810
:104AA0001B6842F480621A6007E07B681B681A6822
:104AB0007B681B6842F400721A607B681B681A6985
:104AC0007B685B6AD2B21A707B685B6A5A1C7B682F
:104AD0005A627B685B8D9BB2013B9AB27B685A85B8
:104AE0007B681B681A697B685B6AD2B21A707B6844
:104AF0005B6A5A1C7B685A627B685B8D9BB2013B88
:104B00009AB27B685A857B681B685A687B681B6809
:104B100022F440725A607B68202283F83D207B6833
:104B200093F83E30DBB2402B0AD17B68002283F839
:104B30003E207B6800221A637868FFF7ACFC27E010
:104B40007B68002283F83E20FB68082B02D0FB68BC
:104B5000202B03D17B6800221A6302E07B681222BB
:104B60001A637868FFF757FC12E07B681B681A69C4
:104B70007B685B6AD2B21A707B685B6A5A1C7B687E
:104B80005A627B685B8D9BB2013B9AB27B685A8507
:104B900000BF1037BD4680BD80B483B000AF7860E1
:104BA0007B6893F83E30DBB2402B17D17B681B6DDE
:104BB000002B09D17B685B6CDBB21A467B681B68F3
:104BC00002F0FE021A6167E07B685B6CDBB243F0C7
:104BD0000103DAB27B681B681A615DE07B681B69C0
:104BE000B3F5804F33D17B6893F83D30DBB2212B96
:104BF00009D17B685B6CDBB21A467B681B6802F0EC
:104C0000FE021A6108E07B685B6CDBB243F00103D3
:104C1000DAB27B681B681A617B685B6B002B04D07F
:104C20007B685B6BDB6B002B08D17B689B6B002B7D
:104C300032D07B689B6BDB6B002B2DD07B681B68B5
:104C40005A687B681B6842F400625A6024E07B6803
:104C50001B6D002B0ED17B685B6C9BB2DB11DBB252
:104C600003F00603DBB263F00F03DAB27B681B6864
:104C70001A6111E07B681B6D012B0DD17B685B6CA9
:104C80009BB2DB11DBB203F00603DBB263F00E0371
:104C9000DAB27B681B681A6100BF0C37BD465DF84D
:104CA000047B704780B483B000AF78607B685B6C36
:104CB000DAB27B681B681A617B685B6B002B04D0DF
:104CC0007B685B6BDB6B002B08D17B689B6B002BDD
:104CD0000CD07B689B6BDB6B002B07D07B681B6861
:104CE0005A687B681B6842F400625A6000BF0C3748
:104CF000BD465DF8047B704780B491B000AF78602A
:104D00007B6893F83E3087F83F307B68DB6ABB6393
:104D10007B681B6B7B637B6893F83D30DBB2222B97
:104D200040F069817B681B6D002B0FD197F83F30F5
:104D3000402B0BD100233B637B681B685B693B63A3
:104D40007B681B689B693B633B6B60E17B681B6D09
:104D5000002B1DD17B681B69B3F5404F18D1002390
:104D6000FB627B681B685B69FB627B681B689B69F5
:104D7000FB62FB6A7B681B681A687B681B6842F4ED
:104D800080721A607B681B6D5A1C7B681A653EE155
:104D90007B685B8D9BB2002B13D10023BB627B68C9
:104DA0001B685B69BB627B681B689B69BB62BB6AF3
:104DB0007B681B681A687B681B6842F400721A6083
:104DC00015E17B685B8D9BB2012B40F08A80BB6B49
:104DD00013F5803F37D17B681B681A687B681B68B6
:104DE00022F480621A607B681B685B6803F40063CE
:104DF000B3F5006F13D17B681B681A687B681B686A
:104E000022F480621A6000237B627B681B685B6906
:104E10007B627B681B689B697B627B6AE7E000239F
:104E20003B627B681B685B693B627B681B689B69B4
:104E30003B623B6A7B681B681A687B681B6842F4AC
:104E400000721A60D3E0BB6B082B2ED0BB6B202BFB
:104E50002BD07B6B122B02D1BB6B012B25D1BB6BF3
:104E6000042B0ED0BB6B022B0BD0BB6B102B08D0CE
:104E70007B681B681A687B681B6822F480621A6072
:104E800007E07B681B681A687B681B6842F48062D5
:104E90001A600023FB617B681B685B69FB617B68B0
:104EA0001B689B69FB61FB69A1E07B681B681A6852
:104EB0007B681B6822F480621A600023BB617B68F8
:104EC0001B685B69BB617B681B689B69BB61BB69D5
:104ED0007B681B681A687B681B6842F400721A6062
:104EE00085E07B685B8D9BB2022B4DD1BB6B042BA5
:104EF00016D0BB6B022B13D0BB6B102B10D07B6872
:104F00001B681A687B681B6822F480621A607B68E1
:104F10001B681A687B681B6842F400621A6007E02D
:104F20007B681B681A687B681B6842F480621A60A1
:104F30007B681B685B6803F40063B3F5006F17D1EF
:104F4000BB6B13F5803F0BD0BB6B012B08D0BB6B49
:104F5000082B05D0BB6B102B02D0BB6B202B07D1CD
:104F60007B681B685A687B681B6842F480525A60F1
:104F700000237B617B681B685B697B617B681B68C6
:104F80009B697B617B6932E07B681B681A687B6880
:104F90001B6842F480621A607B681B685B6803F4DC
:104FA0000063B3F5006F17D1BB6B13F5803F0BD0D7
:104FB000BB6B012B08D0BB6B082B05D0BB6B102B38
:104FC00002D0BB6B202B07D17B681B685A687B68BB
:104FD0001B6842F480525A6000233B617B681B6867
:104FE0005B693B617B681B689B693B613B697B68D4
:104FF00000221A650BE00023FB607B681B685B697D
:10500000FB607B681B689B69FB60FB68FFE700BF78
:105010004437BD465DF8047B704780B584B000AF6F
:1050200078607B6893F83D30FB737B685B8D9BB247
:10503000002B2BD07B685B6A1A787B681B681A612F
:105040007B685B6A5A1C7B685A627B685B8D9BB28B
:10505000013B9AB27B685A857B685B8D9BB2002BC3
:1050600014D1FB7B292B11D17B681B685A687B68A4
:105070001B6822F480625A607B6821221A637B6875
:10508000282283F83D207868FFF7CFF900BF10375A
:10509000BD4680BD80B483B000AF78607B685B8D17
:1050A0009BB2002B11D07B685B6A1A787B681B6807
:1050B0001A617B685B6A5A1C7B685A627B685B8DED
:1050C0009BB2013B9AB27B685A8500BF0C37BD4644
:1050D0005DF8047B704780B584B000AF78607B6872
:1050E00093F83D30FB737B685B8D9BB2002B2CD01B
:1050F0007B681B681A697B685B6AD2B21A707B682E
:105100005B6A5A1C7B685A627B685B8D9BB2013B71
:105110009AB27B685A857B685B8D9BB2002B14D159
:10512000FB7B2A2B11D17B681B685A687B681B6844
:1051300022F480625A607B6822221A637B682822EC
:1051400083F83D207868FFF77AF900BF1037BD4635
:1051500080BD80B483B000AF78607B685B8D9BB20C
:10516000002B12D07B681B681A697B685B6AD2B21D
:105170001A707B685B6A5A1C7B685A627B685B8D1D
:105180009BB2013B9AB27B685A8500BF0C37BD4683
:105190005DF8047B704780B584B000AF78603960FB
:1051A0000023FB737B6893F83D30DBB203F02803E8
:1051B000282B27D17B681B685A687B681B6822F400
:1051C00080625A603B689B0803F00103002B01D109
:1051D0000123FB733B68DB0903F00103002B03D1C0
:1051E0007B68DB68BB8102E07B689B69BB817B6875
:1051F000002283F83C20BA89FB7B19467868FFF7C8
:1052000028F90EE00023BB607B681B685B69BB600C
:105210007B681B689B69BB60BB687B68002283F866
:105220003C2000BF1037BD4680BD000080B584B073
:1052300000AF78607B6893F83D30FB737B681B6838
:105240005A687B681B6822F4E0625A600023BB60E6
:105250007B681B685B69BB607B681B681A687B683E
:105260001B6842F001021A60BB687B681B681A6801
:105270007B681B6822F480621A607B681B685B682D
:1052800003F40063B3F5006F72D1FB7B222B02D0D5
:10529000FB7B2A2B35D17B689B6B1B685B689AB2C2
:1052A0007B685A857B685B8D9BB2002B05D07B6841
:1052B0001B6C43F004027B681A647B681B685A68A5
:1052C0007B681B6822F400625A607B689B6B1846FF
:1052D000FEF714FB0346012B49D07B689B6B694AA0
:1052E0001A657B689B6B1846FEF75CF90346002B3A
:1052F0003DD07B689B6B1B6D7A68926B104698471C
:1053000035E07B685B6B1B685B689AB27B685A858B
:105310007B685B8D9BB2002B05D07B681B6C43F0D8
:1053200004027B681A647B681B685A687B681B6888
:1053300022F400625A607B685B6B1846FEF7DEFA67
:105340000346012B14D07B685B6B4E4A1A657B6861
:105350005B6B1846FEF726F90346002B08D07B68E6
:105360005B6B1B6D7A68526B1046984700E000BF7C
:105370007B685B8D9BB2002B3ED07B681B685B69B2
:1053800003F00403042B12D17B681B681A697B6845
:105390005B6AD2B21A707B685B6A5A1C7B685A627D
:1053A0007B685B8D9BB2013B9AB27B685A857B68B8
:1053B0001B685B6903F04003402B12D17B681B68BC
:1053C0001A697B685B6AD2B21A707B685B6A5A1C86
:1053D0007B685A627B685B8D9BB2013B9AB27B68AB
:1053E0005A857B685B8D9BB2002B05D07B681B6C5C
:1053F00043F004027B681A647B681B6C002B03D0AB
:10540000786800F0B7F839E0FB7B2A2B09D17B687C
:1054100000221A637B68282283F83D207868FFF712
:105420000EF87B6893F83D30DBB2282B11D17B68F6
:10543000154ADA627B6800221A637B68202283F8AF
:105440003D207B68002283F83E207868FFF70FF844
:1054500014E07B681B6B222B02D0FB7B222B0DD12F
:105460007B6800221A637B68202283F83D207B68DA
:10547000002283F83E207868FEF7E1FF00BF103776
:10548000BD4680BDD95700080000FFFF80B584B03D
:1054900000AF78607B6893F83D30FB737B68DB6A14
:1054A000BB60BB68082B02D0BB68202B29D1FB7BDB
:1054B000282B26D17B682E4ADA627B681B685A68E3
:1054C0007B681B6822F4E0625A607B681B686FF49B
:1054D00080625A617B681B681A687B681B6822F4CB
:1054E00080621A607B6800221A637B68202283F83E
:1054F0003D207B68002283F83E207868FEF7B7FFE6
:1055000031E0FB7B212B29D17B68194ADA627B6869
:1055100021221A637B68202283F83D207B680022C9
:1055200083F83E207B681B685A687B681B6822F4FE
:10553000E0625A607B681B686FF480625A617B6826
:105540001B681A687B681B6822F480621A6078689E
:10555000FEF72AFD7868FEF768FF04E07B681B68A9
:105560006FF480625A6100BF1037BD4680BD00BF36
:105570000000FFFF80B584B000AF78607B6893F8CF
:105580003D30FB737B6893F83E30BB73BB7B102BC5
:1055900002D0BB7B402B0AD1FB7B222B07D17B683F
:1055A0001B681A687B681B6822F400621A60FB7B28
:1055B00003F02803282B07D17B6800221A637B683D
:1055C000282283F83D2015E07B681B685B6803F4A4
:1055D0000063B3F5006F0AD0FB7B602B07D07B68BC
:1055E000202283F83D207B68002283F83E207B68E0
:1055F00000221A637B681B685B6803F40063B3F5E1
:10560000006F62D17B681B685A687B681B6822F454
:1056100000625A607B685B6B93F83530DBB2012B1C
:1056200020D07B685B6B6A4A1A657B685B6B1846A7
:10563000FDF7B8FF0346002B00F089807B681B68EC
:105640001A687B681B6822F001021A607B682022BE
:1056500083F83D207B685B6B1B6D7A68526B10464C
:10566000984774E07B689B6B594A1A657B689B6B13
:105670001846FDF797FF0346002B68D07B681B6830
:105680005B6903F04003402B0BD17B681B681A69F0
:105690007B685B6AD2B21A707B685B6A5A1C7B6853
:1056A0005A627B681B681A687B681B6822F00102DB
:1056B0001A607B68202283F83D207B689B6B1B6D02
:1056C0007A68926B1046984741E07B6893F83D30CA
:1056D000DBB2602B25D17B68202283F83D207B68DC
:1056E00000221A647B681B685B6903F04003402B4F
:1056F0000BD17B681B681A697B685B6AD2B21A702F
:105700007B685B6A5A1C7B685A627B681B681A68F4
:105710007B681B6822F001021A607868FEF7CFFEF2
:1057200015E07B681B685B6903F04003402B0BD1DD
:105730007B681B681A697B685B6AD2B21A707B68E7
:105740005B6A5A1C7B685A627868FEF7AEFE7B681B
:105750001B6CBB60BB6803F00103002B0ED1BB6860
:1057600003F00203002B09D1BB6803F00403002BF4
:1057700004D1BB6803F00803002B07D07B681B68CB
:105780005A687B681B6822F4E0625A607B6893F871
:105790003D30FB737B681B6C03F00403042B13D1B7
:1057A000FB7B282B10D17B680A4ADA627B680022D7
:1057B0001A637B68202283F83D207B68002283F8EF
:1057C0003E207868FEF753FE00BF1037BD4680BD0F
:1057D000D95700080000FFFF80B586B000AF7860A1
:1057E0000023FB607B689B6B7B617B6993F83D309A
:1057F000FB744B4B1B68DB084A4AA2FB03231A0AC3
:1058000013469B001344DA00D31AFB60FB68002B9D
:1058100006D17B691B6C43F020027B691A640AE0A5
:10582000FB68013BFB607B691B681B6803F400732A
:10583000B3F5007FEAD07B695B6B002B03D07B69FB
:105840005B6B0022DA637B699B6B002B03D07B6967
:105850009B6B0022DA637B691B681A687B691B6893
:1058600022F480621A607B6900225A857B695B6B37
:10587000002B03D07B695B6B00221A657B699B6BF5
:10588000002B03D07B699B6B00221A657B691B6828
:105890001A687B691B6822F001021A607B6993F821
:1058A0003D30DBB2602B0ED17B69202283F83D2096
:1058B0007B69002283F83E207B6900221A647869A4
:1058C000FEF7FDFD27E0FB7C03F02803282B17D112
:1058D0007B691B681A687B691B6842F001021A60C9
:1058E0007B691B681A687B691B6842F480621A60D6
:1058F0007B6900221A637B69282283F83D2007E038
:105900007B69202283F83D207B69002283F83E20BA
:105910007869FEF7CAFD00BF1837BD4680BD00BFDD
:105920005C00002089B5F81480B485B000AF7860C1
:105930000023FB60134B1B68DB08134AA2FB032305
:105940001A0A13469B001344FB60FB68013BFB6093
:10595000FB68002B07D17B681B6C43F020027B683F
:105960001A64012308E07B681B681B6803F400735A
:10597000B3F5007FE9D0002318461437BD465DF823
:10598000047B70475C00002089B5F81480B483B0B4
:1059900000AF78607B68DB6AB3F52A0F03D17B68C0
:1059A0000122DA6207E07B68DB6AB3F12A4F02D199
:1059B0007B680822DA6200BF0C37BD465DF8047BC5
:1059C000704780B582B000AF78607B68002B01D152
:1059D00001231CE07B685B79DBB2002B05D17B687F
:1059E00000221A71786803F035FD7B6802225A7133
:1059F0007B681B681A687B681B6842F004021A60A7
:105A00007B6801225A717B6800229A600023184645
:105A10000837BD4680BD80B584B000AF78607B6834
:105A2000002B01D1012373E07B685B7FDBB2002B8D
:105A300005D17B6800221A77786803F053FD7B68F4
:105A400002225A777B681B68DB6803F01003102B77
:105A500055D07B681B68CA225A627B681B68532238
:105A60005A62786800F07EF80346FB73FB7B002BDC
:105A70002CD17B681B689B687A68126823F4E0036A
:105A800023F0400393607B681B6899687B685A68C1
:105A90007B681B691A437B685B691A437B681B68D8
:105AA0000A439A607B681B687A68D2681A617B68CF
:105AB0001B6819697B689B681A047B681B680A432A
:105AC0001A61786800F085F80346FB73FB7B002BB6
:105AD00010D17B681B681A6C7B681B6822F48022DB
