:020000040800F2
:100000000000022045F60008F18C0008F98C000879
:10001000018D0008098D0008118D00080000000006
:1000200000000000000000000000000081F2000855
:10003000198D000800000000D1F4000839F500080F
:1000400095F6000895F6000895F6000895F6000864
:10005000278D000895F6000895F6000895F600082B
:1000600095F60008338D0008418D000895F60008CC
:10007000518D000895F6000895F6000895F60008E1
:1000800095F6000895F6000895F6000895F6000824
:10009000658D0008798D000895F600088D8D0008A3
:1000A00095F6000895F6000895F6000895F6000804
:1000B00095F6000895F6000895F6000895F60008F4
:1000C00095F6000895F6000895F600089D8D000845
:1000D00095F6000895F6000895F60008B18D000821
:1000E00095F6000895F6000895F6000895F60008C4
:1000F00095F60008C58D000895F6000895F60008ED
:1001000095F6000895F6000895F6000895F60008A3
:1001100095F6000895F6000895F6000895F6000893
:10012000E18D0008F58D000895F60008098E00089D
:1001300095F6000895F6000895F6000895F6000873
:1001400095F6000895F6000895F6000895F6000863
:1001500095F600081D8E000895F60008318E0008FF
:1001600095F6000895F6000895F6000895F6000843
:1001700095F6000895F6000895F6000800000000C6
:0801800095F6000895F6000851
:1001900081F0004102E000BF83F0004330B54FEA38
:1001A00041044FEA430594EA050F08BF90EA020FA5
:1001B0001FBF54EA000C55EA020C7FEA645C7FEA38
:1001C000655C00F0E2804FEA5454D4EB5555B8BF5B
:1001D0006D420CDD2C4480EA020281EA030382EACC
:1001E000000083EA010180EA020281EA0303362D5E
:1001F00088BF30BD11F0004F4FEA01314FF4801C31
:100200004CEA113102D0404261EB410113F0004F42
:100210004FEA03334CEA133302D0524263EB4303F9
:1002200094EA050F00F0A780A4F10104D5F1200E97
:100230000DDB02FA0EFC22FA05F2801841F10001F2
:1002400003FA0EF2801843FA05F359410EE0A5F1C6
:1002500020050EF1200E012A03FA0EFC28BF4CF0F7
:10026000020C43FA05F3C01851EBE37101F00045AD
:1002700007D54FF0000EDCF1000C7EEB00006EEBBA
:100280000101B1F5801F1BD3B1F5001F0CD3490844
:100290005FEA30004FEA3C0C04F101044FEA44529B
:1002A00012F5800F80F09A80BCF1004F08BF5FEA22
:1002B000500C50F1000041EB045141EA050130BD02
:1002C0005FEA4C0C404141EB0101013C28BFB1F514
:1002D000801FE9D291F0000F04BF01460020B1FA5F
:1002E00081F308BF2033A3F10B03B3F120020CDA32
:1002F0000C3208DD02F1140CC2F10C0201FA0CF010
:1003000021FA02F10CE002F11402D8BFC2F1200C74
:1003100001FA02F120FA0CFCDCBF41EA0C0190402A
:10032000E41AA2BF01EB0451294330BD6FEA040473
:100330001F3C1CDA0C340EDC04F11404C4F120025E
:1003400020FA04F001FA02F340EA030021FA04F370
:1003500045EA030130BDC4F10C04C4F1200220FAC7
:1003600002F001FA04F340EA0300294630BD21FA05
:1003700004F0294630BD94F0000F83F4801306BFCB
:1003800081F480110134013D4EE77FEA645C18BFBF
:100390007FEA655C29D094EA050F08BF90EA020F56
:1003A00005D054EA000C04BF1946104630BD91EA4E
:1003B000030F1EBF0021002030BD5FEA545C05D151
:1003C0004000494128BF41F0004130BD14F5800490
:1003D0003CBF01F5801130BD01F0004545F0FE4104
:1003E00041F470014FF0000030BD7FEA645C1ABF39
:1003F000194610467FEA655C1CBF0B46024650EA70
:10040000013406BF52EA033591EA030F41F400219B
:1004100030BD00BF90F0000F04BF0021704730B521
:100420004FF4806404F132044FF000054FF00001F6
:1004300050E700BF90F0000F04BF0021704730B5B7
:100440004FF4806404F1320410F0004548BF40428C
:100450004FF000013EE700BF42004FEAE2014FEAE1
:1004600031014FEA02701FBF12F07F4393F07F4FBC
:1004700081F06051704732F07F4208BF704793F0BF
:100480007F4F04BF41F40021704730B54FF46074D2
:1004900001F0004521F000411CE700BF50EA0102D5
:1004A00008BF704730B54FF000050AE050EA01027E
:1004B00008BF704730B511F0004502D5404261EBEE
:1004C00041014FF4806404F132045FEA915C3FF42F
:1004D000D8AE4FF003025FEADC0C18BF03325FEACC
:1004E000DC0C18BF033202EBDC02C2F1200300FA7D
:1004F00003FC20FA02F001FA03FE40EA0E0021FAA2
:1005000002F11444BDE600BF70B54FF0FF0C4CF48F
:10051000E06C1CEA11541DBF1CEA135594EA0C0F41
:1005200095EA0C0F00F0DEF82C4481EA030621EA7C
:100530004C5123EA4C5350EA013518BF52EA0335B7
:1005400041F4801143F4801338D0A0FB02CE4FF069
:100550000005E1FB02E506F00042E0FB03E54FF099
:100560000006E1FB03569CF0000F18BF4EF0010E91
:10057000A4F1FF04B6F5007F64F5407404D25FEA8D
:100580004E0E6D4146EB060642EAC62141EA555140
:100590004FEAC52040EA5E504FEACE2EB4F1FD0C82
:1005A00088BFBCF5E06F1ED8BEF1004F08BF5FEA00
:1005B000500E50F1000041EB045170BD06F00046B2
:1005C00046EA010140EA020081EA0301B4EB5C045F
:1005D000C2BFD4EB0C0541EA045170BD41F4801157
:1005E0004FF0000E013C00F3AB8014F1360FDEBF7C
:1005F000002001F0004170BDC4F10004203C35DA58
:100600000C341BDC04F11404C4F1200500FA05F3DA
:1006100020FA04F001FA05F240EA020001F000427B
:1006200021F0004110EBD37021FA04F642EB0601F1
:100630005EEA430E08BF20EAD37070BDC4F10C041B
:10064000C4F1200500FA04F320FA05F001FA04F2DF
:1006500040EA020001F0004110EBD37041F10001CB
:100660005EEA430E08BF20EAD37070BDC4F12005D6
:1006700000FA05F24EEA020E20FA04F301FA05F23E
:1006800043EA020321FA04F001F0004121FA04F2E6
:1006900020EA020000EBD3705EEA430E08BF20EAB6
:1006A000D37070BD94F0000F0FD101F000464000F0
:1006B00041EB010111F4801F08BF013CF7D041EA72
:1006C000060195F0000F18BF704703F00046520076
:1006D00043EB030313F4801F08BF013DF7D043EA47
:1006E0000603704794EA0C0F0CEA135518BF95EAFD
:1006F0000C0F0CD050EA410618BF52EA4306D1D184
:1007000081EA030101F000414FF0000070BD50EAA2
:10071000410606BF1046194652EA430619D094EA2C
:100720000C0F02D150EA013613D195EA0C0F05D116
:1007300052EA03361CBF104619460AD181EA03016A
:1007400001F0004141F0FE4141F470014FF0000022
:1007500070BD41F0FE4141F4780170BD70B54FF0BD
:10076000FF0C4CF4E06C1CEA11541DBF1CEA13553D
:1007700094EA0C0F95EA0C0F00F0A7F8A4EB05041F
:1007800081EA030E52EA03354FEA013100F0888016
:100790004FEA03334FF0805545EA131343EA1263DF
:1007A0004FEA022245EA111545EA10654FEA002694
:1007B0000EF000419D4208BF964244F1FD0404F54D
:1007C000407402D25B084FEA3202B61A65EB0305A9
:1007D0005B084FEA32024FF480104FF4002CB6EB66
:1007E000020E75EB030E22BFB61A754640EA0C00E6
:1007F0005B084FEA3202B6EB020E75EB030E22BF26
:10080000B61A754640EA5C005B084FEA3202B6EB66
:10081000020E75EB030E22BFB61A754640EA9C0025
:100820005B084FEA3202B6EB020E75EB030E22BFF5
:10083000B61A754640EADC0055EA060E18D04FEAB3
:10084000051545EA16754FEA06164FEAC30343EA53
:1008500052734FEAC2025FEA1C1CC0D111F4801F20
:100860000BD141EA00014FF000004FF0004CB6E719
:1008700011F4801F04BF01430020B4F1FD0C88BFB8
:10088000BCF5E06F3FF6AFAEB5EB030C04BFB6EBC3
:10089000020C5FEA500C50F1000041EB045170BDB6
:1008A0000EF0004E4EEA113114EB5C04C2BFD4EBE3
:1008B0000C0541EA045170BD41F480114FF0000E67
:1008C000013C90E645EA060E8DE60CEA135594EAE3
:1008D0000C0F08BF95EA0C0F3FF43BAF94EA0C0FE6
:1008E0000AD150EA01347FF434AF95EA0C0F7FF45B
:1008F00025AF104619462CE795EA0C0F06D152EAAF
:1009000003353FF4FDAE1046194622E750EA410692
:1009100018BF52EA43067FF4C5AE50EA41047FF4A3
:100920000DAF52EA43057FF4EBAE12E74FEA410206
:10093000B2F1E04324BFB3F5001CDCF1FE5C0DD93D
:1009400001F0004C4FEAC0024CEA5070B2F1004F87
:1009500040EB830008BF20F00100704711F0804F8A
:1009600021D113F13872BCBF01F00040704741F44F
:1009700080114FEA5252C2F11802C2F1200C10FA53
:100980000CF320FA02F018BF40F001004FEAC12337
:100990004FEAD32303FA0CFC40EA0C0023FA02F3DB
:1009A0004FEA4303CCE77FEA625307D150EA0133B1
:1009B0001EBF4FF0FE4040F44000704701F0004081
:1009C00040F0FE4040F40000704700BF53B94AB900
:1009D000002908BF00281CBF4FF0FF314FF0FF3047
:1009E00000F00CB8ADF1080C6DE904CE0FF0A6FADA
:1009F000DDF804E0DDE9022304B07047704700BF72
:100A000010F8012B11F8013B012A28BF9A42F7D0B8
:100A1000D01A70470348044B834202D0034B03B102
:100A200018477047540200205402002000000000C4
:100A30000548064B1B1AD90F01EBA301491002D040
:100A4000034B03B1184770475402002054020020A2
:100A50000000000010B5064C237843B9FFF7DAFF19
:100A6000044B13B10448AFF300800123237010BD81
:100A700058020020000000003817010808B5054B97
:100A80001BB105490548AFF30080BDE80840FFF7FA
:100A9000CFBF00BF000000005C0200203817010833
:100AA00002440346934200D1704703F8011BF9E763
:100AB00070B50D4D0D4C641BA4100026A64209D143
:100AC0000B4D0C4C10F038FE641BA4100026A642FF
:100AD00005D170BD55F8043B98470136EEE755F84F
:100AE000043B98470136F2E7242701082427010830
:100AF00024270108282701087047704770B50F4E5A
:100B00000C463168054611B900F0A6F83060214660
:100B1000284600F0A1F8431C03D14FF0FF342046D3
:100B200070BDC41C24F00304A042F8D0211A28464A
:100B300000F092F80130F2D1EFE700BFB4030020DB
:100B40002DE9F843CD1C25F0030508350C2D38BFE1
:100B50000C25002D064601DBA94204D90C23336085
:100B60000020BDE8F883DFF8D48000F069F8D8F8F9
:100B700000301C4644BB29463046FFF7BFFF431CEC
:100B8000044658D1D8F800402746002F43D1002C06
:100B90004BD023683946304604EB030900F05CF87B
:100BA000814542D121686D1A29463046FFF7A6FFDC
:100BB00001303AD023682B442360D8F800305A68BB
:100BC00062BBC8F800700FE02268521B20D40B2AC9
:100BD00017D96119A342256018BF5960636808BF1F
:100BE000C8F8001062514B60304600F02FF804F155
:100BF0000B00231D20F00700C21A1CBF1B1AA350B4
:100C0000AFE76268A3420CBFC8F800205A60EBE768
:100C100023466468AEE73C467F68B6E71A465B68E1
:100C2000A342FBD100235360DEE70C233360304640
:100C300000F00CF894E70560D6E700BFB803002089
:100C40000148FFF759BF00BFB00300200148FFF77C
:100C500054BF00BFB003002038B5064D0023044642
:100C600008462B600EF0B8FC431C02D12B6803B180
:100C7000236038BDAC03002080B483B000AF114BBB
:100C80001B78DBB2002B16D10E4B01221A700E4BD3
:100C90005B687B607A680D4B1B689A4204D20C4BF0
:100CA0001B6801330A4A1360074B5B68074A1360ED
:100CB000044B00221A7000BF0C37BD465DF8047B60
:100CC000704700BFE0030020001000E0D4030020C4
:100CD000D003002080B582B000AF7860164BDB688F
:100CE000154A43F08073D360144B00225A60134BB3
:100CF0001B68124A43F0010313607B68104A02FB31
:100D000003F3104A13600F4B1B680F4AA2FB032327
:100D10009B090E4A13600B4B1B680D4AA2FB032371
:100D20009B0C0C4A13600C4B00221A60FFF7A4FFC7
:100D300000BF0837BD4680BDF0ED00E0001000E0C8
:100D400040420F00C4030020D34D6210C8030020AE
:100D500083DE1B43CC030020D003002080B584B089
:100D600000AF7860104B5B68BB60BA687B681B683B
:100D7000D31A07EE903AF8EE676A0C4B1B6807EE41
:100D8000903AB8EE677AC6EE877AC7ED037ABA680A
:100D90007B681A60FFF770FFFB6807EE903AB0EED1
:100DA000670A1037BD4680BD001000E0C403002074
:100DB0002DE9B04F98B000AF5E4B5B68FB65FFF765
:100DC0005BFF5D4B1B6800229846914642464B46AE
:100DD0004FF000004FF00001D90741EA5201D0075F
:100DE00002460B46B2EB080463EB090523193B608E
:100DF00045EB05037B60D7E9004514EB080A45EB9A
:100E0000090BFB6D0022BB64FA64D7E912120B4692
:100E10001AEB03033B6413464BEB03037B64474B22
:100E2000D7E91012C3E90012444BD3E90001444B47
:100E30001B680022BB63FA63D7E90E23FFF7C6FDE8
:100E400002460B46104619463E4BC3E900013B4B98
:100E5000D3E900453A4B1B6800223B637A63394B68
:100E6000D3E90023D7E90C89494602FB01F041464A
:100E700001FB03F101444046A0FB02237B651346BE
:100E80003B657B6DCB187B65D7E914120B46E31AE3
:100E9000BB62134665EB0303FB622B4BD7E90A12D7
:100EA000C3E90012274BD3E90023284B1A60264BD5
:100EB000D3E90001264B1B6800223B627A62D7E926
:100EC0000823FFF783FD02460B4692B21F4B9A8020
:100ED0001D4BD3E900231D49898808461C49096830
:100EE00000FB01F10020B961F861D7E90645214610
:100EF000511A3961294663EB01037B61154BD7E930
:100F00000412C3E90012134BD3E90001124B1B6812
:100F10000022BB60FA60D7E90223FFF757FD0246C3
:100F20000B4692B2094BDA8000BF6037BD46BDE880
:100F3000B08F00BF001000E0D0030020D8030020D5
:100F4000C4030020E8030020F0030020BC030020BD
:100F5000C8030020F8030020CC03002080B582B035
:100F600000AFFFF725FF144B1B6807EE903AB8EE71
:100F7000677A114B9B8807EE903AF8EEE77ADFED3F
:100F80000F6A67EEA67A37EE277A0B4BDB8807EEFF
:100F9000903AF8EEE77ADFED0A6A67EEA67A77EE26
:100FA000277AC7ED017A7B6807EE903AB0EE670AC0
:100FB0000837BD4680BD00BFBC0300206F12833AD6
:100FC000BD37863580B485B000AF87ED010A124B7E
:100FD0005B68FB607B68BB6000BF0F4B5A68FB68B7
:100FE000D31A07EE903AB8EE677A0C4B1B6807EEFF
:100FF000903AF8EE676AD7ED027A66EEA77AB4EE19
:10100000E77AF1EE10FAE8D400BF00BF1437BD460E
:101010005DF8047B704700BF001000E0C4030020AF
:1010200080B582B000AF78607B68D3F8040179683E
:101030007B6893F800311A460BF078FF7B68D3F891
:101040000431DB6B1B681A687B68D3F80431DB6BF7
:101050001B6822F008021A6000BF0837BD4680BD39
:1010600080B586B002AF78602C4B1B78022B08D974
:101070002B4B00932B4B2C4A2C49002006F0B0F947
:10108000F6E70023FB7315E0FB7B294A52F8233077
:10109000D3F804217B685B689A4208D1204B009307
:1010A000204B214A2349002006F09AF9F6E7FB7B02
:1010B0000133FB73194B1B78FA7B9A42E4D34FF44C
:1010C00086700FF099F80346BB604FF486720021DA
:1010D000B868FFF7E5FC7B685A68BB68C3F8042171
:1010E0007B681A78BB6883F800217B689A68BB68C4
:1010F000C3F80821094B1B785A1CD1B2074A11705A
:1011000019460B4ABB6842F82130B868FFF788FFE0
:10111000BB6818461037BD4680BD00BF00040020E4
:101120009417010850170108541701085C170108AB
:10113000040400209C17010880B584B000AF7860DB
:101140000B467B800023FB734DE0FB7B2A4A52F861
:101150002330D3F804317A689A4241D1FB7B264A86
:1011600052F82330D3F80831002B10D0FB7B224AF1
:1011700052F82330D3F808319847FB7B1E4A52F8C7
:10118000233018467B881A460021FFF789FCFB7B39
:10119000194A52F82330D3F80401FB7B164A52F85F
:1011A00023301946FB7B144A52F8233093F8003160
:1011B0001A460BF0BBFEFB7B0F4A52F82330D3F8E4
:1011C0000431DB6B1B681A68FB7B0B4951F8233039
:1011D000D3F80431DB6B1B6822F008021A6007E0C9
:1011E000FB7B0133FB73054B1B78FA7B9A42ACD334
:1011F0001037BD4680BD00BF04040020000400205D
:1012000080B586B002AF78600023FB733EE0FB7BC5
:10121000224A52F82330D3F804317A689A4232D104
:10122000FB7B1E4A52F82330D3F80401FB7B1B4A98
:1012300052F823301946FB7B184A52F8233093F8B2
:1012400000311A460BF072FEFB7B144A52F8233031
:10125000D3F80431DB6B1B681A68FB7B0F4951F82C
:101260002330D3F80431DB6B1B6822F008021A60CC
:10127000FB7B0B4A019200930A4B0B4A0B4900205F
:1012800006F0AEF807E0FB7B0133FB73084B1B78DD
:10129000FA7B9A42BBD31037BD4680BD04040020C0
:1012A00094170108D8170108DC170108E417010892
:1012B0000004002080B584B000AF786010200EF0EC
:1012C0009BFF0346FB6010220021F868FFF7E8FB54
:1012D0007B689A68FB68DA607B681B88002B02D009
:1012E0007B681A8800E06422FB681A807B685A6871
:1012F000FB685A607B685B88002B02D07B685A8849
:1013000000E06422FB681A817B681A88FB681A81F6
:10131000074B1B785A1CD1B2054A11701946054A71
:10132000FB6842F82130FB6818461037BD4680BD87
:10133000100500201004002080B483B000AF786056
:101340007B681A887B681A8100BF0C37BD465DF840
:10135000047B704780B582B000AF00237B601CE047
:10136000134A7B6852F823303B603B681B89002B93
:1013700006D03B681B89013B9AB23B681A8109E0A1
:101380003B685B68002B05D03B685B683A68D268B5
:10139000104698477B6801337B60064B1B781A46E2
:1013A0007B689342DCD300BF00BF0837BD4680BDD9
:1013B000100400201005002080B586B000AF7860D2
:1013C00039604DE007F10C032B4A3968786807F063
:1013D000E4FE00237B613DE0284A7B6952F823301C
:1013E0001B687A689A4232D1234B1A6823497B6979
:1013F00051F823305B6B9A4229D1204A7B6952F81D
:101400002330D3F83930002B32D01B4B19691B4ADB
:101410007B6952F82330CAB283F83820174A7B69B7
:1014200052F823302C33144A126907F10C01184684
:101430000EF004FF114A7B6952F82330D3F839309B
:101440000E497A6951F822201046984711E07B69CD
:1014500001337B610A4B1B781A467B699342BBD3ED
:101460003968786807F0BBFF0346002BAAD100E07B
:1014700000BF1837BD4680BD580500201405002068
:101480005405002080B582B000AF786000217868F4
:10149000FFF792FF00BF0837BD4680BD80B582B020
:1014A00000AF786001217868FFF786FF00BF08373A
:1014B000BD4680BD80B483B000AF78607B6893ED9B
:1014C000017A7B68D3ED0C6A7B68D3ED0D7A76EEFA
:1014D000A76AB0EE006AC6EE867A27EE277A7B68A6
:1014E000D3ED187A67EE277A7B68C3ED127A00BFD6
:1014F0000C37BD465DF8047B704780B483B000AF05
:1015000078607B6893ED0C7A7B68D3ED107A67EE98
:10151000277AF5EEC07AF1EE10FA65DD7B68D3ED3F
:101520000C7AF5EEC07AF1EE10FA03DD7B68D3EDAC
:101530000C7A04E07B68D3ED0C7AF1EE677A7B6875
:1015400093ED077AF4EEC77AF1EE10FA4BD97B6887
:10155000D3ED0C7AF5EEC07AF1EE10FA03DD7B687C
:10156000D3ED0C7A04E07B68D3ED0C7AF1EE677A68
:101570007B68D3ED066A7B6893ED077A36EE877A4F
:10158000F4EEC77AF1EE10FA28D87B6893ED127A60
:101590007B68D3ED066A7B68D3ED0C7AF5EEC07AF2
:1015A000F1EE10FA03DD7B68D3ED0C7A04E07B6882
:1015B000D3ED0C7AF1EE677A76EEE76A7B68D3EDCD
:1015C000077A36EEA76A7B68D3ED066AC6EE267AFE
:1015D00067EE277A7B68C3ED127A05E07B684FF0EF
:1015E00000029A6400E000BF0C37BD465DF8047B42
:1015F0007047000080B483B000AF78607B6893EDE3
:10160000107A7B68D3ED127A77EE277A374BC3EDE9
:10161000007A7B6893ED0F7A7B68D3ED107A37EE12
:10162000277A7B68D3ED117A77EE277A304BC3EDBA
:10163000007A2F4BD3ED007AF5EEC07AF1EE10FA76
:1016400003DD2B4BD3ED007A04E0294BD3ED007A78
:10165000F1EE677A7B6893ED037AF4EEC77AF1EEE8
:1016600010FA10DD7B6893ED0C7A7B68D3ED107A6D
:1016700067EE277AF5EEC07AF1EE10FA03DD7B68AB
:101680004FF000029A647B6893ED057A174BD3ED17
:10169000007AB4EEE77AF1EE10FA07D57B684FF0E6
:1016A00000029A647B685A697B681A647B68D3ED90
:1016B000057AB1EE677A0D4BD3ED007AB4EEE77A96
:1016C000F1EE10FA00DC0BE07B684FF000029A6448
:1016D0007B68D3ED057AF1EE677A7B68C3ED107A0B
:1016E00000BF0C37BD465DF8047B704774050020D1
:1016F0007805002080B483B000AF78607B6893EDFC
:10170000027A7B68D3ED0B6A7B68D3ED0A7A76EEBA
:10171000E77A67EE276A7B6893ED187AC6EE877AD8
:101720007B68C3ED117A00BF0C37BD465DF8047BC2
:10173000704780B483B000AF78607B6893ED117A16
:101740007B68D3ED187A67EE276A7B6893ED097A98
:101750007B68D3ED187A77EE277A86EEA77A7B68D6
:10176000D3ED156A7B68D3ED097A26EEA76A7B680C
:10177000D3ED096A7B68D3ED187A76EEA76AC6EED8
:10178000267A77EE277A7B68C3ED117A00BF0C3793
:10179000BD465DF8047B704780B483B000AF7860CD
:1017A0007B6893ED137A7B68D3ED187A67EE276A2E
:1017B0007B6893ED087A7B68D3ED187A77EE277A09
:1017C00086EEA77A7B68D3ED146A7B68D3ED087A3E
:1017D00026EEA76A7B68D3ED086A7B68D3ED187A9A
:1017E00076EEA76AC6EE267A77EE277A7B68C3ED97
:1017F000137A00BF0C37BD465DF8047B704780B498
:1018000083B000AF78607B6893ED137A7B68D3ED8B
:10181000037AB4EEE77AF1EE10FA03DD7B68DA685A
:101820007B68DA647B6893ED137A7B68D3ED037A87
:10183000F1EE677AB4EEE77AF1EE10FA00D407E041
:101840007B68D3ED037AF1EE677A7B68C3ED137A98
:1018500000BF0C37BD465DF8047B704780B582B091
:1018600000AF78603960642200217868FFF718F9CA
:101870002822396878680EF0E1FC7B685C331846F2
:10188000FFF76CFA00BF0837BD4680BD80B584B055
:1018900000AFF86087ED020AC7ED010AFB685C3310
:1018A0001846FFF75BFAF0EE407AFB68C3ED187A52
:1018B000FB68BA689A62FB687A689A65FB6893ED80
:1018C000167AFB68D3ED0A7A77EE677AFB68C3ED88
:1018D0000C7AFB68D3ED0C7AF5EEC07AF1EE10FAD3
:1018E00003DDFB68D3ED0C7A04E0FB68D3ED0C7AE2
:1018F000F1EE677AFB6893ED047AF4EEC77AF1EEC5
:1019000010FA60DDFB6893ED007AFB68D3ED0C7A8A
:1019100067EE277AFB68C3ED0F7AFB6893ED017AD7
:10192000FB68D3ED0C7A27EE277AFB68D3ED187AA3
:1019300067EE277AFB68C3ED127AFB6893ED027AB3
:10194000FB68D3ED0C6AFB68D3ED0D7A76EEE77A8F
:1019500067EE276AFB6893ED187AC6EE877AFB6814
:10196000C3ED117AF868FFF7A5FDF868FFF7C5FD2C
:10197000F868FFF7BFFEF868FFF7DBFEF868FFF7CF
:1019800039FEFB6893ED107AFB68D3ED127A77EE9F
:10199000277AFB68C3ED107AFB6893ED0F7AFB683A
:1019A000D3ED107A37EE277AFB68D3ED117A77EE14
:1019B000277AFB68C3ED137AF868FFF7EDFEF86845
:1019C000FFF71DFF07E0FB684FF00002DA64FB68D9
:1019D0004FF000029A64FB689A6AFB68DA62FB685F
:1019E000DA6CFB681A65FB685A6CFB685A65FB6821
:1019F0001A6BFB685A63FB689A6CFB689A63FB6816
:101A0000DB6C07EE903AB0EE670A1037BD4680BD3A
:101A100080B582B000AF87ED010A3860D7ED017A5A
:101A2000F5EEC07AF1EE10FA0AD53B68002283F891
:101A3000E020D7ED017AF1EE677AC7ED017A03E095
:101A40003B68012283F8E0203B6893F8E030002BEC
:101A500014D03B68D3F8F8003B68B3F8E2300022BA
:101A6000194608F0A5FF3B68D3F8F8003B68B3F8C7
:101A7000E4300122194608F09BFF13E03B68D3F8DD
:101A8000F8003B68B3F8E2300122194608F090FFF5
:101A90003B68D3F8F8003B68B3F8E43000221946FD
:101AA00008F086FF3B68D3F8E830002B0BD13B6889
:101AB000D3F8F4301B68D7ED017AFCEEE77A17EE25
:101AC000902A5A632CE03B68D3F8E830042B0BD102
:101AD0003B68D3F8F4301A68D7ED017AFCEEE77A68
:101AE00017EE903A93631BE03B68D3F8E830082B7D
:101AF0000BD13B68D3F8F4301A68D7ED017AFCEECD
:101B0000E77A17EE903AD3630AE03B68D3F8F430F3
:101B10001A68D7ED017AFCEEE77A17EE903A136473
:101B20003B68D3F8E830DBB218460837BD4680BDC5
:101B300080B582B000AF78607B68EC331846FFF761
:101B40000DF9F0EE407A7B68C3ED327A7B68D3F80A
:101B5000F0301B685B6A1BB207EE903AF8EEE77A4A
:101B60007B68C3ED367A7B6893ED367A7B68D3ED7C
:101B7000377A77EE676A7B6893ED327AC6EE877ABA
:101B80007B68C3ED357A7B68D3F8D8207B68C3F8CF
:101B9000DC2000BF0837BD4680BD000080B584B0A2
:101BA00000AF7860FC200EF027FB0346FB60FC22B0
:101BB0000021F868FEF774FF7B685A6EFB68C3F873
:101BC000F8207B68B3F85420FB68A3F8E2207B6818
:101BD000B3F85620FB68A3F8E4207B681A6EFB6814
:101BE000C3F8F4207B68DA6DFB68C3F8F0207B68EB
:101BF0001A6DFB68C3F8E820FB68D3F8F0300021C9
:101C000018460AF077FBFB68D3F8F0300421184639
:101C10000AF070FBFB68D3F8F420FB68D3F8E830D7
:101C2000194610460AF09EFAFB687A681146184673
:101C3000FFF714FEFB6803F164027B682833194642
:101C40001046FFF70BFE7B6893F85820FB6883F87B
:101C5000E020084B1B785A1CD1B2064A1170194675
:101C6000054AFB6842F82130FB6818461037BD462C
:101C700080BD00BF840500207C05002090B583B0A6
:101C800000AF00237B6036E0204A7B6852F82330A7
:101C90001846FFF74DFF1D4A7B6852F823201B4969
:101CA0007B6851F82330D2F8CC20C3F8D020174AF3
:101CB0007B6852F8233003F1640214497B6851F8C1
:101CC0002330D3ED357A11497B6851F8233093EDF9
:101CD000347A0E497B6851F82340F0EE470AB0EEA3
:101CE000670A1046FFF7D2FDF0EE407AC4ED347A71
:101CF0007B6801337B60064B1B781A467B689342F6
:101D0000C2D300BF00BF0C37BD4690BD7C0500208C
:101D10008405002080B582B000AF00237B608BE09B
:101D20004B4A7B6852F82330D3ED347AF5EEC07A13
:101D3000F1EE10FA0ADD464A7B6852F82330D3ED03
:101D4000347A9FED447A77EE877A05E0404A7B68E3
:101D500052F82330D3ED347A3D4A7B6852F8233071
:101D6000C3ED347A3A4A7B6852F82330D3ED347AA3
:101D7000F5EEC07AF1EE10FA0AD5354A7B6852F8D2
:101D80002330D3ED347A9FED337A77EEC77A05E0CE
:101D90002F4A7B6852F82330D3ED347A2C4A7B6883
:101DA00052F82330C3ED347A294A7B6852F8233045
:101DB000D3ED347A9FED287AF4EEC77AF1EE10FA7B
:101DC00001DD264B05E0224A7B6852F82330D3F828
:101DD000D0301F497A6851F82220C2F8D0301C4A0E
:101DE0007B6852F82330D3ED347A9FED1D7AF4EE00
:101DF000C77AF1EE10FA01D51A4B05E0144A7B6858
:101E000052F82330D3F8D03011497A6851F82220A3
:101E1000C2F8D0300E4A7B6852F82330D3ED347AC2
:101E20000B4A7B6852F823301846B0EE670AFFF77A
:101E3000EFFD7B6801337B600B4B1B781A467B6898
:101E40009342FFF46DAF00BF00BF0837BD4680BDB1
:101E50007C0500200000FA430000FA440000FA4428
:101E60000000FAC40000FAC48405002080B483B0E6
:101E700000AF0023FB7115E0FB795B000E4A1344B1
:101E8000B3F90030002BB8BF5B429BB2B3F5257F9E
:101E900005D9FB795B00084A134400221A80FB79BC
:101EA0000133FB71FB79042BE6D900BF00BF0C376F
:101EB000BD465DF8047B70478805002080B586B07C
:101EC00000AF78607B681B781AB27B6801331B789F
:101ED0001BB21B021BB213431BB29BB2C3F30A0318
:101EE0009BB2A3F580639BB21AB2784B9A807B6851
:101EF00001331B78DB08DBB21AB27B6802331B7834
:101F00001BB25B011BB213431BB29BB2C3F30A03A8
:101F10009BB2A3F580639BB21AB26C4BDA807B68EC
:101F200002331B789B09DBB21AB27B6803331B7840
:101F30001BB29B001BB213431AB27B6804331B789D
:101F40001BB29B021BB213431BB29BB2C3F30A0327
:101F50009BB2A3F580639BB21AB25C4B1A807B687C
:101F600004331B785B08DBB21AB27B6805331B783D
:101F70001BB2DB011BB213431BB29BB2C3F30A03B8
:101F80009BB2A3F580639BB21AB2504B5A807B6818
:101F900010331B781AB27B6811331B781BB21B02FB
:101FA0001BB213431BB29BB2C3F30A039BB2A3F54C
:101FB00080639BB21AB2454B1A81FFF757FF7B68CB
:101FC00005331B781B09DBB203F00303DAB23F4B86
:101FD000DA727B6805331B781B09DBB29B10DBB21E
:101FE00003F00303DAB2394B9A727B6806331B782D
:101FF0001AB27B6807331B781BB21B021BB2134358
:102000001AB2324B9A817B6808331B781AB27B680C
:1020100009331B781BB21B021BB213431AB22B4BA2
:10202000DA817B680C331A78284B1A747B680D337D
:102030001A78264B5A747B680E331B781AB27B6869
:102040000F331B781BB21B021BB213431AB2204B77
:1020500092B21A801D4B9B7C03F02003DBB2002B55
:1020600004D01A4A194B5B8A938204E002220021B1
:102070001848FEF715FD154B9B7C03F01003DBB2EF
:10208000002B04D0114A114B5B8AD38204E0022258
:1020900000211148FEF704FD0C4B5B8A7B820B4B41
:1020A000B3F85A303B82094B9B8AFB81074BDB8A92
:1020B000BB81064BB3F85C307B81044BB3F85E30D8
:1020C0003B810023FB820123BB8267E0880500205F
:1020D0009A0500209C0500209E050020FB8A042B09
:1020E00055D0FB8A052B52D07A8ABB8A13409BB20B
:1020F000002B1BD03A8ABB8A13409BB2002B15D110
:10210000FA89BB8A13409BB2002B0FD1BA89BB8AD4
:1021100013409BB2002B09D1FB8A284A1A44127E35
:102120000132D1B2254A13440A461A76FA89BB8A8B
:1021300013409BB2002B11D07A89BB8A13409BB20B
:10214000002B0BD1FB8A1D4A1A4492F82820013239
:10215000D1B21A4A13440A4683F82820BA89BB8AA6
:1021600013409BB2002B13D03A89BB8A13409BB219
:10217000002B0DD1FB8A114A1A4492F83820013203
:10218000D1B20E4A13440A4683F8382000E000BF5B
:10219000BB8A5B00BB82FB8A0133FB82FB8A0F2B6D
:1021A0009CD9064B054A48331146482218460EF082
:1021B00045F800BF1837BD4680BD00BF8805002028
:1021C00080B500AF054B1B681846FFF7B5F8044B08
:1021D0001B681846FFF772FE00BF80BD2006002076
:1021E0001C06002080B584B002AF786090220021E8
:1021F0000948FEF755FC094B1B681846FEF710FF0F
:10220000074B0093074B084A0849002005F0E8F8FF
:1022100000BF0837BD4680BD880500201C06002091
:102220005C1801082C18010830180108381801083A
:1022300080B588B000AF7860134BFB617B68BB61F1
:1022400012233B7507F114031846FEF709FF0346F6
:102250000E4A136007F1080300221A605A609A6060
:102260000A233B810A4BFB6007F108031846FFF77E
:1022700021F80346074A1360074B01221A70074BE7
:1022800018462037BD4680BDC12100081C0600202D
:10229000E5210008200600201806002088050020FF
:1022A00080B582B000AF7860212178680DF0ACFF76
:1022B00003461F2B01D900BFFDE700BF0837BD460D
:1022C00080BD80B483B000AF03460A46FB7113465D
:1022D000BB71FA79BB799A4201D000BFFDE700BF1C
:1022E0000C37BD465DF8047B7047000080B584B0B4
:1022F00000AF78600B46FB707868FFF7D1FF214B89
:10230000FB6018E0FB689B6AFB60FB687968184615
:10231000FEF776FB0346002B0DD1FB6893F82120D6
:10232000FB7811461846FFF7CCFFFB68012283F8C3
:102330002C20FB6822E0FB689B6A002BE2D1302056
:102340000DF05AFF03461A46FB689A62FB689B6AC7
:10235000302200211846FEF7A3FBFB689B6AFA783F
:1023600083F82120FB689B6A796818460DF05EFFB0
:10237000FB68012283F82C20FB689B6A1846103703
:10238000BD4680BD5000002080B586B000AF7860AB
:102390000B46FB70FB7819467868FFF7A7FFF860DB
:1023A0000C200DF029FF0346BB600C220021B86809
:1023B000FEF776FBBB68FA781A7100237B610CE0AC
:1023C000FB7818460DF018FF03461946BB687A697A
:1023D00043F822107B6901337B617B69002BEFD0CE
:1023E000FB685B6A002B04D1FB68BA685A62BB6861
:1023F0000EE0FB685B6A3B6102E03B699B683B6106
:102400003B699B68002BF8D13B69BA689A60BB684E
:1024100018461837BD4680BD80B582B000AF7860E1
:1024200039607B68DB79002B01D100231BE07B68DE
:102430005B791A467B6853F822107B681B791A4631
:1024400038680DF0FBFE7B685B790133DAB27B689C
:102450005A717B6800225A717B68DB79013BDAB2E2
:102460007B68DA71012318460837BD4680BD00003D
:1024700080B582B000AF786039607B685B6A1C4AC7
:1024800013602BE01A4B1B68DB79012B09D1184B29
:102490001B6800225A71164B1B68DA79013AD2B2D6
:1024A000DA71134B1B68124A1268927953F82200B2
:1024B0007B6893F821301A4639680DF0BFFE0C4B4B
:1024C0001B6800229A710A4B1B68DA790132D2B27A
:1024D000DA71074B1B689B68054A1360044B1B6845
:1024E000002BCFD1012318460837BD4680BD00BF61
:1024F0002406002080B485B000AF87ED030AC7ED45
:10250000020A87ED011A094AFB68C2F80330074A3C
:10251000BB68C2F80730054A7B68C2F80B3000BFC1
:102520001437BD465DF8047B704700BF38060020B5
:1025300080B582B000AF7860044B1B681846FEF788
:102540006FFD00BF0837BD4680BD00BF4C060020B0
:1025500080B582B000AF084B1B681846FEF7ECFE52
:10256000064B1B681846BB1D054A194600F0DAF8F1
:1025700000BF0837BD4680BD480600204C0600203D
:102580002B06002080B588B000AF7860134BFB614C
:1025900016233B757B68BB6107F114031846FEF7F1
:1025A0005FFD03460E4A136007F1080300221A601C
:1025B0005A609A6064233B810A4BFB60084B1B689E
:1025C0003B6107F108031846FEF774FE0346064A0E
:1025D0001360064B18462037BD4680BD51250008C4
:1025E0004C0600203125000848060020280600205F
:1025F00080B584B000AF78600B467B800023FB730E
:102600007B68002B02D07B88022B01D8002313E0CB
:102610007B88013B9BB21946786800F0C3F80346FB
:10262000FB737B88013B7A6813441B78FA7B9A42E0
:102630000CBF01230023DBB218461037BD4680BD16
:1026400080B584B000AF786039600023FB817B687F
:10265000002B02D03B68022B01D8002320E03B680E
:102660009BB2023B9BB21946786800F0C7F803465C
:10267000FB81FB89DBB279683A680A44127893429D
:102680000CD1FB891B0A9BB2DBB23A680132796834
:102690000A441278934201D1012300E000239BB247
:1026A00018461037BD4680BD80B582B000AF786057
:1026B00039603B681B78A52B2ED13B681A787B6864
:1026C0001A7004213868FFF793FF0346002B23D0CC
:1026D0003B6802331B781BB21B021AB23B68013302
:1026E0001B781BB213431BB29AB27B685A803B68BB
:1026F000DA787B681A713B6805331B781BB21B02C2
:102700001AB23B6804331B781BB213431BB29AB254
:102710007B68DA80012300E0002318460837BD46B5
:1027200080BD000080B584B000AFF860B9607A6009
:10273000F9681A48FFF7B8FF0346002B28D0174B5B
:102740005B8808339AB2164B1A80154B1B881946C2
:10275000F868FFF775FF0346002B19D0FB680733B5
:102760001B781BB21B021AB2FB6806331B781BB224
:1027700013431BB29AB2BB681A80FB680833074A3E
:102780005288194678680DF059FD044BDB8800E04B
:10279000002318461037BD4680BD00BF50060020FC
:1027A0005A06002080B485B000AF78600B467B806D
:1027B00000237B737B68BB60BB68002B14D00023B5
:1027C000FB810DE0BB685A1CBA601A787B7B5340D2
:1027D000DBB21A46084B9B5C7B73FB890133FB81A0
:1027E000FA897B889A42EDD37B7B18461437BD4625
:1027F0005DF8047B704700BF8000002080B586B084
:1028000000AF78600B467B80154B1B78002B01D105
:1028100000F02AF84FF6FF73FB827B683B613B694F
:10282000002B18D00023FB8111E0FB8A1B0A9AB20F
:10283000F98A3B69581C38611B784B40DBB2094967
:1028400031F813305340FB82FB890133FB81FA8955
:102850007B889A42E9D3FB8A18461837BD4680BD6B
:102860005C0600206006002080B483B000AF002327
:10287000FB8029E000237B80FB883B800023BB801A
:1028800017E07A883B8853409BB203F00103002B8A
:1028900006D07B885B089AB2114B53407B8002E0E4
:1028A0007B885B087B803B885B083B80BB8801336F
:1028B000BB80BB88072BE4D9FB880A497A8821F8BA
:1028C0001320FB880133FB80FB88FF2BD2D9064BFA
:1028D00001221A7000BF0C37BD465DF8047B7047BB
:1028E00001A0FFFF600600205C06002080B582B0DA
:1028F00000AF78600B46FB701F4A7B6813601F4B6C
:1029000000221A7000F0C0FB03461A461B4B1B78CE
:102910001343DAB2194B1A7000F0ACFC03461A46A6
:10292000164B1B781343DAB2144B1A70FB78002B4A
:1029300003D0134800F030F818E0114B114A5A62E6
:102940000F4B114A9A620E4B0F4ADA620C4B0F4A38
:102950001A630B4B93ED0C7ADFED0D6AC6EE877AA6
:10296000074BC3ED087A064B0A4A9A61034B1B7862
:1029700018460837BD4680BDBC080020620800200C
:1029800078080020AC38223BB016CE393F161B41E8
:10299000C3F51C410000204280B592B002AF7860C0
:1029A00007F1200300221A605A604FF00003BB6257
:1029B0004FF00003BB634FF000037B63FEF7CEFADA
:1029C000F0EE407AB74BC3ED007AFEF7C7FAB0EEEF
:1029D000407AB44BD3ED007A77EE677AB2EE087A9C
:1029E000F4EEC77AF1EE10FA17DD7B68AE4A5A6250
:1029F0007B68AE4A9A627B68AC4ADA627B68AC4A12
:102A00001A637B68AB4A9A61AB4B0093AB4BAC4A01
:102A1000AC49002004F0E4FC0DE39FEDAB0AFEF7A7
:102A2000D1FA7B684FF000021A637B684FF0000216
:102A30005A627B684FF000029A627B684FF0000296
:102A4000DA6200237B8619E200F0BAFE922000F0E1
:102A5000E7FE07F1200306221946122000F08AFE45
:102A600000F0BAFE97F821301BB21B021AB297F899
:102A700020301BB21343FB87B7F93E3007EE903A84
:102A8000B8EEE77A914BD3ED007A67EE277A7B6850
:102A9000C3ED007A97F823301BB21B021AB297F8E5
:102AA00022301BB21343FB87B7F93E3007EE903A52
:102AB000B8EEE77A854BD3ED007A67EE277A7B682C
:102AC000C3ED017A97F825301BB21B021AB297F8B2
:102AD00024301BB21343FB87B7F93E3007EE903A20
:102AE000B8EEE77A794BD3ED007A67EE277A7B6808
:102AF000C3ED027A7B6893ED007A7B68D3ED007AB0
:102B000027EE277A7B68D3ED016A7B68D3ED017AE3
:102B100066EEA77A37EE277A7B68D3ED026A7B6888
:102B2000D3ED027A66EEA77A77EE277AB0EE670ADF
:102B30000DF0ECFB87ED0A0A7B6893ED0C7AD7ED7C
:102B40000A7A77EE277A7B68C3ED0C7A00F050FEA4
:102B500007F1200308221946002000F00BFE00F0C8
:102B600053FE97F820300F2B68D197F823301BB213
:102B70001B021AB297F822301BB21343FB87B7F936
:102B80003E3007EE903AB8EEE77A514BD3ED007A3B
:102B900067EE277A7B68C3ED037A7B6893ED097A49
:102BA0007B68D3ED037A77EE277A7B68C3ED097AE9
:102BB00097F825301BB21B021AB297F824301BB2CB
:102BC0001343FB87B7F93E3007EE903AB8EEE77A49
:102BD0003F4BD3ED007A67EE277A7B68C3ED047A2A
:102BE0007B6893ED0A7A7B68D3ED047A77EE277AD7
:102BF0007B68C3ED0A7A97F827301BB21B021AB222
:102C000097F826301BB21343FB87B7F93E3007EE27
:102C1000903AB8EEE77A2E4BD3ED007A67EE277A3A
:102C20007B68C3ED057A7B6893ED0B7A7B68D3ED07
:102C3000057A77EE277A7B68C3ED0B7A7B8E002BC3
:102C400048D1BB6ABB63BB6A7B63002387F8313022
:102C500022E097F8312097F83130796802329200FB
:102C60000A44043212689B0040333B442C3B1A60F8
:102C700097F8312097F831307968023292000A448F
:102C8000043212689B0040333B44383B1A6097F88B
:102C90003130013387F8313097F83130022BD8D9F1
:102CA00085E000BFAC080020AC38223BB016CE391E
:102CB0003F161B4100002042A818010864180108B3
:102CC00068180108701801080AD7A33B800100208A
:102CD0008401002097ED0A7AD7ED0E7AB4EEE77AF8
:102CE000F1EE10FA01DDBB6ABB6397ED0A7AD7ED0E
:102CF0000D7AB4EEE77AF1EE10FA01D5BB6A7B6388
:102D0000002387F830304EE097F830307A6802338D
:102D10009B001344043393ED007A97F830309B0006
:102D200040333B442C3BD3ED007AB4EEE77AF1EE2E
:102D300010FA0EDD97F8302097F8303079680232BB
:102D400092000A44043212689B0040333B442C3BFF
:102D50001A6097F830307A6802339B0013440433CA
:102D600093ED007A97F830309B0040333B44383B7A
:102D7000D3ED007AB4EEE77AF1EE10FA0ED597F8BB
:102D8000302097F830307968023292000A440432D9
:102D900012689B0040333B44383B1A6097F8303050
:102DA000013387F8303097F83030022BACD997EDEB
:102DB0000E7AD7ED0D7A77EE677AA64BC3ED007ADF
:102DC000002387F82F301DE097F82F309B00403309
:102DD0003B442C3B93ED007A97F82F309B00403317
:102DE0003B44383BD3ED007A97F82F3077EE677A83
:102DF000994A9B001344C3ED007A97F82F300133B2
:102E000087F82F3097F82F30022BDDD9914BD3ED77
:102E1000007AB6EE007AF4EEC77AF1EE10FA1DDC15
:102E20008D4BD3ED007A9FED8D7AF4EEC77AF1EEFB
:102E300010FA13DC884BD3ED017A9FED887AF4EE1B
:102E4000C77AF1EE10FA09DC834BD3ED027A9FEDDD
:102E5000837AF4EEC77AF1EE10FA08DD804B009326
:102E6000804B814A8149002004F0BAFA0CE09FEDC2
:102E7000800AFEF7A7F87B8E01337B867D4B1B888B
:102E80007A8E9A42FFF4E0AD7B68D3ED0C6A794B01
:102E90001B8807EE903AB8EE677AC6EE877A7B68B1
:102EA000C3ED0C7A002387F82E301EE097F82E3001
:102EB0007A6808339B0013440433D3ED006A6D4BEA
:102EC0001B8807EE903AB8EE677A97F82E30C6EE78
:102ED000877A7A6808339B0013440433C3ED007A81
:102EE00097F82E30013387F82E3097F82E30022BCA
:102EF000DCD900F065FCA22000F092FC07F1200371
:102F000002221946222000F035FC00F065FC97F8FB
:102F100020301BB2DB001AB297F821305B09DBB21C
:102F20001BB21343FB87B7F93E30B3F5806F04DB68
:102F3000FB8FA3F500639BB2FB87B7F93E3007EE2A
:102F4000903AF8EEE77AB4EE007A67EE877AB3EE5D
:102F5000077A77EE877A7B68C3ED067A464BB3F93A
:102F600000309BB201339BB21AB2434B1A80394BEB
:102F7000D3ED007AB6EE007AF4EEC77AF1EE10FAED
:102F80003FF723AD7B68D3ED0C7A9FED3C7A77EE6B
:102F9000C77AF0EEE77AB6EE007AF4EEC77AF1EE91
:102FA00010FA3FF712AD2C4BD3ED007A9FED2B7A40
:102FB000F4EEC77AF1EE10FA3FF707AD264BD3EDEA
:102FC000017A9FED267AF4EEC77AF1EE10FA3FF718
:102FD000FCAC214BD3ED027A9FED207AF4EEC77A58
:102FE000F1EE10FA3FF7F1AC7B68D3ED097AF0EE21
:102FF000E77A9FED237AF4EEC77AF1EE10FA3FF705
:10300000E4AC7B68D3ED0A7AF0EEE77A9FED1C7AA8
:10301000F4EEC77AF1EE10FA3FF7D7AC7B68D3ED48
:103020000B7AF0EEE77A9FED167AF4EEC77AF1EEBE
:1030300010FA3FF7CAAC7B6893ED0C7ADFED116AAA
:10304000C6EE877A7B68C3ED087A00BF4037BD467D
:1030500080BD00BF70080020640800209A99993E46
:10306000A8180108B0180108B4180108BC18010814
:103070006F12033AB201002074080020CDCC1C412D
:103080000AD7233CC3F51C4180B582B002AF00F0E3
:1030900097FB802000F0C4FB552000F0C1FB5520B9
:1030A00000F0BEFB03461A46684B1A7000F094FB12
:1030B0009FED670AFDF786FF00F082FB802000F09D
:1030C000AFFB552000F0ACFB552000F0A9FB0346F8
:1030D0001A465E4B1A7000F07FFB9FED5D0AFDF70C
:1030E00071FF00F06DFBB6217E2000F017FB00F0B1
:1030F00073FB9FED580AFDF765FF00F061FB802030
:1031000000F08EFB552000F08BFB552000F088FB73
:1031100003461A464D4B1A7000F05EFB9FED4C0AB9
:10312000FDF750FF00F04CFB802000F079FB5520AC
:1031300000F076FB552000F073FB03461A46434B24
:103140001A7000F049FB9FED420AFDF73BFF3F4B31
:103150001B781E2B09D0404B0093404B404A4149FD
:10316000002004F03DF9FF236CE03F4B00221A7071
:1031700063E000F025FB3C4B1B7819463B4A0B46AD
:103180005B000B4413441A78374B1B7818463749B9
:1031900003465B0003440B4401331B781946104679
:1031A00000F0BCFA00F018FB9FED290AFDF70AFFBA
:1031B00000F006FB2C4B1B7819462C4A0B465B0093
:1031C0000B4413441B7863F07F03DBB2184600F016
:1031D00027FB552000F024FB552000F021FB03467F
:1031E0001A461A4B1A7000F0F7FA9FED190AFDF70C
:1031F000E9FE1D4B1B7819461C4A0B465B000B442D
:10320000134401331A78114B1B789A420FD0164B96
:103210001B781946154A0B465B000B4413440233D6
:103220001A78134B1B781343DAB2114B1A700E4BFA
:103230001B780133DAB20C4B1A700B4B1B78052B41
:1032400097D900231846BD4680BD00BF6008002006
:103250006F12833A0AD7A33DA81801086418010821
:1032600068180108EC180108610800208C01002092
:103270006208002080B582B002AF00F0B9FA594967
:10328000002000F05FFA00F0BFFA9FED570AFDF74B
:1032900099FE00F0ADFA5349002000F053FA00F017
:1032A000B3FA9FED510AFDF78DFE00F0A1FAB621A9
:1032B000142000F033FA00F0A7FA9FED4C0AFDF756
:1032C00081FE00F095FA4749002000F03BFA00F03B
:1032D0009BFA9FED450AFDF775FE00F089FA41491A
:1032E000002000F02FFA00F08FFA9FED3F0AFDF763
:1032F00069FE3C4B1B780F2B09D03D4B00933D4B97
:103300003D4A3E49002004F06BF8FF2366E03C4B49
:1033100000221A705DE000F06BFA394B1B781946F9
:10332000384A0B465B000B4413441A78344B1B7825
:103330001846344903465B0003440B4401331B78B1
:103340001946104600F0EAF900F05EFA9FED260AF1
:10335000FDF738FE00F04CFA294B1B781946294A34
:103360000B465B000B4413441B781E49184600F0C3
:10337000E9F900F049FA9FED1C0AFDF723FE204B06
:103380001B7819461F4A0B465B000B44134401335C
:103390001A78144B1B789A4215D0194B1B78013BB5
:1033A000DAB2174B1A70164B1B781946164A0B46A1
:1033B0005B000B44134402331A78144B1B781343FD
:1033C000DAB2124B1A700E4B1B780133DAB20C4B87
:1033D0001A700B4B1B78052B9DD900231846BD4650
:1033E00080BD00BF600800206F12833A0AD7A33D5A
:1033F000A8180108641801086818010820190108B4
:1034000061080020A00100208C010020620800203B
:1034100080B582B000AF786000F0D2F9922000F061
:10342000FFF906226C49122000F0A4F900F0D4F94B
:10343000694B5B781BB21B021AB2674B1B781BB23D
:1034400013431AB2654B1A80644BB3F9003007EE90
:10345000903AB8EEE77A624BD3ED007A27EE277AFE
:103460007B68D3ED087A67EE277A7B68C3ED007A34
:10347000594BDB781BB21B021AB2574B9B781BB21D
:1034800013431AB2554B1A80544BB3F9003007EE70
:10349000903AB8EEE77A524BD3ED007A27EE277ACE
:1034A0007B68D3ED087A67EE277A7B68C3ED017AF3
:1034B000494B5B791BB21B021AB2474B1B791BB2FB
:1034C00013431AB2454B1A80444BB3F9003007EE50
:1034D000903AB8EEE77A424BD3ED007A27EE277A9E
:1034E0007B68D3ED087A67EE277A7B68C3ED027AB2
:1034F00000F07EF908223849002000F03BF900F086
:1035000083F9354B1B780F2B40F0C180354B1B786E
:10351000002B6BD0304BDB781BB21B021AB22E4B48
:103520009B781BB213431AB22C4B1A802B4BB3F966
:10353000003007EE903AB8EEE77A2B4BD3ED007AE5
:1035400027EE277A7B68D3ED097A77EE677A7B6876
:10355000C3ED037A204B5B791BB21B021AB21E4BE0
:103560001B791BB213431AB21C4B1A801B4BB3F9C5
:10357000003007EE903AB8EEE77A1B4BD3ED007AB5
:1035800027EE277A7B68D3ED0A7A77EE677A7B6835
:10359000C3ED047A104BDB791BB21B021AB20E4B3F
:1035A0009B791BB213431AB20C4B1A800B4BB3F925
:1035B000003007EE903AB8EEE77A0B4BD3ED007A85
:1035C00027EE277A7B68D3ED0B7A77EE677A7B68F4
:1035D000C3ED057A5BE000BFB0080020B80800200A
:1035E000800100208801002084010020484BDB7806
:1035F0001BB21B021AB2464B9B781BB213431AB282
:10360000444B1A80434BB3F9003007EE903AB8EEC2
:10361000E77A414BD3ED007A67EE277A7B68C3EDFA
:10362000037A3B4B5B791BB21B021AB2384B1B79F6
:103630001BB213431AB2374B1A80364BB3F9003022
:1036400007EE903AB8EEE77A334BD3ED007A67EEA7
:10365000277A7B68C3ED047A2D4BDB791BB21B0202
:103660001AB22B4B9B791BB213431AB2294B1A8007
:10367000284BB3F9003007EE903AB8EEE77A264BC4
:10368000D3ED007A67EE277A7B68C3ED057A00F008
:1036900097F8A22000F0C4F802221D49222000F071
:1036A00069F800F099F81A4B1B781BB2DB001AB2CC
:1036B000174B5B785B09DBB21BB213431AB2154B95
:1036C0001A80144BB3F90030B3F5806F09DB114B4E
:1036D000B3F900309BB2A3F500639BB21AB20D4B55
:1036E0001A800C4BB3F9003007EE903AF8EEE77A07
:1036F000B4EE007A67EE877AB3EE077A77EE877AD0
:103700007B68C3ED077A00BF0837BD4680BD00BFA8
:10371000B0080020B80800208401002080B582B0E5
:1037200000AF03460A46FB711346BB71FB7918468E
:1037300000F076F8BB79184600F072F800BF083741
:10374000BD4680BD80B582B000AF03463960FB71D5
:10375000FB7963F07F03DBB2184600F061F8552077
:1037600000F05EF803461A463B681A7000BF08373F
:10377000BD4680BD80B582B000AF03463960FB71A5
:103780001346BB71FB7963F07F03DBB2184600F090
:1037900047F80CE0552000F043F803461A463B6812
:1037A0001A703B6801333B60BB79013BBB71BB794D
:1037B000002BEFD100BF00BF0837BD4680BD000021
:1037C00080B500AF00221021024807F0F1F800BFD9
:1037D00080BD00BF0000024080B500AF0122102173
:1037E000024807F0E5F800BF80BD00BF00000240BE
:1037F00080B500AF00220121024807F0D9F800BFD0
:1038000080BD00BF0004024080B500AF012201214D
:10381000024807F0CDF800BF80BD00BF00040240A1
:1038200080B586B002AF0346FB71084B186807F1FC
:103830000F02F91D4FF47A730093012307F0D5FFAF
:10384000FB7B18461037BD4680BD00BFBC0800207A
:1038500080B52DED028B8EB000AF786007F12403A8
:1038600000221A605A609A604FF00003BB614FF06B
:103870000003FB614FF07E533B6207F10C03002213
:103880001A605A609A60002387F8373026E058485B
:10389000FFF7BEFD97ED097A554BD3ED007A77EE31
:1038A000277AC7ED097A97ED0A7A514BD3ED017A61
:1038B00077EE277AC7ED0A7A97ED0B7A4C4BD3ED6A
:1038C000027A77EE277AC7ED0B7A9FED4A0AFDF769
:1038D00079FB97F83730013387F8373097F837306E
:1038E000632BD4D9002387F8363018E097F83630A8
:1038F0009B0038333B44143B93ED007A97F8363005
:10390000DFED3D6AC7EE267A9B0038333B44143B1B
:10391000C3ED007A97F83630013387F8363097F8E0
:103920003630022BE2D907F12403184603F020F9C0
:1039300007F1180207F124031146184603F0BEF9F7
:10394000F0EE407AB0EE670A0CF086FC87ED0C0AC8
:1039500007F10C0207F1180107F12403184603F0E0
:1039600058F907F10C03184603F002F9D7ED0C7A69
:10397000F0EE006A87EEA67AB0EE470A0CF0E8FC9B
:10398000F0EE407A7B68C3ED007A002387F835308B
:1039900022E097F835309B0038333B442C3B93EDC5
:1039A000008AD7ED0C7AF0EE006A87EEA67AB0EEC8
:1039B000470A0CF00DFDF0EE407A97F835300133F0
:1039C0009B007A68134468EE277AC3ED007A97F873
:1039D0003530013387F8353097F83530012BD8D999
:1039E00000BF00BF3837BD46BDEC028B80BD00BFB5
:1039F000780800206F12833A0000C84280B584B076
:103A000000AF284B93F87830002B04D1254B0122CE
:103A100083F8782001E0244B40E001212348FEF7A1
:103A200065FF0346002BF8D1214B4FF07E525A60C0
:103A30001F4B4FF07E529A601D4B4FF07E52DA6062
:103A40001B4B4FF000021A61194B4FF000025A61F4
:103A5000174B4FF000029A61154B01221A703B463A
:103A600000221A605A609A60DA603B461846FFF7F7
:103A7000EFFE3B469FED0F2AF7EE001A9FED0E1A60
:103A8000DFED0E0AB2EE040A184601F009FE054BFE
:103A90000B4A9A620B48FDF761F9034B1846103741
:103AA000BD4680BDC00800201009002090140020F1
:103AB0003C09002000000000002474496F12833A82
:103AC00096430B3C5809002090B589B000AF4FF0E9
:103AD00000033B614FF000037B61794BBB61794888
:103AE000FDF73CF9F0EE407A774BC3ED007A774B67
:103AF00093ED007A744BD3ED007A77EE277A734B0F
:103B0000C3ED007A7248FFF783FC714B1B68714A62
:103B1000D3656F4B5B686F4A13666D4B9B686D4A4C
:103B200053666B4BDB686B4A1365694B1B69694ACB
:103B30005365674B5B69674A9365674A674968489D
:103B400000F034FB634BD3ED147A624B93ED157A9E
:103B5000604BD3ED166A5F4B93ED176A5D4BD3ED67
:103B6000185A5C4B93ED195A574BD3ED004AB0EEFF
:103B7000643AF0EE452AB0EE652AF0EE461AB0EE51
:103B8000661AF0EE470AB0EE670A01F033FE514ABA
:103B9000544B144603F5A8730FCB84E80F004D4A2D
:103BA0005149524800F0B2F84A4A5149514800F090
:103BB000ADF8484A5049514800F0A8F8391D07F1BE
:103BC0001003444A184600F0C9F90023FB7741E08E
:103BD000FB7F404A16339B001344043393ED007A75
:103BE000FB7F9B0020333B441C3BD3ED007A37EE38
:103BF000677A354BD3ED007A67EE276A354B93ED44
:103C00000A7A314BD3ED007A77EE277A86EEA77ADF
:103C1000FB7F304A04339B001344D3ED006A2D4BE5
:103C2000D3ED0A7A26EEA76A2A4BD3ED0A6A264B11
:103C3000D3ED007A76EEA76AC6EE267AFB7F77EEA2
:103C4000277A244A04339B001344C3ED007AFB7F98
:103C50000133FB77FB7F022BBAD91E4A284929483A
:103C600000F054F81F4BD3F8A8311A4A13671D4BC4
:103C7000D3F8A431174AD3661A4BD3F8A031154AAA
:103C80009366184BD3F8AC31124A5367114BD3EDFE
:103C90001C7A104B93ED1B7A0E4BD3ED1A6AB0EEE3
:103CA000661AF0EE470AB0EE670AFEF723FC164BE1
:103CB0001B685A1C14490A6000BF2437BD4690BDDA
:103CC000C3F51C41580900205C0900206009002050
:103CD00078080020C00800201C09002010090020DE
:103CE0003C090020A0090020EC080020141A01085B
:103CF000F8080020201A0108040900202C1A0108E5
:103D0000DC080020D00800206409002080B485B0C1
:103D100000AFF860B9607A607B68083393ED007A91
:103D20007B680833D3ED007A67EE277AB6EE007A27
:103D300037EE677A7B680C33D3ED006A7B680C330F
:103D4000D3ED007A66EEA77A37EE677AFB68D3ED9B
:103D5000007A27EE277A7B680433D3ED006A7B680C
:103D60000833D3ED007A66EEA76A7B6893ED006AAC
:103D70007B680C33D3ED007A66EE277A76EEE76A3D
:103D8000FB680433D3ED007A66EEA77A37EE277A24
:103D90007B680433D3ED006A7B680C33D3ED007A83
:103DA00066EEA76A7B6893ED006A7B680833D3ED03
:103DB000007A66EE277A76EEA76AFB680833D3EDC1
:103DC000007A66EEA77A77EE277A77EEA77ABB6855
:103DD000C3ED007A7B68043393ED007A7B68083387
:103DE000D3ED007A27EE277A7B68D3ED006A7B68F3
:103DF0000C33D3ED007A66EEA77A37EE277AFB68AC
:103E0000D3ED007A27EE277A7B680433D3ED006A7E
:103E10007B680433D3ED007A66EEA77AF6EE006A8B
:103E200076EEE76A7B680C3393ED006A7B680C33AF
:103E3000D3ED007A66EE277A76EEE76AFB68043304
:103E4000D3ED007A66EEA77A37EE277A7B680833DF
:103E5000D3ED006A7B680C33D3ED007A66EEA76A77
:103E60007B6893ED006A7B680433D3ED007A66EEDD
:103E7000277A76EEE76AFB680833D3ED007A66EEC0
:103E8000A77A77EE277ABB68043377EEA77AC3ED7B
:103E9000007A7B68043393ED007A7B680C33D3EDB2
:103EA000007A27EE277A7B68D3ED006A7B680833B7
:103EB000D3ED007A66EEA77A37EE677AFB68D3ED2A
:103EC000007A27EE277A7B680833D3ED006A7B6897
:103ED0000C33D3ED007A66EEA76A7B6893ED006A37
:103EE0007B680433D3ED007A66EE277A76EEA76A14
:103EF000FB680433D3ED007A66EEA77A37EE277AB3
:103F00007B680433D3ED006A7B680433D3ED007A19
:103F100066EEA77AF6EE006A76EEE76A7B6808330B
:103F200093ED006A7B680833D3ED007A66EE277A5A
:103F300076EEE76AFB680833D3ED007A66EEA77A7F
:103F400077EE277ABB68083377EEA77AC3ED007A5D
:103F500000BF1437BD465DF8047B704780B485B060
:103F600000AFF860B9607A607B68083393ED007A3F
:103F70007B680833D3ED007A67EE277AB6EE007AD5
:103F800037EE677A7B680C33D3ED006A7B680C33BD
:103F9000D3ED007A66EEA77A37EE677AFB68D3ED49
:103FA000007A27EE277A7B680433D3ED006A7B68BA
:103FB0000833D3ED007A66EEA76A7B6893ED006A5A
:103FC0007B680C33D3ED007A66EE277A76EEA76A2B
:103FD000FB680433D3ED007A66EEA77A37EE277AD2
:103FE0007B680433D3ED006A7B680C33D3ED007A31
:103FF00066EEA76A7B6893ED006A7B680833D3EDB1
:10400000007A66EE277A76EEE76AFB680833D3ED2E
:10401000007A66EEA77A77EE277A77EEA77ABB6802
:10402000C3ED007A7B68043393ED007A7B68083334
:10403000D3ED007A27EE277A7B68D3ED006A7B68A0
:104040000C33D3ED007A66EEA77A37EE677AFB6819
:10405000D3ED007A27EE277A7B680433D3ED006A2C
:104060007B680433D3ED007A66EEA77AF6EE006A39
:1040700076EEE76A7B680C3393ED006A7B680C335D
:10408000D3ED007A66EE277A76EEE76AFB680433B2
:10409000D3ED007A66EEA77A37EE277A7B6808338D
:1040A000D3ED006A7B680C33D3ED007A66EEA76A25
:1040B0007B6893ED006A7B680433D3ED007A66EE8B
:1040C000277A76EEA76AFB680833D3ED007A66EEAE
:1040D000A77A77EE277ABB68043377EEA77AC3ED29
:1040E000007A7B68043393ED007A7B680C33D3ED60
:1040F000007A27EE277A7B68D3ED006A7B68083365
:10410000D3ED007A66EEA77A37EE277AFB68D3ED17
:10411000007A27EE277A7B680833D3ED006A7B6844
:104120000C33D3ED007A66EEA76A7B6893ED006AE4
:104130007B680433D3ED007A66EE277A76EEE76A81
:10414000FB680433D3ED007A66EEA77A37EE277A60
:104150007B680433D3ED006A7B680433D3ED007AC7
:1041600066EEA77AF6EE006A76EEE76A7B680833B9
:1041700093ED006A7B680833D3ED007A66EE277A08
:1041800076EEE76AFB680833D3ED007A66EEA77A2D
:1041900077EE277ABB68083377EEA77AC3ED007A0B
:1041A00000BF1437BD465DF8047B704780B592B000
:1041B00000AFF860B9607A60FB6893ED047AC24B97
:1041C000D3ED007A77EE677AF0EEE77A9FEDBF7A6B
:1041D000F4EEC77AF1EE10FA26DCFB6893ED057A6F
:1041E000BB4BD3ED007A77EE677AF0EEE77A9FED7E
:1041F000B77AF4EEC77AF1EE10FA15DCFB6893EDAE
:10420000067AB44BD3ED007A77EE677AF0EEE77A70
:104210009FEDAE7AF4EEC77AF1EE10FA04DCFB689B
:104220001B78002B00F0D080FB68D3ED047ADFED23
:10423000AA6A87EEA67AB0EE470A0BF035FE87ED44
:10424000100AFB68D3ED057ADFEDA36A87EEA67A44
:10425000B0EE470A0BF028FE87ED0F0AFB68D3ED9E
:10426000067ADFED9D6A87EEA67AB0EE470A0BF07C
:104270001BFE87ED0E0AFB68D3ED047ADFED966A2C
:1042800087EEA67AB0EE470A0BF0C8FD87ED0D0A5F
:10429000FB68D3ED057ADFED906A87EEA67AB0EE83
:1042A000470A0BF0BBFD87ED0C0AFB68D3ED067ADD
:1042B000DFED896A87EEA67AB0EE470A0BF0AEFD15
:1042C00087ED0B0A97ED107AD7ED0E7A27EE277A55
:1042D000D7ED0D6AD7ED0C7A66EEA76AD7ED0B7AAB
:1042E00066EEA77A77EE277A7C4BC3ED007A97EDDE
:1042F0000F7AD7ED0D7A67EE277A794BC3ED007A06
:1043000097ED107AD7ED0B7A27EE277AD7ED0E6A64
:10431000D7ED0D7A66EEA76AD7ED0C7A66EEA77A2E
:1043200077EE677A6F4BC3ED007A97ED107AD7ED91
:104330000C7A27EE277AD7ED0B7A27EE277AD7ED7E
:104340000E6AD7ED0D7A66EEA77A77EE677A664B3E
:10435000C3ED007A97ED107AD7ED0F7A67EE277AE2
:10436000624BC3ED007AD7ED0D7AB1EE677AD7EDE7
:104370000B7A27EE277AD7ED106AD7ED0E7A66EE24
:10438000A76AD7ED0C7A66EEA77A77EE677A584B74
:10439000C3ED007AD7ED0F7AB1EE677AD7ED0B7ADD
:1043A00067EE277A534BC3ED007A534A3B6B136099
:1043B00097ED0F7AD7ED0E7A67EE277A4F4BC3ED64
:1043C000007AFB6800221A70002387F847301DE04E
:1043D00097F847309B00BA68134493ED007A97F83A
:1043E0004730FA689B0013440433D3ED007A97F802
:1043F000473067EE277A9B0048333B44283BC3EDA8
:10440000007A97F84730013387F8473097F84730FC
:10441000022BDDD997ED087A304BD3ED007A27EEE9
:10442000277AD7ED096A2E4BD3ED007A66EEA77A8C
:1044300037EE277AD7ED0A6A2A4BD3ED007A66EE7B
:10444000A77A77EE277ABB68C3ED007A97ED087AF2
:10445000254BD3ED007A27EE277AD7ED096A234B57
:10446000D3ED007A66EEA77A37EE277AD7ED0A6A9F
:104470001F4BD3ED007A66EEA77ABB68043377EE64
:10448000277AC3ED007A97ED087A1A4BD3ED007ABC
:1044900027EE277AD7ED096A174BD3ED007A66EE3F
:1044A000A77A37EE277AD7ED0A6A144BD3ED007A54
:1044B00066EEA77ABB68083377EE277AC3ED007AF9
:1044C000002387F846302DE0680900206F12833AF8
:1044D0006C09002070090020E12E6542740900205B
:1044E000780900207C090020800900208409002030
:1044F000880900208C0900209009002094090020E0
:1045000097F846309B007A681A4497F8463012684C
:104510009B0048333B44343B1A6097F846300133E4
:1045200087F8463097F84630022BE9D997ED057A9F
:10453000314BD3ED007A27EE277AD7ED066A2F4B61
:10454000D3ED007A66EEA77A37EE277AD7ED076AC1
:104550002B4BD3ED007A66EEA77A77EE277A7B684D
:10456000C3ED007A97ED057A264BD3ED007A27EE5E
:10457000277AD7ED066A244BD3ED007A66EEA77A48
:1045800037EE277AD7ED076A204BD3ED007A66EE37
:10459000A77A7B68043377EE277AC3ED007A97ED2C
:1045A000057A1B4BD3ED007A27EE277AD7ED066A02
:1045B000184BD3ED007A66EEA77A37EE277AD7ED5F
:1045C000076A154BD3ED007A66EEA77A7B6808334D
:1045D00077EE277AC3ED007AFB681B690F4A1360F8
:1045E000FB685B690E4A1360FB689B690D4A1360A8
:1045F00000BF4837BD4680BD7409002078090020FF
:104600007C090020800900208409002088090020FE
:104610008C090020900900209409002068090020DE
:104620006C0900207009002080B582B000AF78606E
:10463000084611461A460346FB700B46BB701346EC
:104640007B70BA4B04221A80B94B08221A807B680F
:10465000FA781A737B68BA785A737B687A789A7397
:104660007B6800221A747B7818460BF0C5FD034660
:104670001A467B685A617B685B697A780021184624
:10468000FCF70EFAA94B1B881A467B7802FB03F352
:1046900018460BF0B1FD03461A467B689A617B68A9
:1046A0009869A24B1B881A467B7802FB03F31A46D3
:1046B0000021FCF7F5F99D4B1B881A467B7802FB1D
:1046C00003F318460BF098FD03461A467B68DA613F
:1046D0007B68D869954B1B881A467B7802FB03F3ED
:1046E0001A460021FCF7DCF9904B1B881A46FB7830
:1046F00002FB03F318460BF07FFD03461A467B6866
:104700001A627B68186A894B1B881A46FB7802FB81
:1047100003F31A460021FCF7C3F97B7818460BF027
:104720006BFD03461A467B685A627B685B6A7A783F
:1047300000211846FCF7B4F97C4B1B881A46FB781D
:1047400002FB03F318460BF057FD03461A467B683D
:104750001A607B681868754B1B881A46FB7802FB49
:1047600003F31A460021FCF79BF9704B1B881A468D
:104770007B7802FB03F318460BF03EFD03461A4616
:104780007B685A607B685868684B1B881A467B7840
:1047900002FB03F31A460021FCF782F9634B1B88E6
:1047A0001A46BB7802FB03F318460BF025FD0346BF
:1047B0001A467B689A607B6898685C4B1B881A462F
:1047C000BB7802FB03F31A460021FCF769F9574B4B
:1047D0001B881A46FB7802FB03F318460BF00CFD0E
:1047E00003461A467B68C3F8E8207B68D3F8E800E4
:1047F0004E4B1B881A46FB7802FB03F31A46002136
:10480000FCF74EF97B6803F130007B681B7B19468F
:104810007B68D3F8E83001220BF090FA434B1B88F9
:104820001A46FB7802FB03F318460BF0E5FC03463F
:104830001A467B68C3F8EC207B68D3F8EC003B4B4E
:104840001B881A46FB7802FB03F31A460021FCF78B
:1048500027F97B6803F138007B681B7B19467B686E
:10486000D3F8EC3001220BF069FABB78002B26D08C
:104870002E4B1B881A46BB7802FB03F318460BF03D
:10488000BBFC03461A467B68C3F8F0207B68D3F86C
:10489000F000264B1B881A46BB7802FB03F31A462E
:1048A0000021FCF7FDF87B6803F140007B685B7B2F
:1048B00019467B68D3F8F03001220BF03FFA1B4B0E
:1048C0001B881A467B7802FB03F318460BF094FC16
:1048D00003461A467B68C3F8F4207B68D3F8F400DB
:1048E000124B1B881A467B7802FB03F31A46002101
:1048F000FCF7D6F87B6803F148007B689B7B194680
:104900007B68D3F8F43001220BF018FA074B1B88B0
:104910001A46FB7802FB03F3FA7802FB03F318460E
:104920000BF06AFC03461A467B6803E098090020F6
:104930009A090020C3F8F8207B68D3F8F800BD4B33
:104940001B881A46FB7802FB03F3FA7802FB03F399
:104950001A460021FCF7A4F87B6803F150007B683D
:104960001B7B19467B681B7B1A467B68D3F8F830A3
:104970000BF0E4F9AF4B1B881A46FB7802FB03F3FC
:10498000FA7802FB03F318460BF036FC03461A468E
:104990007B68C3F8FC207B68D3F8FC00A54B1B8820
:1049A0001A46FB7802FB03F3FA7802FB03F31A467C
:1049B0000021FCF775F87B6803F158007B681B7BCE
:1049C00019467B681B7B1A467B68D3F8FC300BF0DA
:1049D000B5F9984B1B881A46FB7802FB03F3FA786B
:1049E00002FB03F318460BF007FC03461A467B68EC
:1049F000C3F800218F4B1B881A46FB7802FB03F398
:104A0000FA7802FB03F318460BF0F6FB03461A464E
:104A10007B68C3F804217B68D3F80001854B1B88B1
:104A20001A46FB7802FB03F3FA7802FB03F31A46FB
:104A30000021FCF735F87B68D3F804017D4B1B8817
:104A40001A46FB7802FB03F3FA7802FB03F31A46DB
:104A50000021FCF725F87B6803F160007B681B7B75
:104A600019467B681B7B1A467B68D3F800310BF034
:104A700065F97B6803F168007B681B7B19467B68DE
:104A80001B7B1A467B68D3F804310BF057F9BB78CF
:104A9000002B2ED0674B1B881A46FB7802FB03F3D2
:104AA000BA7802FB03F318460BF0A6FB03461A463E
:104AB0007B68C3F808217B68D3F808015D4B1B882D
:104AC0001A46FB7802FB03F3BA7802FB03F31A469B
:104AD0000021FBF7E5FF7B6803F170007B681B7B1F
:104AE00019467B685B7B1A467B68D3F808310BF06C
:104AF00025F9504B1B881A467B7802FB03F3FA78A2
:104B000002FB03F318460BF077FB03461A467B685B
:104B1000C3F80C21474B1B881A46FB7802FB03F3B2
:104B20007A7802FB03F318460BF066FB03461A463D
:104B30007B68C3F810217B68D3F80C013D4B1B88C0
:104B40001A467B7802FB03F3FA7802FB03F31A465A
:104B50000021FBF7A5FF7B68D3F81001354B1B88BC
:104B60001A46FB7802FB03F37A7802FB03F31A463A
:104B70000021FBF795FF7B6803F178007B689B7B46
:104B800019467B681B7B1A467B68D3F80C310BF007
:104B9000D5F87B6803F180007B681B7B19467B6836
:104BA0009B7B1A467B68D3F810310BF0C7F8214B7A
:104BB0001B881A46FB7802FB03F3FA7802FB03F327
:104BC00018460BF019FB03461A467B68C3F81421FC
:104BD0007B68D3F81401174B1B881A46FB7802FB3D
:104BE00003F3FA7802FB03F31A460021FBF758FFA0
:104BF0007B6803F188007B681B7B19467B681B7B05
:104C00001A467B68D3F814310BF098F8094B1B88CF
:104C10001A467B7802FB03F37A7802FB03F318460B
:104C20000BF0EAFA03461A467B68C3F818217B6842
:104C300002E000BF98090020D3F818017D4B1B88C3
:104C40001A467B7802FB03F37A7802FB03F31A46D9
:104C50000021FBF725FF7B6803F190007B689B7BBD
:104C600019467B689B7B1A467B68D3F818310BF09A
:104C700065F8704B1B881A46FB7802FB03F37A78C1
:104C800002FB03F318460BF0B7FA03461A467B689B
:104C9000C3F81C217B68D3F81C01664B1B881A469D
:104CA000FB7802FB03F37A7802FB03F31A46002138
:104CB000FBF7F6FE7B6803F198007B681B7B1946C7
:104CC0007B689B7B1A467B68D3F81C310BF036F867
:104CD000584B1B881A467B681B7B02FB03F37A68E0
:104CE000127B02FB03F318460BF086FA03461A46C2
:104CF0007B68C3F820214F4B1B881A467B681B7BBF
:104D000002FB03F37A68127B02FB03F318460BF0F5
:104D100073FA03461A467B68C3F82421454B1B8867
:104D20001A467B681B7B02FB03F37A68127B02FB4B
:104D300003F318460BF060FA03461A467B68C3F883
:104D400028213C4B1B881A467B681B7B02FB03F324
:104D500018460BF051FA03461A467B68C3F82C211B
:104D6000344B1B881A467B681B7B02FB03F31846F7
:104D70000BF042FA03461A467B68C3F830217B6881
:104D800003F1A0007B681B7B19467B681B7B1A46DE
:104D90007B68D3F820310AF0D1FF7B6803F1A800CB
:104DA0007B681B7B19467B681B7B1A467B68D3F8A4
:104DB00024310AF0C3FF7B6803F1B0007B681B7BE2
:104DC00019467B681B7B1A467B68D3F828310AF0AA
:104DD000B5FF7B6803F1B8007B681B7B19467B68D5
:104DE000D3F82C3101220AF0A9FF7B6803F1C0003F
:104DF0007B681B7B19467B68D3F8303101220AF0AF
:104E00009DFF7B68002283F828207B68002283F8BE
:104E100029207B68002283F82A207B68002283F8FF
:104E20002B207B68002283F82C2000BF0837BD466A
:104E300080BD00BF9809002080B582B000AF7860C7
:104E40007B68DB7B002B03D0786800F033FB1BE032
:104E50007B68D3F8F4007B685968154B1B881A46A9
:104E60007B689B7B02FB03F31A460BF0E7F97B6838
:104E700058680F4B1B881A467B689B7B02FB03F329
:104E80001A460021FBF70CFE7B68D3F8F0007B6824
:104E90009968074B1B881A467B685B7B02FB03F310
:104EA0001A460BF0CBF900BF0837BD4680BD00BFE6
:104EB0009809002080B582B000AF78607B6893F8D5
:104EC0002830002B58D17B685B7B002B44D07B685B
:104ED0001B7B1A467B68A3F8B8207B680122A3F8E5
:104EE000BA207B6803F160007B6803F130017B68C6
:104EF000B8331A460AF0E6FC03461A467B6883F884
:104F0000C8207B681B7B1A467B68A3F8C0207B689F
:104F10000122A3F8C2207B6803F170007B6803F1D3
:104F200040017B68C0331A460AF0CCFC03461A469F
:104F30007B6883F8C8207B6803F1B8007B6803F1C5
:104F4000C0017B6838331A460AF0FCFE03461A4655
:104F50007B6883F8C8200FE07B6803F160007B6802
:104F600003F130017B6838331A460AF0ABFC034684
:104F70001A467B6883F8C82000BF0837BD4680BD4D
:104F800080B582B000AF78607B6893F82930002B41
:104F900049D17B6803F160027B686833194610468B
:104FA0000AF07AFB03461A467B6883F8C8207B68C0
:104FB00003F160007B6803F150017B6858331A46A7
:104FC0000AF080FC03461A467B6883F8C8207B6899
:104FD000B3F858207B68A3F8A8207B68B3F86A2050
:104FE0007B68A3F8AA207B6803F158007B6803F173
:104FF00068017B68A8331A460AF064FC03461A4627
:105000007B6883F8C8207B6803F1A8007B6803F104
:1050100088017B6858331A460AF094FE03461A4604
:105020007B6883F8C82000BF0837BD4680BD80B5C7
:1050300082B000AF78607B6893F82A30002B40F094
:105040009C807B6803F178027B68803319461046A8
:105050000AF022FB03461A467B6883F8C8207B6867
:10506000B3F878207B68A3F8A8207B68B3F85A20AF
:105070007B68A3F8AA207B6803F178007B6803F1C2
:1050800058017B68A8331A460AF01CFC03461A46EE
:105090007B6883F8C8207B68B3F8A8207B68A3F8F6
:1050A000B0207B68B3F882207B68A3F8B2207B68CD
:1050B00003F1A8007B6803F180017B68B0331A46D6
:1050C0000AF000FC03461A467B6883F8C8207B6818
:1050D000B3F890207B68A3F8A0207B68B3F89220F7
:1050E0007B68A3F8A2207B6803F1B0007B6803F122
:1050F00090017B68A0331A460AF024FE03461A4644
:105100007B6883F8C8207B6803F1A0027B68B0331A
:10511000194610460AF0E6FC03461A467B6883F8F7
:10512000C8207B68B3F858207B68A3F8A8207B6868
:10513000B3F882207B68A3F8AA207B6803F15800AB
:105140007B6803F180017B68A8331A460AF0BAFB3A
:1051500003461A467B6883F8C8207B6803F1A800E1
:105160007B6803F1B0017B6898331A460AF0AAFB0A
:1051700003461A467B6883F8C82000BF0837BD463F
:1051800080BD80B582B000AF78607B6893F82B302B
:10519000002B5DD17B68B3F878207B68A3F8B8203A
:1051A0007B680122A3F8BA207B6803F178007B6852
:1051B00003F138017B68B8331A460AF083FB0346D3
:1051C0001A467B6883F8C8207B68B3F848207B6860
:1051D000A3F8C0207B680122A3F8C2207B6803F1FA
:1051E00048007B6803F1B8017B68C0331A460AF0B7
:1051F000FDFA03461A467B6883F8C8207B68B3F83B
:1052000098207B68A3F8B8207B680122A3F8BA2015
:105210007B6803F198007B6803F1C0017B68B833B9
:105220001A460AF04FFB03461A467B6883F8C820EB
:105230007B6803F138007B6803F1B8017B68303389
:105240001A460AF07FFD03461A467B6883F8C82099
:1052500000BF0837BD4680BD80B582B000AF786022
:105260007B6893F82C30002B47D17B68B3F89820EB
:105270007B68A3F8A8207B68B3F87A207B68A3F842
:10528000AA207B68B3F8A8207B68A3F8B0207B68CD
:10529000B3F85A207B68A3F8B2207B6803F198002A
:1052A0007B6803F178017B68A8331A460AF00AFB91
:1052B00003461A467B6883F8C8207B6803F1A80080
:1052C0007B6803F158017B68B0331A460AF0FAFA9A
:1052D00003461A467B6883F8C8207B6803F15800B0
:1052E0007B6803F1B0017B6850331A460AF07EFAFE
:1052F00003461A467B6883F8C82000BF0837BD46BE
:1053000080BD000080B584B000AF78607868FFF79A
:1053100093FD7B68D3F8CC30002B04D07B68D3F8A6
:10532000CC30786898477868FFF7C4FD7B68D3F87D
:10533000D030002B04D07B68D3F8D0307868984701
:105340007868FFF71DFE7B68D3F8D430002B04D0BB
:105350007B68D3F8D430786898477B681B7C002B37
:1053600003D17B68DB7B002B1DD17868FFF75FFEE4
:105370007B68D3F8D830002B04D07B68D3F8D830C2
:10538000786898477868FFF7FCFE7B68D3F8DC30D4
:10539000002B04D07B68D3F8DC30786898477868B5
:1053A000FFF75AFF23E07B68D3F8E8007B68D3F867
:1053B000EC103F4B1B881A467B681B7B02FB03F3F8
:1053C0001A460AF03BFF7B68D3F8F8007B68D3F8F5
:1053D000FC10374B1B881A467B681B7B02FB03F3D0
:1053E0007A68127B02FB03F31A460AF027FF7B68F8
:1053F000D3F8E030002B04D07B68D3F8E030786835
:1054000098470023FB732FE07B68D3F8F820FB7BE1
:105410007968097B03FB01F1FB7B0B449B00134480
:1054200093ED007A7B681A6AFB7B9B001344D3EDF3
:10543000007AB4EEE77AF1EE10FA12D57B681A6AB8
:10544000FB7B9B001A447B68D3F8F810FB7B7868E1
:10545000007B03FB00F0FB7B03449B000B441268C2
:105460001A60FB7B0133FB737B681B7BFA7B9A42E0
:10547000CAD37B6818687B68D3F8E8100C4B1B888C
:105480001A467B681B7B02FB03F31A460AF0D6FE22
:105490007B68D3F8E430002B04D07B68D3F8E43089
:1054A000786898477B681B6818461037BD4680BDF2
:1054B0009809002090B585B000AF78607B68002225
:1054C0001A747B68D3F8F4007B685968734B1B88A7
:1054D0001A467B689B7B02FB03F31A460AF0AEFE7A
:1054E0007B6858686D4B1B881A467B689B7B02FB68
:1054F00003F31A460021FBF7D3FA7B68D3F81801AF
:10550000664B1B881A467B689B7B02FB03F37A6819
:10551000927B02FB03F31A460021FBF7C1FA7B687A
:10552000D3F80C015D4B1B881A467B681B7B02FB82
:1055300003F37A68927B02FB03F31A460021FBF720
:10554000AFFA0023FB7347E07B68D3F8F420FB7BC2
:105550009B001344D3ED007AF5EE407AF1EE10FA99
:1055600037D07B68D3F8F420FB7B9B001A447B6820
:10557000D3F8F4107B681B7C9B000B4412681A6004
:105580007B685B6A7A68127C1344FA7B1A707B68CA
:105590009A69FB7B9B001A447B68D3F80C117B68EB
:1055A0001B7B18467B681B7C00FB03F3786844690F
:1055B000F87B20440078034403F18043013B9B00C7
:1055C0000B4412681A607B681B7C0133DAB27B687B
:1055D0001A74FB7B0133FB737B689B7BFA7B9A42DB
:1055E000B2D30023BB7319E07B68DA697B68596A20
:1055F000BB7B0B441B789B001A447B68D3F81811C3
:10560000BB7B7868007C03FB00F0BB7B03449B0002
:105610000B4412681A60BB7B0133BB737B681B7C35
:10562000BA7B9A42E0D37B681B7C1A467B68A3F85E
:1056300078207B681B7B1A467B68A3F87A207B68FE
:105640001B7B1A467B68A3F880207B681B7C1A466C
:105650007B68A3F882207B681B7C1A467B68A3F8D2
:1056600090207B681B7C1A467B68A3F892207B689D
:105670001B7B1A467B68A3F898207B681B7C1A4624
:105680007B68A3F89A207B681B7C1A467B68A3F88A
:10569000482000BF1437BD4690BD00BF98090020C8
:1056A00080B588B000AF786187ED040AC7ED030AC2
:1056B00087ED021AC7ED011A87ED002A424B01223D
:1056C0001A70414A3B69C2F8B0313F4AFB68C2F8E0
:1056D000B4313D4ABB68C2F8B8313B4B3B4AC3F8D2
:1056E000CC21394B002283F8382137494FF0000292
:1056F0004FF00003C1E9502333494FF000024FF04F
:105700000003C1E95223D7ED017AB7EE007AF4EE37
:10571000C77AF1EE10FA02DD4FF07E537B602A4A21
:105720007B68C2F8D031284A3B68C2F89031032325
:10573000002206212648FEF777FF264B0122012191
:1057400025480AF0FBFA0023FB610EE0FB699B0091
:105750007A691A441C4BD3F8EC10FB699B000B448C
:1057600012681A60FB690133FB61FB69032BEDDDF5
:10577000154B1A4AC3F8D020134B194AC3F8D4204A
:10578000114B184AC3F8D8200F4B174AC3F8DC2036
:105790000D4B012283F82E200B4B012283F82F2082
:1057A000094BD3F804319022104918460AF046FDFF
:1057B000054BD3F8FC3090220D4918460AF03EFD07
:1057C00000BF2037BD4680BDA009002077CC2B321A
:1057D000A4090020680B0020600B0020FD69000870
:1057E000415F0008FD61000861630008381A010884
:1057F000B4010020B0B58AB000AF87ED070AC7ED4D
:10580000060A87ED051AC7ED041A87ED032AC7EDCE
:10581000022A87ED013AB94A7B68C2F8BC31B74B1E
:10582000D3ED587A97ED077A77EE677AB34BC3EDED
:105830005B7AB24BD3ED597A97ED067A77EE677AB9
:10584000AE4BC3ED5C7AAD4BD3ED5A7A97ED057A4A
:1058500077EE677AA94BC3ED5D7AA84BD3ED5B7AFF
:10586000B6EE007A27EE877AD7ED017A67EE277ACF
:10587000A34BC3ED007AA14BD3ED5C7AB6EE007A70
:1058800027EE877AD7ED017A67EE277A9D4BC3ED35
:10589000007A9A4BD3ED5D7AB6EE007A27EE877ADE
:1058A000D7ED017A67EE277A974BC3ED007A934BD9
:1058B000D3F804319022954918460AF0BFFC904B6A
:1058C000D3ED007A8D4BD3F804310433F1EE677ACF
:1058D000C3ED007A8B4BD3ED007A884BD3F80431BB
:1058E0000833F1EE677AC3ED007A874BD3ED007A87
:1058F000824BD3F804310C33F1EE677AC3ED007AB2
:105900007E4BD3F8043118337D4A12681A607B4B02
:10591000D3F8043120337C4A12681A60794BD3EDF6
:10592000007A764BD3F804312433F1EE677AC3ED75
:10593000007A724BD3F804313033724A12681A601D
:10594000714BD3ED007A6D4BD3F804313433F1EE63
:10595000677AC3ED007A694BD3F804313C33684A67
:1059600012681A60654BD3F804314833664A1268EE
:105970001A60624BD3F804314C33624A12681A60E1
:105980005F4BD3ED007A5D4BD3F804315033F1EE29
:10599000677AC3ED007A594BD3E9522313430BD1F5
:1059A000564A3B69C2F87831544AFB68C2F87C31E8
:1059B000524ABB68C2F88031504B93ED5E7A4F4B30
:1059C000D3ED647A67EE276A4C4B93ED6F7A4B4BBD
:1059D000D3ED647A77EE277A86EEA77A474BD3ED3C
:1059E0006F6AD7ED047A26EEA76A444BD3ED6F6A4F
:1059F000424BD3ED647A76EEA76AC6EE267A77EE4E
:105A0000277A3E4BC3ED5E7A3C4B93ED5F7A3B4B7E
:105A1000D3ED647A67EE276A384B93ED6F7A374B94
:105A2000D3ED647A77EE277A86EEA77A334BD3EDFF
:105A30006F6AD7ED037A26EEA76A304BD3ED6F6A13
:105A40002E4BD3ED647A76EEA76AC6EE267A77EE11
:105A5000277A2A4BC3ED5F7A284B93ED607A274B68
:105A6000D3ED647A67EE276A244B93ED6F7A234B6C
:105A7000D3ED647A77EE277A86EEA77A1F4BD3EDC3
:105A80006F6AD7ED027A26EEA76A1C4BD3ED6F6AD8
:105A90001A4BD3ED647A76EEA76AC6EE267A77EED5
:105AA000277A164BC3ED607A144B93ED5E7A134B55
:105AB000D3ED5E7A27EE277A104BD3ED5F6A0F4B5A
:105AC000D3ED5F7A66EEA77A37EE277A0B4BD3EDEC
:105AD000606A0A4BD3ED607A66EEA77A77EE277A92
