:020000040800F2
:1000000000000220559500084D38000855380008BA
:100010005D380008653800086D38000800000000F1
:1000200000000000000000000000000091910008A6
:100030007538000800000000E193000849940008AA
:10004000A5950008A5950008A5950008A5950008A8
:10005000A5950008A5950008A5950008A595000898
:10006000A5950008A5950008A5950008A595000888
:1000700085380008A5950008A5950008A5950008F5
:10008000A5950008A5950008A5950008A595000868
:1000900099380008AD380008A5950008A595000816
:1000A000A5950008A5950008A5950008A595000848
:1000B000A5950008A5950008A5950008A595000838
:1000C000A5950008A5950008A5950008A595000828
:1000D000A5950008A5950008A5950008C138000859
:1000E000A5950008A5950008A5950008A595000808
:1000F000A5950008D5380008A5950008A595000825
:10010000A5950008A5950008A5950008A5950008E7
:10011000A5950008A5950008A5950008A5950008D7
:10012000A5950008F1380008A5950008A5950008D8
:10013000A5950008A5950008A5950008A5950008B7
:10014000A5950008A5950008A5950008A5950008A7
:10015000A595000805390008A5950008193900087B
:10016000A5950008A5950008A5950008A595000887
:10017000A5950008A5950008A595000800000000B9
:08018000A5950008A5950008F3
:1001900053B94AB9002908BF00281CBF4FF0FF31EE
:1001A0004FF0FF3000F00CB8ADF1080C6DE904CE53
:1001B00009F0FAF9DDF804E0DDE9022304B0704744
:1001C000704700BF10F8012B11F8013B012A28BF2E
:1001D0009A42F7D0D01A70470348044B834202D0AA
:1001E000034B03B118477047900100209001002095
:1001F000000000000548064B1B1AD90F01EBA301B4
:10020000491002D0034B03B11847704790010020FA
:10021000900100200000000010B5064C237843B97F
:10022000FFF7DAFF044B13B10448AFF3008001235A
:10023000237010BD9001002000000000C498000849
:1002400008B5054B1BB105490548AFF30080BDE873
:100250000840FFF7CFBF00BF00000000940100205E
:10026000C498000802440346934200D1704703F843
:10027000011BF9E770B50D4D0D4C641BA410002651
:10028000A64209D10B4D0C4C09F01CFB641BA410B9
:100290000026A64205D170BD55F8043B98470136AB
:1002A000EEE755F8043B98470136F2E7D89A000884
:1002B000D89A0008D89A0008DC9A0008704770475E
:1002C00070B50F4E0C463168054611B900F0A6F81E
:1002D00030602146284600F0A1F8431C03D14FF0BE
:1002E000FF34204670BDC41C24F00304A042F8D0A3
:1002F000211A284600F092F80130F2D1EFE700BF52
:10030000EC0200202DE9F843CD1C25F0030508354B
:100310000C2D38BF0C25002D064601DBA94204D95F
:100320000C2333600020BDE8F883DFF8D48000F0B0
:1003300069F8D8F800301C4644BB29463046FFF720
:10034000BFFF431C044658D1D8F800402746002F71
:1003500043D1002C4BD023683946304604EB0309C7
:1003600000F05CF8814542D121686D1A294630467B
:10037000FFF7A6FF01303AD023682B442360D8F85A
:1003800000305A6862BBC8F800700FE02268521B48
:1003900020D40B2A17D96119A342256018BF5960D0
:1003A000636808BFC8F8001062514B60304600F027
:1003B0002FF804F10B00231D20F00700C21A1CBF08
:1003C0001B1AA350AFE76268A3420CBFC8F8002015
:1003D0005A60EBE723466468AEE73C467F68B6E7C1
:1003E0001A465B68A342FBD100235360DEE70C236F
:1003F0003360304600F00CF894E70560D6E700BFA4
:10040000F00200200148FFF759BF00BFE8020020BA
:100410000148FFF754BF00BFE802002038B5064D81
:100420000023044608462B6009F05EF8431C02D105
:100430002B6803B1236038BDE402002080B483B090
:1004400000AF114B1B78DBB2002B16D10E4B0122F3
:100450001A700E4B5B687B607A680D4B1B689A4282
:1004600004D20C4B1B6801330A4A1360074B5B68CC
:10047000074A1360044B00221A7000BF0C37BD46B8
:100480005DF8047B704700BF08030020001000E007
:10049000040300200003002080B582B000AF786024
:1004A000164BDB68154A43F08073D360144B00226F
:1004B0005A60134B1B68124A43F0010313607B68B8
:1004C000104A02FB03F3104A13600F4B1B680F4ADC
:1004D000A2FB03239B090E4A13600B4B1B680D4ABA
:1004E000A2FB03239B0C0C4A13600C4B00221A60E6
:1004F000FFF7A4FF00BF0837BD4680BDF0ED00E068
:10050000001000E040420F00F4020020D34D6210C2
:10051000F802002083DE1B43FC02002000030020C1
:1005200080B584B000AF7860104B5B68BB60BA6880
:100530007B681B68D31A07EE903AF8EE676A0C4B9B
:100540001B6807EE903AB8EE677AC6EE877AC7ED79
:10055000037ABA687B681A60FFF770FFFB6807EEE2
:10056000903AB0EE670A1037BD4680BD001000E03B
:10057000F402002080B582B000AF78607B68D3F8C9
:10058000040179687B6893F800311A4606F056FC3E
:100590007B68D3F80431DB6B1B681A687B68D3F87F
:1005A0000431DB6B1B6822F008021A6000BF0837B9
:1005B000BD4680BD80B586B002AF78602C4B1B78FD
:1005C000022B08D92B4B00932B4B2C4A2C49002093
:1005D00001F038FFF6E70023FB7315E0FB7B294AA7
:1005E00052F82330D3F804217B685B689A4208D123
:1005F000204B0093204B214A2349002001F022FF89
:10060000F6E7FB7B0133FB73194B1B78FA7B9A42AD
:10061000E4D34FF4867009F025F90346BB604FF42C
:1006200086720021B868FFF71DFE7B685A68BB68B8
:10063000C3F804217B681A78BB6883F800217B68C3
:100640009A68BB68C3F80821094B1B785A1CD1B2C1
:10065000074A117019460B4ABB6842F82130B86846
:10066000FFF788FFBB6818461037BD4680BD00BF46
:100670000903002020990008DC980008E098000891
:10068000E89800080C0300202899000880B584B081
:1006900000AF78600B467B800023FB734DE0FB7B53
:1006A0002A4A52F82330D3F804317A689A4241D169
:1006B000FB7B264A52F82330D3F80831002B10D0A8
:1006C000FB7B224A52F82330D3F808319847FB7B52
:1006D0001E4A52F8233018467B881A460021FFF73D
:1006E000C1FDFB7B194A52F82330D3F80401FB7B90
:1006F000164A52F823301946FB7B144A52F823302D
:1007000093F800311A4606F099FBFB7B0F4A52F82A
:100710002330D3F80431DB6B1B681A68FB7B0B4971
:1007200051F82330D3F80431DB6B1B6822F0080248
:100730001A6007E0FB7B0133FB73054B1B78FA7BE8
:100740009A42ACD31037BD4680BD00BF0C030020D9
:100750000903002080B586B002AF78600023FB73E8
:100760003EE0FB7B224A52F82330D3F804317A680A
:100770009A4232D1FB7B1E4A52F82330D3F804014F
:10078000FB7B1B4A52F823301946FB7B184A52F870
:10079000233093F800311A4606F050FBFB7B144AD5
:1007A00052F82330D3F80431DB6B1B681A68FB7BEB
:1007B0000F4951F82330D3F80431DB6B1B6822F06A
:1007C00008021A60FB7B0B4A019200930A4B0B4A0A
:1007D0000B49002001F036FE07E0FB7B0133FB7381
:1007E000084B1B78FA7B9A42BBD31037BD4680BDBD
:1007F0000C030020209900086499000868990008FB
:10080000709900080903002080B584B000AF7860BB
:10081000102009F027F80346FB6010220021F86839
:10082000FFF720FD7B689A68FB68DA607B681B88AD
:10083000002B02D07B681A8800E06422FB681A80D3
:100840007B685A68FB685A607B685B88002B02D023
:100850007B685A8800E06422FB681A817B681A88EA
:10086000FB681A81074B1B785A1CD1B2054A1170DC
:100870001946054AFB6842F82130FB6818461037D4
:10088000BD4680BD180400201803002080B483B04A
:1008900000AF78607B681A887B681A8100BF0C37CC
:1008A000BD465DF8047B704780B582B000AF002381
:1008B0007B601CE0134A7B6852F823303B603B6846
:1008C0001B89002B06D03B681B89013B9AB23B6811
:1008D0001A8109E03B685B68002B05D03B685B68C8
:1008E0003A68D268104698477B6801337B60064BB4
:1008F0001B781A467B689342DCD300BF00BF0837E1
:10090000BD4680BD180300201804002080B586B0C5
:1009100000AF786039604DE007F10C032B4A39686D
:10092000786803F0A6F900237B613DE0284A7B69E3
:1009300052F823301B687A689A4232D1234B1A68E6
:1009400023497B6951F823305B6B9A4229D1204AB5
:100950007B6952F82330D3F83930002B32D01B4B4F
:1009600019691B4A7B6952F82330CAB283F83820D0
:10097000174A7B6952F823302C33144A126907F165
:100980000C01184608F090FF114A7B6952F8233099
:10099000D3F839300E497A6951F822201046984729
:1009A00011E07B6901337B610A4B1B781A467B6936
:1009B0009342BBD33968786803F07DFA0346002B75
:1009C000AAD100E000BF1837BD4680BD60040020FA
:1009D0001C0400205C04002080B582B000AF786069
:1009E00000217868FFF792FF00BF0837BD4680BD41
:1009F00080B582B000AF786001217868FFF786FF8C
:100A000000BF0837BD4680BD80B483B000AF7860BA
:100A10007B6893ED017A7B68D3ED0C6A7B68D3ED3C
:100A20000D7A76EEA76AB0EE006AC6EE867A27EEF9
:100A3000277A7B68D3ED187A67EE277A7B68C3ED57
:100A4000127A00BF0C37BD465DF8047B704780B456
:100A500083B000AF78607B6893ED0C7A7B68D3ED50
:100A6000107A67EE277AF5EEC07AF1EE10FA65DDBE
:100A70007B68D3ED0C7AF5EEC07AF1EE10FA03DD67
:100A80007B68D3ED0C7A04E07B68D3ED0C7AF1EE51
:100A9000677A7B6893ED077AF4EEC77AF1EE10FA85
:100AA0004BD97B68D3ED0C7AF5EEC07AF1EE10FAF3
:100AB00003DD7B68D3ED0C7A04E07B68D3ED0C7A20
:100AC000F1EE677A7B68D3ED066A7B6893ED077A6F
:100AD00036EE877AF4EEC77AF1EE10FA28D87B6802
:100AE00093ED127A7B68D3ED066A7B68D3ED0C7ABE
:100AF000F5EEC07AF1EE10FA03DD7B68D3ED0C7AE7
:100B000004E07B68D3ED0C7AF1EE677A76EEE76A63
:100B10007B68D3ED077A36EEA76A7B68D3ED066A69
:100B2000C6EE267A67EE277A7B68C3ED127A05E077
:100B30007B684FF000029A6400E000BF0C37BD46AE
:100B40005DF8047B7047000080B483B000AF78602C
:100B50007B6893ED107A7B68D3ED127A77EE277A73
:100B6000374BC3ED007A7B6893ED0F7A7B68D3ED4A
:100B7000107A37EE277A7B68D3ED117A77EE277AF1
:100B8000304BC3ED007A2F4BD3ED007AF5EEC07AEF
:100B9000F1EE10FA03DD2B4BD3ED007A04E0294B84
:100BA000D3ED007AF1EE677A7B6893ED037AF4EE89
:100BB000C77AF1EE10FA10DD7B6893ED0C7A7B6852
:100BC000D3ED107A67EE277AF5EEC07AF1EE10FADF
:100BD00003DD7B684FF000029A647B6893ED057A31
:100BE000174BD3ED007AB4EEE77AF1EE10FA07D5A1
:100BF0007B684FF000029A647B685A697B681A64CC
:100C00007B68D3ED057AB1EE677A0D4BD3ED007AB0
:100C1000B4EEE77AF1EE10FA00DC0BE07B684FF0FF
:100C200000029A647B68D3ED057AF1EE677A7B68FF
:100C3000C3ED107A00BF0C37BD465DF8047B7047EA
:100C40007C0400208004002080B483B000AF786072
:100C50007B6893ED027A7B68D3ED0B6A7B68D3EDFA
:100C60000A7A76EEE77A67EE276A7B6893ED187A60
:100C7000C6EE877A7B68C3ED117A00BF0C37BD469C
:100C80005DF8047B704780B483B000AF78607B6808
:100C900093ED117A7B68D3ED187A67EE276A7B684B
:100CA00093ED097A7B68D3ED187A77EE277A86EE92
:100CB000A77A7B68D3ED156A7B68D3ED097A26EEB7
:100CC000A76A7B68D3ED096A7B68D3ED187A76EE64
:100CD000A76AC6EE267A77EE277A7B68C3ED117A8B
:100CE00000BF0C37BD465DF8047B704780B483B00D
:100CF00000AF78607B6893ED137A7B68D3ED187A48
:100D000067EE276A7B6893ED087A7B68D3ED187AE3
:100D100077EE277A86EEA77A7B68D3ED146A7B6834
:100D2000D3ED087A26EEA76A7B68D3ED086A7B6864
:100D3000D3ED187A76EEA76AC6EE267A77EE277A92
:100D40007B68C3ED137A00BF0C37BD465DF8047BAA
:100D5000704780B483B000AF78607B6893ED137AFE
:100D60007B68D3ED037AB4EEE77AF1EE10FA03DD97
:100D70007B68DA687B68DA647B6893ED137A7B685A
:100D8000D3ED037AF1EE677AB4EEE77AF1EE10FA7A
:100D900000D407E07B68D3ED037AF1EE677A7B68D5
:100DA000C3ED137A00BF0C37BD465DF8047B704776
:100DB00080B582B000AF7860396064220021786825
:100DC000FFF750FA28223968786808F06DFD7B68D3
:100DD0005C331846FFF7A4FB00BF0837BD4680BD53
:100DE00080B584B000AFF86087ED020AC7ED010A54
:100DF000FB685C331846FFF793FBF0EE407AFB6824
:100E0000C3ED187AFB68BA689A62FB687A689A65DB
:100E1000FB6893ED167AFB68D3ED0A7A77EE677A72
:100E2000FB68C3ED0C7AFB68D3ED0C7AF5EEC07A63
:100E3000F1EE10FA03DDFB68D3ED0C7A04E0FB68F9
:100E4000D3ED0C7AF1EE677AFB6893ED047AF4EE59
:100E5000C77AF1EE10FA60DDFB6893ED007AFB686B
:100E6000D3ED0C7A67EE277AFB68C3ED0F7AFB6847
:100E700093ED017AFB68D3ED0C7A27EE277AFB68B5
:100E8000D3ED187A67EE277AFB68C3ED127AFB6818
:100E900093ED027AFB68D3ED0C6AFB68D3ED0D7A13
:100EA00076EEE77A67EE276AFB6893ED187AC6EE6E
:100EB000877AFB68C3ED117AF868FFF7A5FDF8683B
:100EC000FFF7C5FDF868FFF7BFFEF868FFF7DBFE28
:100ED000F868FFF739FEFB6893ED107AFB68D3EDF5
:100EE000127A77EE277AFB68C3ED107AFB6893EDF0
:100EF0000F7AFB68D3ED107A37EE277AFB68D3EDD3
:100F0000117A77EE277AFB68C3ED137AF868FFF75A
:100F1000EDFEF868FFF71DFF07E0FB684FF00002E9
:100F2000DA64FB684FF000029A64FB689A6AFB6817
:100F3000DA62FB68DA6CFB681A65FB685A6CFB685E
:100F40005A65FB681A6BFB685A63FB689A6CFB680E
:100F50009A63FB68DB6C07EE903AB0EE670A1037D5
:100F6000BD4680BD80B582B000AF87ED010A386014
:100F7000D7ED017AF5EEC07AF1EE10FA0AD53B68AA
:100F8000002283F8E020D7ED017AF1EE677AC7ED11
:100F9000017A03E03B68012283F8E0203B6893F884
:100FA000E030002B14D03B68D3F8F8003B68B3F86E
:100FB000E2300022194604F0D3F83B68D3F8F80079
:100FC0003B68B3F8E4300122194604F0C9F813E095
:100FD0003B68D3F8F8003B68B3F8E23001221946C9
:100FE00004F0BEF83B68D3F8F8003B68B3F8E4308F
:100FF0000022194604F0B4F83B68D3F8E830002B1F
:101000000BD13B68D3F8F4301B68D7ED017AFCEEC6
:10101000E77A17EE902A5A632CE03B68D3F8E83061
:10102000042B0BD13B68D3F8F4301A68D7ED017A62
:10103000FCEEE77A17EE903A93631BE03B68D3F837
:10104000E830082B0BD13B68D3F8F4301A68D7EDA1
:10105000017AFCEEE77A17EE903AD3630AE03B6838
:10106000D3F8F4301A68D7ED017AFCEEE77A17EE80
:10107000903A13643B68D3F8E830DBB2184608377F
:10108000BD4680BD80B582B000AF78607B68EC3330
:101090001846FFF745FAF0EE407A7B68C3ED327AE6
:1010A0007B68D3F8F0301B685B6A1BB207EE903A9E
:1010B000F8EEE77A7B68C3ED367A7B6893ED367A93
:1010C0007B68D3ED377A77EE676A7B6893ED327A87
:1010D000C6EE877A7B68C3ED357A7B68D3F8D82073
:1010E0007B68C3F8DC2000BF0837BD4680BD000028
:1010F00080B584B000AF7860FC2008F0B3FB0346F5
:10110000FB60FC220021F868FFF7ACF87B685A6EA0
:10111000FB68C3F8F8207B68B3F85420FB68A3F899
:10112000E2207B68B3F85620FB68A3F8E4207B68D4
:101130001A6EFB68C3F8F4207B68DA6DFB68C3F8AD
:10114000F0207B681A6DFB68C3F8E820FB68D3F8D1
:10115000F0300021184605F055F8FB68D3F8F03060
:101160000421184605F04EF8FB68D3F8F420FB681C
:10117000D3F8E8301946104604F07CFFFB687A6823
:1011800011461846FFF714FEFB6803F164027B6802
:10119000283319461046FFF70BFE7B6893F858205A
:1011A000FB6883F8E020084B1B785A1CD1B2064A32
:1011B00011701946054AFB6842F82130FB68184651
:1011C0001037BD4680BD00BF8C0400208404002081
:1011D00090B583B000AF00237B6036E0204A7B6887
:1011E00052F823301846FFF74DFF1D4A7B6852F82E
:1011F00023201B497B6851F82330D2F8CC20C3F858
:10120000D020174A7B6852F8233003F16402144956
:101210007B6851F82330D3ED357A11497B6851F85A
:10122000233093ED347A0E497B6851F82340F0EE79
:10123000470AB0EE670A1046FFF7D2FDF0EE407A9B
:10124000C4ED347A7B6801337B60064B1B781A4609
:101250007B689342C2D300BF00BF0C37BD4690BD30
:10126000840400208C04002080B582B000AF0023ED
:101270007B6047E0294A7B6852F82330D3ED347A0B
:101280009FED277AF4EEC77AF1EE10FA01DD254BD7
:1012900005E0224A7B6852F82330D3F8D0301F494A
:1012A0007A6851F82220C2F8D0301C4A7B6852F884
:1012B0002330D3ED347A9FED1C7AF4EEC77AF1EE49
:1012C00010FA01D5194B05E0144A7B6852F8233017
:1012D000D3F8D03011497A6851F82220C2F8D030C2
:1012E0000E4A7B6852F82330D3ED347A0B4A7B6880
:1012F00052F823301846B0EE670AFFF733FE7B68DA
:1013000001337B600A4B1B781A467B689342B1D34A
:1013100000BF00BF0837BD4680BD00BF8404002069
:101320000000FA440000FA440000FAC40000FAC4C5
:101330008C04002080B483B000AF0023FB7115E063
:10134000FB795B000E4A1344B3F90030002BB8BFA1
:101350005B429BB2B3F5257F05D9FB795B00084A58
:10136000134400221A80FB790133FB71FB79042BB3
:10137000E6D900BF00BF0C37BD465DF8047B70475F
:101380009004002080B586B000AF78607B681B7841
:101390001AB27B6801331B781BB21B021BB21343CA
:1013A0001BB29BB2C3F30A039BB2A3F580639BB24B
:1013B0001AB2784B9A807B6801331B78DB08DBB26A
:1013C0001AB27B6802331B781BB25B011BB213435A
:1013D0001BB29BB2C3F30A039BB2A3F580639BB21B
:1013E0001AB26C4BDA807B6802331B789B09DBB244
:1013F0001AB27B6803331B781BB29B001BB21343EA
:101400001AB27B6804331B781BB29B021BB21343D6
:101410001BB29BB2C3F30A039BB2A3F580639BB2DA
:101420001AB25C4B1A807B6804331B785B08DBB212
:101430001AB27B6805331B781BB2DB011BB2134366
:101440001BB29BB2C3F30A039BB2A3F580639BB2AA
:101450001AB2504B5A807B6810331B781AB27B68E3
:1014600011331B781BB21B021BB213431BB29BB27E
:10147000C3F30A039BB2A3F580639BB21AB2454B38
:101480001A81FFF757FF7B6805331B781B09DBB216
:1014900003F00303DAB23F4BDA727B6805331B7843
:1014A0001B09DBB29B10DBB203F00303DAB2394B4A
:1014B0009A727B6806331B781AB27B6807331B78F5
:1014C0001BB21B021BB213431AB2324B9A817B68C8
:1014D00008331B781AB27B6809331B781BB21B02D6
:1014E0001BB213431AB22B4BDA817B680C331A7888
:1014F000284B1A747B680D331A78264B5A747B6814
:101500000E331B781AB27B680F331B781BB21B0299
:101510001BB213431AB2204B92B21A801D4B9B7C14
:1015200003F02003DBB2002B04D01A4A194B5B8A6C
:10153000938204E0022200211848FEF793FE154B27
:101540009B7C03F01003DBB2002B04D0114A114B3B
:101550005B8AD38204E0022200211148FEF782FE5A
:101560000C4B5B8A7B820B4BB3F85A303B82094BA6
:101570009B8AFB81074BDB8ABB81064BB3F85C304F
:101580007B81044BB3F85E303B810023FB82012357
:10159000BB8267E090040020A2040020A404002085
:1015A000A6040020FB8A042B55D0FB8A052B52D0C1
:1015B0007A8ABB8A13409BB2002B1BD03A8ABB8A23
:1015C00013409BB2002B15D1FA89BB8A13409BB202
:1015D000002B0FD1BA89BB8A13409BB2002B09D1D3
:1015E000FB8A284A1A44127E0132D1B2254A13449A
:1015F0000A461A76FA89BB8A13409BB2002B11D097
:101600007A89BB8A13409BB2002B0BD1FB8A1D4AFF
:101610001A4492F828200132D1B21A4A13440A46D9
:1016200083F82820BA89BB8A13409BB2002B13D0C1
:101630003A89BB8A13409BB2002B0DD1FB8A114A19
:101640001A4492F838200132D1B20E4A13440A46A5
:1016500083F8382000E000BFBB8A5B00BB82FB8AB6
:101660000133FB82FB8A0F2B9CD9064B054A48337A
:1016700011464822184608F017F900BF1837BD4632
:1016800080BD00BF9004002080B500AF054B1B68F3
:101690001846FFF7FBF8044B1B681846FFF772FE6D
:1016A00000BF80BD280500202405002080B584B03F
:1016B00002AF7860902200210948FEF7D3FD094B64
:1016C0001B681846FEF756FF074B0093074B084A66
:1016D0000849002000F0B6FE00BF0837BD4680BDB7
:1016E0009004002024050020E8990008B89900081B
:1016F000BC990008C499000880B588B000AF786034
:10170000134BFB617B68BB6112233B7507F114032C
:101710001846FEF74FFF03460E4A136007F1080311
:1017200000221A605A609A600A233B810A4BFB60D0
:1017300007F108031846FFF767F80346074A1360E6
:10174000074B01221A70074B18462037BD4680BD53
:101750008916000824050020AD1600082805002081
:10176000200500209004002080B582B000AF786092
:101770002121786808F07EF803461F2B01D900BFAD
:10178000FDE700BF0837BD4680BD80B483B000AF21
:1017900003460A46FB711346BB71FA79BB799A423C
:1017A00001D000BFFDE700BF0C37BD465DF8047BEC
:1017B0007047000080B584B000AF78600B46FB70C6
:1017C0007868FFF7D1FF214BFB6018E0FB689B6A4C
:1017D000FB60FB6879681846FEF7F4FC0346002BB3
:1017E0000DD1FB6893F82120FB7811461846FFF7CE
:1017F000CCFFFB68012283F82C20FB6822E0FB6809
:101800009B6A002BE2D1302008F02CF803461A46E0
:10181000FB689A62FB689B6A302200211846FEF73B
:1018200021FDFB689B6AFA7883F82120FB689B6A9C
:101830007968184608F030F8FB68012283F82C20FC
:10184000FB689B6A18461037BD4680BD50000020DB
:1018500080B586B000AF78600B46FB70FB78194608
:101860007868FFF7A7FFF8600C2007F0FBFF03463E
:10187000BB600C220021B868FEF7F4FCBB68FA7864
:101880001A7100237B610CE0FB78184607F0EAFF31
:1018900003461946BB687A6943F822107B69013315
:1018A0007B617B69002BEFD0FB685B6A002B04D166
:1018B000FB68BA685A62BB680EE0FB685B6A3B6112
:1018C00002E03B699B683B613B699B68002BF8D158
:1018D0003B69BA689A60BB6818461837BD4680BD38
:1018E00080B582B000AF786039607B68DB79002B0F
:1018F00001D100231BE07B685B791A467B6853F8B3
:1019000022107B681B791A46386807F0CDFF7B6888
:101910005B790133DAB27B685A717B6800225A71B5
:101920007B68DB79013BDAB27B68DA710123184608
:101930000837BD4680BD000080B582B000AF78603A
:1019400039607B685B6A1C4A13602BE01A4B1B688A
:10195000DB79012B09D1184B1B6800225A71164BF9
:101960001B68DA79013AD2B2DA71134B1B68124A5A
:101970001268927953F822007B6893F821301A4656
:10198000396807F091FF0C4B1B6800229A710A4BD3
:101990001B68DA790132D2B2DA71074B1B689B6897
:1019A000054A1360044B1B68002BCFD10123184656
:1019B0000837BD4680BD00BF2C05002080B582B031
:1019C00000AF7860044B1B681846FEF7D3FD00BFDC
:1019D0000837BD4680BD00BF4405002080B582B0F9
:1019E00000AF084B1B681846FEF750FF064B1B68FC
:1019F0001846BB1D054A194600F0DAF800BF083743
:101A0000BD4680BD40050020440500203305002070
:101A100080B588B000AF7860134BFB6116233B752F
:101A20007B68BB6107F114031846FEF7C3FD03464C
:101A30000E4A136007F1080300221A605A609A6088
:101A400064233B810A4BFB60084B1B683B6107F139
:101A500008031846FEF7D8FE0346064A1360064BF5
:101A600018462037BD4680BDDD190008440500201A
:101A7000BD190008400500203005002080B584B065
:101A800000AF78600B467B800023FB737B68002BE4
:101A900002D07B88022B01D8002313E07B88013B16
:101AA0009BB21946786800F0C3F80346FB737B8845
:101AB000013B7A6813441B78FA7B9A420CBF0123DE
:101AC0000023DBB218461037BD4680BD80B584B018
:101AD00000AF786039600023FB817B68002B02D067
:101AE0003B68022B01D8002320E03B689BB2023BFD
:101AF0009BB21946786800F0C7F80346FB81FB8962
:101B0000DBB279683A680A44127893420CD1FB89B7
:101B10001B0A9BB2DBB23A68013279680A44127838
:101B2000934201D1012300E000239BB218461037F5
:101B3000BD4680BD80B582B000AF786039603B683B
:101B40001B78A52B2ED13B681A787B681A7004216C
:101B50003868FFF793FF0346002B23D03B6802331E
:101B60001B781BB21B021AB23B6801331B781BB2F5
:101B700013431BB29AB27B685A803B68DA787B6861
:101B80001A713B6805331B781BB21B021AB23B6803
:101B900004331B781BB213431BB29AB27B68DA8002
:101BA000012300E0002318460837BD4680BD000031
:101BB00080B584B000AFF860B9607A60F9681A48FF
:101BC000FFF7B8FF0346002B28D0174B5B8808337C
:101BD0009AB2164B1A80154B1B881946F868FFF706
:101BE00075FF0346002B19D0FB6807331B781BB227
:101BF0001B021AB2FB6806331B781BB213431BB2DD
:101C00009AB2BB681A80FB680833074A52881946A3
:101C1000786807F049FE044BDB8800E00023184693
:101C20001037BD4680BD00BF48050020520500208A
:101C300080B485B000AF78600B467B8000237B7357
:101C40007B68BB60BB68002B14D00023FB810DE0D8
:101C5000BB685A1CBA601A787B7B5340DBB21A46C9
:101C6000084B9B5C7B73FB890133FB81FA897B8882
:101C70009A42EDD37B7B18461437BD465DF8047B52
:101C8000704700BF8000002080B586B000AF78604C
:101C90000B467B80154B1B78002B01D100F02AF8F6
:101CA0004FF6FF73FB827B683B613B69002B18D0CA
:101CB0000023FB8111E0FB8A1B0A9AB2F98A3B6977
:101CC000581C38611B784B40DBB2094931F813309E
:101CD0005340FB82FB890133FB81FA897B889A425E
:101CE000E9D3FB8A18461837BD4680BD540500204D
:101CF0005805002080B483B000AF0023FB8029E0AA
:101D000000237B80FB883B800023BB8017E07A8820
:101D10003B8853409BB203F00103002B06D07B8825
:101D20005B089AB2114B53407B8002E07B885B08D2
:101D30007B803B885B083B80BB880133BB80BB88D2
:101D4000072BE4D9FB880A497A8821F81320FB88FD
:101D50000133FB80FB88FF2BD2D9064B01221A707E
:101D600000BF0C37BD465DF8047B704701A0FFFF44
:101D7000580500205405002080B584B000AF78607D
:101D80000B46FB707B689B68FB60FB685A1C7B689A
:101D90005B689A420ED87B681A68FB681344FA782D
:101DA0001A70FB685A1C7B689A607B68DB685A1C57
:101DB0007B68DA607B689A687B685B689A4215D1B9
:101DC0007B6818697B6819687B689B681A4600F015
:101DD000C3FC02467B689B689A4204D07B684FF044
:101DE000FF32DA6002E07B6800229A6000BF1037A1
:101DF000BD4680BD80B58AB000AFF860B9607A603A
:101E00003B60BB683B6201237B620123FB6107E00F
:101E10003A6A7B68B2FBF3F33B62FB690133FB6117
:101E20003A6A7B689A42F3D23A68FB699A4201D9CE
:101E30003B68FB617B6B03F00103002B25D13B6BFF
:101E4000002B22D07B6B03F00203002B05D03B68F4
:101E5000002B02D13023FB7601E02023FB760BE040
:101E60003B6B013B3B63FB7E1946F868FFF784FF41
:101E7000FB68DB68002B07DB3B6B002B05D0FA69A6
:101E80003B6B9A42ECD300E000BFFB68DB68002BA1
:101E900055DB3B68012B03D93B68013B3B6009E004
:101EA000BA687B6AB2FBF3F37B617A697B689A421A
:101EB00000D205E07B6A7A6802FB03F37B62E8E705
:101EC000BA687B6AB2FBF3F37B617B697A6A02FBD7
:101ED00003F3BA68D31ABB601B4A7B6913441B78AF
:101EE0001946F868FFF748FFFB68DB68002B08DB42
:101EF0007A6A7B68B2FBF3F37B627B6A002BDFD1EB
:101F000000E000BF7B6B03F00103002B17D03B6B9D
:101F1000002B14D00AE03B6B013B3B632021F868A7
:101F2000FFF72AFFFB68DB68002B07DB3B6B002B0E
:101F300005D0FA693B6B9A42EDD300E000BF00BFC9
:101F40002837BD4680BD00BF8C9A000880B588B098
:101F500002AFF860B9607A603B60BB68002BB8BF25
:101F60005B423B6101237B6107E07B683A6992FB3E
:101F7000F3F33B617B6901337B617B683A699A4289
:101F8000F3DA3A687B699A4201D93B687B613B6A24
:101F9000002B0AD0BB68002B04DB7B6A03F0040330
:101FA000002B02D03B6A013B3B627B6A03F00203D9
:101FB000002B02D03B68002B1CD07B6A03F001038E
:101FC000002B17D13B6A002B14D00AE03B6A013B7F
:101FD0003B622021F868FFF7CFFEFB68DB68002B2F
:101FE00007DB3B6A002B05D07A693B6A9A42EDD346
:101FF00000E000BFFB68DB68002B4ADBBB68002BFE
:1020000007DABB685B42BB602D21F868FFF7B4FEBE
:1020100008E07B6A03F00403002B03D02B21F8684F
:10202000FFF7AAFEFB68DB68002B32DB7B6A03F05C
:102030000203002B1FD07B6A03F00103002B1AD18F
:102040003B68002B17D13B6A002B14D00AE03B6A97
:10205000013B3B623021F868FFF78EFEFB68DB68CE
:10206000002B07DB3B6A002B05D07A693B6A9A425A
:10207000EDD300E000BFFB68DB68002B09DBB9682B
:102080007B6A01933B6A00933B687A68F868FFF7C4
:10209000B1FE00BF1837BD4680BD000080B5A2B0BC
:1020A00002AFF860B9607A6007F110033B65402326
:1020B0007B650023BB65FB683B660023FB65BB6853
:1020C0001B7887F87F30BB680133BB6097F87F309F
:1020D000002B00F09F8197F87F30252B40F08D81F9
:1020E00000233B670123BB67BB681B7887F87F3001
:1020F00097F87F30233B0D2B3ED801A252F823F0F6
:102100006921000879210008792100087921000857
:102110007921000879210008792100087921000837
:102120005921000879210008392100087921000887
:1021300079210008492100083B6F43F001033B6708
:10214000BB680133BB601AE03B6F43F002033B679F
:10215000BB680133BB6012E03B6F43F004033B6795
:10216000BB680133BB600AE03B6F43F008033B6789
:10217000BB680133BB6002E00023BB6700BFBB6FDD
:10218000002BB1D10023FB66BB681B7887F87F303A
:1021900097F87F302F2B12D997F87F30392B0ED834
:1021A000BB680133BB60FA6E13469B0013445B00AF
:1021B0001A4697F87F301344303BFB66E4E7002370
:1021C0007B67BB681B7887F87F3097F87F302E2BB2
:1021D0001DD1BB680133BB60BB681B7887F87F30BB
:1021E00097F87F302F2B12D997F87F30392B0ED8E4
:1021F000BB680133BB607A6F13469B0013445B00DE
:102200001A4697F87F301344303B7B67E4E7BB689E
:102210001B7887F87F3097F87F306C2B03D097F8C6
:102220007F30682B07D1BB680133BB60BB681B786C
:1022300087F87F30EFE797F87F30252B00F0D180CB
:10224000252BC0F2D580782B00F3D280582BC0F21A
:10225000CF80583B202B00F2CB8001A252F823F014
:1022600057230008F1230008F1230008F123000898
:10227000F1230008F1230008F1230008F1230008EE
:10228000F1230008F1230008F1230008E5220008EB
:102290000B230008F1230008F1230008F1230008B4
:1022A000F1230008F1230008F1230008F1230008BE
:1022B000F1230008F1230008F1230008F1230008AE
:1022C000BD230008F1230008F12300087D23000846
:1022D000F123000831230008F1230008F12300084E
:1022E000572300087B681B68191D7A6811601B68FA
:1022F000BB67BB6F87F8673097F8672007F150031B
:1023000011461846FFF738FD73E07B681B68191DFE
:102310007A6811601B68BB6707F150003B6F01933F
:10232000FB6E00937B6F0A22B96FFFF70FFE60E030
:102330007B681B68191D7A6811601B68BB67B96FE1
:1023400007F150003B6F0193FB6E00937B6F0A22F5
:10235000FFF750FD4DE07B681B68191D7A6811601E
:102360001B68BB67B96F07F150003B6F0193FB6EB1
:1023700000937B6F1022FFF73DFD3AE07B681B68FE
:10238000191D7A6811601B68BB66BB6E1B7887F8E5
:102390007F30BB6E0133BB6697F87F30002B0BD0CC
:1023A00097F87F2007F1500311461846FFF7E4FC29
:1023B000FB6D002BE9DA1CE000BF1AE07B681B68AC
:1023C000191D7A6811601B68BB67B96F07F150006F
:1023D000002301930823009308231022FFF70AFD2E
:1023E00007E007F1500325211846FFF7C5FC00E080
:1023F00000BFBB680133BB6007E097F87F2007F19F
:10240000500311461846FFF7B7FCFB6D002BBFF6D3
:1024100056AE00E000BFFB6D002B0DDDBB6D002B49
:1024200006D0BA6D07F110031946F86800F094F968
:10243000FB6DBA6D1344FB65FB6D18468037BD46D6
:1024400080BD00BF0EB480B585B000AF786007F1E5
:102450002003BB6007F108031A46F9697868FFF7A3
:102460001DFEF860FB6818461437BD46BDE8804085
:1024700003B0704780B582B000AF264B3B60A82206
:1024800000213868FDF7EEFE3B6803221A613B68C5
:1024900003225A613B68204A9A613B681F4ADA610D
:1024A0003B684FF480621A623B6800229A623B6884
:1024B00000225A623B680022DA623B68164A1A66BA
:1024C0003B68174A5A663B6810229A663B680022AE
:1024D0001A673B680022DA663B6800225A67BFF33E
:1024E0005F8F00237B600CE07B68C3F10F030D4A14
:1024F000D15C3A687B6813440A461A707B680133E2
:102500007B607B680F2BEFD9BFF35F8F00BF08376D
:10251000BD4680BD58070020F09900080008002043
:10252000000C00209C9A000880B58AB000AFF860CB
:10253000B9607A6000233B62FB68DB68FB61FB6883
:102540001B69BB61BA69FB699A4205D9BA69FB6923
:10255000D31A013B7B6207E0FB689A68B969FB69A3
:10256000CB1A1344013B7B62FB689A68FB69D31A60
:102570007A6A934228BF13467B627A6A7B689342E9
:1025800028BF13467B62FB685A68FB6913447B6172
:102590007A6AB968786907F087F93A6A7B6A1344FE
:1025A0003B62BA687B6A1344BB607A687B6AD31A61
:1025B0007B60FA697B6A1344FB61FB689B68FA697C
:1025C0009A4201D10023FB61BFF35F8FFB68FA6978
:1025D000DA607B68002BB2D13B6A18462837BD46CB
:1025E00080BD80B588B000AFF860B9607A60FB68E4
:1025F000DB68FB61FB689A68FB69D31ABB61BA6947
:102600007B689A4211D9FB685A68FB6913443B61A5
:102610007A68B968386907F047F9BFF35F8FFA69DC
:102620007B681A44FB68DA601FE0BB697B61FB686A
:102630005A68FB6913443B617A69B968386907F0E5
:1026400033F97A68BB69D31A7B61FB685B683B61CD
:10265000BA68BB6913447A691946386907F024F9E6
:10266000BFF35F8FFB687A69DA6000BF2037BD4631
:1026700080BD80B487B000AF78607B681B693B6128
:102680007B68DB68FB603A69FB689A4208D87B6824
:102690009A68FB68D21A3B691344013B7B6104E0F2
:1026A0003A69FB68D31A013B7B617B6918461C378A
:1026B000BD465DF8047B704780B588B000AFF86018
:1026C000B9607A60BB68BB61FB685A1C13465B004B
:1026D0001344DB001F4A13447B617B695B69022B57
:1026E00029D0022B2ED8002B02D0012B13D029E0A9
:1026F0007869FFF7BEFF38613A697B689A4202D277
:102700000023FB6121E07B68FB617A68B969786925
:10271000FFF767FF19E07869FFF7ABFF38617A6868
:102720003B69934228BF1346FB61FA69B96978692E
:10273000FFF757FF09E07A68B9697869FFF7F4FE97
:10274000F86102E00023FB6100BFFB6918462037F7
:10275000BD4680BD5807002080B588B000AFF86046
:10276000B9607A600E4BFB61FB691B78DBB2002B12
:1027700001D1FFF77FFEEFF311834FF0200181F3CA
:102780001188BB617A68B968F868FFF795FF7861CE
:10279000BB6983F311887B6918462037BD4680BD2D
:1027A00058070020B0B58EB000AF144B07F11C04E1
:1027B0001D460FCD0FC495E8070084E8070007F118
:1027C0001C030021184606F02CFA03460C4A13603D
:1027D0000C4B3C461D460FCD0FC495E8070084E81E
:1027E00007003B460021184606F01BFA0346064A3E
:1027F000136000BF3837BD46B0BD00BF089A00085F
:10280000100C0020309A0008140C002080B582B013
:1028100000AF786000F021F80A2006F04EFA00BF01
:10282000F8E780B582B000AF7860FEF73DF80A2087
:1028300006F043FA00BFF8E780B500AF72B600BFFC
:10284000A820FDF729FE00F0DDF800F011F8FFF7F1
:10285000A9FF62B600BF00BF80BD80B500AF00F029
:1028600051F900F093F8FEF7FFFC00BF80BD0000B7
:1028700080B5B4B000AF07F16803682200211846A4
:10288000FDF7F0FC354BBB66354B3B67354B7B6743
:10289000354BFB674FF08043C7F89030314BC7F89A
:1028A0009C30314BC7F8A4300423C7F8B8304FF43C
:1028B0008053A7F8BC304FF40053A7F8BE30012373
:1028C00087F8C030294BC7F8C430294BC7F8C83047
:1028D000284BC7F8CC303B46682200211846FDF74C
:1028E000C1FC1E4B3B601E4BBB60234BFB601E4B71
:1028F0007B614FF08043BB621A4B7B631A4BFB63D7
:1029000008233B654FF40043A7F854304FF480434D
:10291000A7F85630012387F85830144BFB65144B49
:102920003B66144B7B6607F168031846FEF7E0FB35
:102930000346124A13603B461846FEF7D9FB03468E
:102940000F4A13600C210F48FEF782FF03460E4A20
:10295000136000BFD037BD4680BD00BF000070428D
:102960000000604000803B4600803B45240F002073
:102970006C0F0020000402400000E145180C00200C
:102980001C0C00204C9A0008200C002080B500AFE1
:10299000184B1B6818491846FEF7A2FFFEF718FCF3
:1029A000154B93ED007A144BD3ED026AB0EE006A3A
:1029B000C6EE867A77EE277A104B1B68B0EE087A5F
:1029C00067EE877AC3ED347A0B4B93ED007A0A4BAE
:1029D000D3ED026AB0EE006AC6EE867A77EE677AC9
:1029E000074B1B68B0EE087A67EE877AC3ED347A3E
:1029F00000BF80BD200C0020240C0020180C0020FB
:102A00001C0C002080B500AF0A48FEF775FE034697
:102A1000094A13600948FEF7FBFF0346084A1360A2
:102A20000C210848FEF7C6FE0346074A136000BFA4
:102A300080BD00BFB40F0020300C0020FC0F002030
:102A4000440C0020549A0008340C002080B400AFDD
:102A5000254B1B689B7A022B04D0234B1B689B7A67
:102A6000012B28D1214B1B6803334FF000021A6061
:102A70001E4B1B6807334FF000021A601B4B1B688C
:102A80000B334FF000021A60174B1B68B3F902308A
:102A900007EE903AF8EEE77A154BC3ED007A124B49
:102AA0001B68B3F9003007EE903AF8EEE77A104B66
:102AB000C3ED027A12E00D4B1B68D3F803300C4AC9
:102AC00013600A4B1B68D3F80730094A5360074B61
:102AD0001B68D3F80B30064A936000BF00BFBD46A9
:102AE0005DF8047B704700BF300C0020440C0020D0
:102AF000380C002080B400AF00BFBD465DF8047BF9
:102B00007047000080B500AFFFF7A0FFFFF7F2FFAE
:102B1000034B1B6803491846FEF70EFF00BF80BD3C
:102B2000340C0020380C002080B500AF03F016F8FC
:102B300000F01CF800F09EF800F070FA00F0DAFBEC
:102B400000F008FD00F032FD00F02CFB00F0DAFA96
:102B500000F04AF900F07EF900F09EFAFFF76CFEF3
:102B600000F01EF906F056F800BFFDE780B594B0FE
:102B700000AF07F12003302200211846FDF772FB59
:102B800007F10C0300221A605A609A60DA601A6139
:102B90000023BB60294B1B6C284A43F0805313640D
:102BA000264B1B6C03F08053BB60BB6800237B602B
:102BB000234B1B68224A43F480431360204B1B685D
:102BC00003F480437B607B6809233B624FF48033CE
:102BD0007B6201237B630223BB634FF48003FB63AF
:102BE00006233B64A8237B640223BB640723FB64A6
:102BF00007F12003184601F0ABFB0346002B01D080
:102C000000F032F80F23FB6002233B6100237B615D
:102C10004FF4A053BB614FF48053FB6107F10C03E9
:102C20000521184601F00CFE0346002B01D000F0F0
:102C30001BF800BF5037BD4680BD00BF00380240C2
:102C40000070004080B582B000AF78607B681B6880
:102C5000044A934201D102F0A3FF00BF0837BD46EA
:102C600080BD00BF0020004080B400AF72B600BF3E
:102C700000BFFDE780B58CB000AF07F11C03002258
:102C80001A605A609A60DA601A610023BB61354BA2
:102C90001B6B344A43F002031363324B1B6B03F08C
:102CA0000203BB61BB6900237B612E4B1B6B2D4A6A
:102CB00043F0400313632B4B1B6B03F040037B611A
:102CC0007B6900233B61274B1B6B264A43F00103C2
:102CD0001363244B1B6B03F001033B613B6900232F
:102CE000FB60204B1B6B1F4A43F0040313631D4B17
:102CF0001B6B03F00403FB60FB680023BB60194BF4
:102D00001B6B184A43F480731363164B1B6B03F45D
:102D10008073BB60BB6800237B60124B1B6B114A46
:102D200043F0800313630F4B1B6B03F080037B6046
:102D30007B6800224FF470410B4802F011FA4FF407
:102D40007043FB6101233B6200237B620023BB6273
:102D500007F11C031946044802F066F800BF30373B
:102D6000BD4680BD003802400004024080B485B0FA
:102D700000AFF860B9607A60FB68074A1A60BB6808
:102D8000064A1A607B6880221A6000BF1437BD466D
:102D90005DF8047B704700BF4C0C0020A00C0020A5
:102DA000B0B588B000AF0A4B3C1D1D460FCD0FC417
:102DB00095E8070084E807003B1D0021184605F050
:102DC00030FF0346034A136000BF2037BD46B0BD45
:102DD000689A0008480C002080B582B000AF786087
:102DE000012005F06AFFFBE780B500AF174B184ADA
:102DF0001A60164B03225A60144B00229A60134B40
:102E00000022DA60114B4FF410221A610F4B4FF47D
:102E100000125A610D4B00221A760C4B00225A7692
:102E20000A4B00229A76094B0022DA76074B0022E1
:102E30001A77064B00225A77044800F01FFE03461B
:102E4000002B01D0FFF710FF00BF80BDA00E0020B7
:102E50000064004080B500AF174B184A1A60164B4B
:102E600003225A60144B00229A60134B0022DA604E
:102E7000114B4FF410221A610F4B4FF400125A619C
:102E80000D4B00221A760C4B00225A760A4B002278
:102E90009A76094B0022DA76074B00221A77064B06
:102EA00000225A77044800F0E9FD0346002B01D0C8
:102EB000FFF7DAFE00BF80BDC80E002000680040AA
:102EC00080B58CB000AF786007F11C0300221A6057
:102ED0005A609A60DA601A617B681B684A4A9342BA
:102EE00046D14A4B1B680133484A1360474B1B6865
:102EF000012B0DD10023BB61454B1B6C444A43F0B1
:102F000000731364424B1B6C03F00073BB61BB691D
:102F100000237B613E4B1B6B3D4A43F0020313636E
:102F20003B4B1B6B03F002037B617B694FF44073E7
:102F3000FB6102233B6200237B620323BB62092304
:102F4000FB6207F11C031946324801F06DFF0022B5
:102F50000521142002F0D8FD142002F0F1FD00221A
:102F60000521152002F0D0FD152002F0E9FD47E013
:102F70007B681B68284A934242D100233B61244B63
:102F80001B6C234A43F080631364214B1B6C03F0DA
:102F900080633B613B691D4B1B6801331B4A136017
:102FA0001A4B1B68012B0DD10023FB60184B1B6CC7
:102FB000174A43F000731364154B1B6C03F0007346
:102FC000FB60FB680023BB60114B1B6B104A43F096
:102FD000020313630E4B1B6B03F00203BB60BB6861
:102FE0006023FB6102233B6200237B620323BB62FD
:102FF0000923FB6207F11C031946064801F014FF80
:1030000000BF3037BD4680BD00640040F00E002098
:1030100000380240000402400068004080B582B0E1
:1030200000AF00237B601B4B1B6B1A4A43F48003E9
:103030001363184B1B6B03F480037B607B680023D6
:103040003B60144B1B6B134A43F400131363114B87
:103050001B6B03F400133B603B68002205210C202E
:1030600002F052FD0C2002F06BFD002205213920F8
:1030700002F04AFD392002F063FD002205214520BF
:1030800002F042FD452002F05BFD00BF0837BD465F
:1030900080BD00BF0038024080B500AF064B074A34
:1030A0001A60054802F09CFD0346002B01D0FFF793
:1030B000DBFD00BF80BD00BFF40E002000080650FD
:1030C00080B485B000AF78607B681B680B4A934280
:1030D0000DD10023FB600A4B5B6B094A43F04003B0
:1030E0005363074B5B6B03F04003FB60FB6800BF5F
:1030F0001437BD465DF8047B704700BF00080650DA
:103100000038024080B500AF0F4B104A1A600E4BDA
:1031100000225A600C4B7C229A600B4B40F67F4297
:10312000DA60094B00221A61074B00225A61064BF4
:1031300000229A61044802F07DFD0346002B01D075
:10314000FFF792FD00BF80BD040F00200028004063
:1031500080B586B000AF786007F1080300221A60DE
:103160005A609A60DA607B681B680C4A934211D1FE
:103170000223BB604FF400737B6107F1080318461C
:1031800001F070FD0346002B01D0FFF76DFD044BED
:1031900001221A6000BF1837BD4680BD00280040DC
:1031A0003C0E474280B592B000AF07F140030022C9
:1031B0001A605A6007F1240300221A605A609A606C
:1031C000DA601A615A619A613B1D2022002118467B
:1031D000FDF748F8454B464A1A60444BA7225A600F
:1031E000424B00229A60414B44F61F62DA603F4B2B
:1031F00000221A613D4B00225A613C4B00229A6129
:103200003A4802F0E7FE0346002B01D0FFF72CFD01
:1032100000233B6400237B6407F1400319463348D5
:1032200003F0DAFC0346002B01D0FFF71DFD6023FD
:103230007B620023BB620023FB6200233B6300230D
:103240007B630023BB630023FB6307F1240300229D
:103250001946264803F054F90346002B01D0FFF726
:1032600003FD07F1240304221946204803F048F91E
:103270000346002B01D0FFF7F7FC07F124030822D7
:1032800019461A4803F03CF90346002B01D0FFF71A
:10329000EBFC07F124030C221946144803F030F923
:1032A0000346002B01D0FFF7DFFC00237B600023E7
:1032B000BB600023FB6000233B6100237B614FF474
:1032C0000053BB6100233B623B1D1946074803F0D6
:1032D000FFFC0346002B01D0FFF7C6FC034800F0BB
:1032E000D7F800BF4837BD4680BD00BF240F00207F
:1032F0000000014080B592B000AF07F1400300220A
:103300001A605A6007F1240300221A605A609A601A
:10331000DA601A615A619A613B1D20220021184629
:10332000FCF7A0FF394B3A4A1A60384BA7225A6083
:10333000364B00229A60354B40F2CF72DA60334B45
:1033400000221A61314B00225A61304B00229A61EF
:103350002E4802F03FFE0346002B01D0FFF784FC0D
:1033600000233B6400237B6407F140031946274890
:1033700003F032FC0346002B01D0FFF775FC6023FD
:103380007B620023BB620023FB6200233B630023BC
:103390007B630023BB630023FB6307F12403042248
:1033A00019461A4803F0ACF80346002B01D0FFF78A
:1033B0005BFC07F1240308221946144803F0A0F827
:1033C0000346002B01D0FFF74FFC00237B60002356
:1033D000BB600023FB6000233B6100237B614FF453
:1033E0000053BB6100233B623B1D1946074803F0B5
:1033F0006FFC0346002B01D0FFF736FC034800F0BA
:1034000047F800BF4837BD4680BD00BF6C0F0020A5
:103410000004014080B584B000AF78607B681B6811
:10342000184A93420ED10023FB60174B5B6C164A7F
:1034300043F001035364144B5B6C03F00103FB6026
:10344000FB681AE07B681B68104A934215D1002381
:10345000BB600D4B5B6C0C4A43F0020353640A4B98
:103460005B6C03F00203BB60BB68002205212D20CA
:1034700002F04AFB2D2002F063FB00BF1037BD466F
:1034800080BD00BF00000140003802400004014040
:1034900080B58AB000AF786007F1140300221A608B
:1034A0005A609A60DA601A617B681B68244A93420A
:1034B0001FD100233B61234B1B6B224A43F00103C6
:1034C0001363204B1B6B03F001033B613B694FF41B
:1034D00070637B610223BB610023FB6100233B62BD
:1034E00001237B6207F114031946174801F09CFC85
:1034F00022E07B681B68154A93421DD10023FB60C4
:10350000104B1B6B0F4A43F4807313630D4B1B6B03
:1035100003F48073FB60FB68C0237B610223BB6103
:103520000023FB6100233B6203237B6207F114034A
:103530001946074801F078FC00BF2837BD4680BD1A
:103540000000014000380240000002400004014039
:103550000020024080B500AF114B124A1A60104B98
:10356000114A5A600E4B4FF480529A600C4B002265
:10357000DA600B4B4FF480621A61094B0C225A61DE
:10358000074B00229A61064B0022DA61044803F0DF
:1035900005FC0346002B01D0FFF766FB00BF80BD92
:1035A000B40F002000480040A086010080B500AFA5
:1035B000114B124A1A60104B4FF4E1325A600E4B15
:1035C00000229A600C4B0022DA600B4B00221A6139
:1035D000094B0C225A61084B00229A61064B0022CB
:1035E000DA61054803F0DAFB0346002B01D0FFF750
:1035F0003BFB00BF80BD00BFFC0F0020001401405A
:1036000080B58CB000AF786007F11C0300221A600F
:103610005A609A60DA601A617B681B68804A93423C
:1036200063D10023BB617F4B1B6C7E4A43F4802334
:1036300013647C4B1B6C03F48023BB61BB690023C8
:103640007B61784B1B6B774A43F004031363754B24
:103650001B6B03F004037B617B694FF44063FB61E8
:1036600002233B6200237B620323BB620723FB62CE
:1036700007F11C0319466C4801F0D6FB6B4B6C4AF2
:103680001A606A4B4FF000625A60684B00229A60E1
:10369000664B0022DA60654B4FF480621A61634B1F
:1036A00000225A61614B00229A61604B0022DA616C
:1036B0005E4B00221A625D4B00225A625B4801F0A9
:1036C00069FD0346002B01D0FFF7CEFA7B68574A0D
:1036D000DA63564A7B68936300220521272002F0B3
:1036E00013FA272002F02CFA96E07B681B68514AF7
:1036F000934240F0918000233B614A4B5B6C494A06
:1037000043F020035364474B5B6C03F020033B61A1
:103710003B690023FB60434B1B6B424A43F0400371
:103720001363404B1B6B03F04003FB60FB684FF4DB
:103730008443FB6102233B6200237B620323BB6261
:103740000823FB6207F11C0319463B4801F06CFBA0
:103750003A4B3B4A1A60394B4FF020625A60374B64
:1037600000229A60354B0022DA60344B4FF48062BD
:103770001A61324B00225A61304B00229A612F4B62
:103780000022DA612D4B00221A622C4B00225A6271
:103790002A4801F0FFFC0346002B01D0FFF764FA32
:1037A0007B68264ADA63254A7B689363254B264A61
:1037B0001A60244B4FF020625A60224B40229A60DC
:1037C000204B0022DA601F4B4FF480621A611D4BC0
:1037D00000225A611B4B00229A611A4B0022DA61C7
:1037E000184B00221A62174B00225A62154801F04A
:1037F000D1FC0346002B01D0FFF736FA7B68114A53
:103800009A63104A7B68936300220521472002F0E7
:103810007BF9472002F094F900BF3037BD4680BDE8
:1038200000480040003802400008024044100020D8
:10383000286002400014014000180240A41000203B
:103840002864024004110020A064024080B400AF4C
:1038500000BFFDE780B400AF00BFFDE780B400AF5C
:1038600000BFFDE780B400AF00BFFDE780B400AF4C
:1038700000BFFDE780B400AF00BFBD465DF8047B2C
:103880007047000080B500AF024801F01BFE00BF8A
:1038900080BD00BF4410002080B500AF024800F09A
:1038A00032FB00BF80BD00BFA00E002080B500AF7E
:1038B000024800F028FB00BF80BD00BFA00E002022
:1038C00080B500AF024803F017FB00BF80BD00BF0A
:1038D000B40F002080B500AF034802F021FD03487B
:1038E00002F01EFD00BF80BD6C0F0020641100209F
:1038F00080B500AF024801F0E5FD00BF80BD00BF0C
:10390000A410002080B500AF024801F0DBFD00BF2D
:1039100080BD00BF0411002080B500AF024803F055
:10392000EBFA00BF80BD00BFFC0F002080B582B065
:1039300000AF00237B60124B5B6C114A43F4804361
:1039400053640F4B5B6C03F480437B607B68002304
:103950003B600B4B1B6C0A4A43F080531364084BCB
:103960001B6C03F080533B603B6800220F216FF01B
:10397000010002F0C9F800BF0837BD4680BD00BF96
:103980000038024080B58EB000AF78600023FB6243
:103990000023BB620023FB60334B1B6C324A43F4B1
:1039A00080731364304B1B6C03F48073FB60FB6803
:1039B00007F1100207F114031146184601F020F92F
:1039C0003B6AFB62FB6A002B03D101F0F1F87863DC
:1039D00004E001F0EDF803465B007B637B6B234A58
:1039E000A2FB03239B0C013BBB62214B214A1A60C3
:1039F0001F4B40F2E732DA601D4ABB6A53601C4B32
:103A000000221A611A4B00229A60194B00229A6117
:103A1000174802F015FA034687F8333097F8333029
:103A2000002B1BD1124802F065FA034687F83330A9
:103A300097F83330002B11D12D2002F081F87B68EC
:103A40000F2B08D8002279682D2002F05DF80A4A71
:103A50007B68136002E0012387F8333097F8333036
:103A600018463837BD4680BD0038024083DE1B4310
:103A700064110020002000408001002080B584B047
:103A800000AF78607B68002B01D10123EDE07B68FB
:103A900093F82030DBB2002B02D17868FFF710FAE0
:103AA0007B681B681A687B681B6842F001021A6019
:103AB00002F08AF8F86012E002F086F80246FB682D
:103AC000D31A0A2B0BD97B685B6A43F400327B68FC
:103AD0005A627B68052283F820200123C5E07B68B9
:103AE0001B685B6803F00103002BE5D07B681B6853
:103AF0001A687B681B6822F002021A6002F064F800
:103B0000F86012E002F060F80246FB68D31A0A2B54
:103B10000BD97B685B6A43F400327B685A627B682E
:103B2000052283F8202001239FE07B681B685B68E7
:103B300003F00203002BE5D17B681B7E012B08D12B
:103B40007B681B681A687B681B6842F080021A60F9
:103B500007E07B681B681A687B681B6822F080029C
:103B60001A607B685B7E012B08D17B681B681A6832
:103B70007B681B6842F040021A6007E07B681B68A4
:103B80001A687B681B6822F040021A607B689B7E83
:103B9000012B08D17B681B681A687B681B6842F0A0
:103BA00020021A6007E07B681B681A687B681B6844
:103BB00022F020021A607B68DB7E012B08D17B6833
:103BC0001B681A687B681B6822F010021A6007E005
:103BD0007B681B681A687B681B6842F010021A60D9
:103BE0007B681B7F012B08D17B681B681A687B6888
:103BF0001B6842F008021A6007E07B681B681A68BD
:103C00007B681B6822F008021A607B685B7F012BCF
:103C100008D17B681B681A687B681B6842F0040245
:103C20001A6007E07B681B681A687B681B6822F0D3
:103C300004021A607B689A687B68DB681A437B68B9
:103C40001B691A437B685B6942EA03017B685B6816
:103C50005A1E7B681B680A43DA617B6800225A623D
:103C60007B68012283F82020002318461037BD46C8
:103C700080BD80B487B000AFF860B9607A603B6007
:103C8000FB6893F82030FB75FB7D012B03D0FB7D97
:103C9000022B40F00381BB68002B0ED1FB681B6830
:103CA000DB6803F00303002B16D1FB685B6A43F467
:103CB0000012FB685A620123F7E0FB681B681B696E
:103CC00003F00303002B07D1FB685B6A43F4001287
:103CD000FB685A620123E8E0FB681A68BB681B3383
:103CE0001B0113441B6803F004027B689A607B6825
:103CF0009B68002B0CD1FB681A68BB681B331B0147
:103D000013441B685B0DC3F30A027B681A600BE067
:103D1000FB681A68BB681B331B0113441B68DB0874
:103D200023F060427B685A60FB681A68BB681B33EB
:103D30001B0113441B6803F002027B68DA60FB6816
:103D40001A68BB681B331B01134404331B6803F060
:103D50000803002B03D07B6808221A610BE0FB6884
:103D60001A68BB681B331B01134404331B6803F040
:103D70000F027B681A61FB681A68BB681B331B0162
:103D8000134404331B681B0ADAB27B689A61FB6830
:103D90001A68BB681B331B01134404331B681B0CDC
:103DA0009AB27B685A61FB681A68BB681B011344AE
:103DB00003F5DC731B68DAB23B681A70FB681A689B
:103DC000BB681B01134403F5DC731B681A0A3B68CC
:103DD0000133D2B21A70FB681A68BB681B01134426
:103DE00003F5DC731B681A0C3B680233D2B21A70FD
:103DF000FB681A68BB681B01134403F5DC731B687E
:103E00001A0E3B680333D2B21A70FB681A68BB689B
:103E10001B01134403F5DE731A683B680433D2B206
:103E20001A70FB681A68BB681B01134403F5DE7344
:103E30001B681A0A3B680533D2B21A70FB681A680D
:103E4000BB681B01134403F5DE731B681A0C3B6847
:103E50000633D2B21A70FB681A68BB681B011344A0
:103E600003F5DE731B681A0E3B680733D2B21A7073
:103E7000BB68002B08D1FB681B68DA68FB681B680D
:103E800042F02002DA6007E0FB681B681A69FB68F1
:103E90001B6842F020021A61002306E0FB685B6A9F
:103EA00043F48022FB685A62012318461C37BD4642
:103EB0005DF8047B704780B485B000AF78603960EE
:103EC0000023FB607B6893F82030FB72FB7A012BA8
:103ED00002D0FB7A022B0FD13B68002B06D17B6806
:103EE0001B68DB6803F00303FB6005E07B681B686D
:103EF0001B6903F00303FB60FB6818461437BD46DB
:103F00005DF8047B704780B58AB000AF786000230D
:103F10007B627B681B685B693B627B681B685B68D4
:103F2000FB617B681B689B68BB617B681B68DB6807
:103F30007B617B681B681B693B617B681B689B69B5
:103F4000FB603B6A03F00103002B7CD0BB6903F0EC
:103F50000103002B23D07B681B6801229A60BB6998
:103F600003F00203002B03D0786800F083F916E019
:103F7000BB6903F00403002B04D07B6A43F40063A5
:103F80007B620CE0BB6903F00803002B04D07B6A62
:103F900043F480537B6202E0786800F089F9BB69E2
:103FA00003F48073002B24D07B681B684FF480726D
:103FB0009A60BB6903F40073002B03D0786800F0AB
:103FC00063F916E0BB6903F48063002B04D07B6ABD
:103FD00043F400537B620CE0BB6903F40063002BE5
:103FE00004D07B6A43F480437B6202E0786800F08F
:103FF00069F9BB6903F48033002B24D07B681B680C
:104000004FF480329A60BB6903F40033002B03D075
:10401000786800F043F916E0BB6903F48023002BB5
:1040200004D07B6A43F400437B620CE0BB6903F479
:104030000023002B04D07B6A43F480337B6202E0D0
:10404000786800F049F93B6A03F00803002B0CD0B4
:104050007B6903F01003002B07D07B6A43F40073E5
:104060007B627B681B681022DA603B6A03F0040302
:10407000002B0BD07B6903F00803002B06D07B6874
:104080001B680822DA60786800F030F93B6A03F0B8
:104090000203002B09D07B681B68DB6803F0030375
:1040A000002B02D07868FCF797FC3B6A03F04003D2
:1040B000002B0CD03B6903F01003002B07D07B6A68
:1040C00043F480637B627B681B6810221A613B6A41
:1040D00003F02003002B0BD03B6903F00803002BF7
:1040E00006D07B681B6808221A61786800F008F91E
:1040F0003B6A03F01003002B09D07B681B681B6927
:1041000003F00303002B02D07868FCF771FC3B6AD4
:1041100003F40033002B0BD0FB6903F01003002BDA
:1041200006D07B681B6810225A60786800F0F2F8AD
:104130003B6A03F48033002B0BD0FB6903F00803C8
:10414000002B06D07B681B6808225A60786800F054
:10415000EBF83B6A03F40043002B7BD0FB6903F0D0
:104160000403002B72D03B6A03F48073002B08D049
:10417000FB6803F00103002B03D07B6A43F00103CB
:104180007B623B6A03F40073002B08D0FB6803F0EA
:104190000203002B03D07B6A43F002037B623B6A7D
:1041A00003F48063002B08D0FB6803F00403002BAA
:1041B00003D07B6A43F004037B623B6A03F4006331
:1041C000002B43D0FB6803F07003002B3ED0FB684C
:1041D00003F07003602B2BD0602B2ED8502B22D0F5
:1041E000502B2AD8402B19D0402B26D8302B10D05A
:1041F000302B22D8102B02D0202B05D01DE07B6A5B
:1042000043F008037B6219E07B6A43F010037B6292
:1042100014E07B6A43F020037B620FE07B6A43F08B
:1042200040037B620AE07B6A43F080037B6205E027
:104230007B6A43F480737B6200E000BF7B681B688D
:104240009A697B681B6822F070029A617B681B6820
:1042500004225A607B6A002B08D07B685A6A7B6A0A
:104260001A437B685A62786800F068F800BF283704
:10427000BD4680BD80B483B000AF786000BF0C370E
:10428000BD465DF8047B704780B483B000AF7860B2
:1042900000BF0C37BD465DF8047B704780B483B027
:1042A00000AF786000BF0C37BD465DF8047B7047F7
:1042B00080B483B000AF786000BF0C37BD465DF8B6
:1042C000047B704780B483B000AF786000BF0C37C8
:1042D000BD465DF8047B704780B483B000AF786062
:1042E00000BF0C37BD465DF8047B704780B483B0D7
:1042F00000AF786000BF0C37BD465DF8047B7047A7
:1043000080B483B000AF786000BF0C37BD465DF865
:10431000047B704780B483B000AF786000BF0C3777
:10432000BD465DF8047B704780B483B000AF786011
:1043300000BF0C37BD465DF8047B704780B483B086
:1043400000AF786000BF0C37BD465DF8047B704756
:1043500080B586B000AF78607B68002B01D1012367
:1043600067E27B681B6803F00103002B75D0884B64
:104370009B6803F00C03042B0CD0854B9B6803F067
:104380000C03082B12D1824B5B6803F48003B3F556
:10439000800F0BD17E4B1B6803F40033002B5BD0E6
:1043A0007B685B68002B57D1012342E27B685B6826
:1043B000B3F5803F06D1764B1B68754A43F48033D2
:1043C00013601DE07B685B68B3F5A02F0CD1704BC8
:1043D0001B686F4A43F4802313606D4B1B686C4A63
:1043E00043F4803313600BE0694B1B68684A23F485
:1043F00080331360664B1B68654A23F48023136087
:104400007B685B68002B13D001F0DEFB386108E0AD
:1044100001F0DAFB02463B69D31A642B01D903236E
:1044200007E25B4B1B6803F40033002BF0D014E071
:1044300001F0CAFB386108E001F0C6FB02463B69A7
:10444000D31A642B01D90323F3E1514B1B6803F406
:104450000033002BF0D100E000BF7B681B6803F045
:104460000203002B63D04A4B9B6803F00C03002B24
:104470000BD0474B9B6803F00C03082B1CD1444B1B
:104480005B6803F48003002B16D1414B1B6803F0DB
:104490000203002B05D07B68DB68012B01D00123D0
:1044A000C7E13B4B1B6823F0F8027B681B69DB000C
:1044B000374913430B603AE07B68DB68002B20D060
:1044C000344B01221A6001F07FFB386108E001F0F3
:1044D0007BFB02463B69D31A022B01D90323A8E1D7
:1044E0002B4B1B6803F00203002BF0D0284B1B68FA
:1044F00023F0F8027B681B69DB00254913430B603E
:1045000015E0244B00221A6001F05EFB386108E0E0
:1045100001F05AFB02463B69D31A022B01D903234F
:1045200087E11B4B1B6803F00203002BF0D17B6873
:104530001B6803F00803002B36D07B685B69002BF7
:1045400016D0154B01221A6001F03EFB386108E0DD
:1045500001F03AFB02463B69D31A022B01D903232F
:1045600067E10B4B5B6F03F00203002BF0D01BE005
:10457000094B00221A6001F027FB38610EE001F0C0
:1045800023FB02463B69D31A022B07D9032350E1D0
:104590000038024000004742800E4742884B5B6F64
:1045A00003F00203002BEAD17B681B6803F00403CD
:1045B000002B00F097800023FB75814B1B6C03F0F0
:1045C0008053002B0FD10023BB607D4B1B6C7C4ABA
:1045D00043F0805313647A4B1B6C03F08053BB6031
:1045E000BB680123FB75774B1B6803F48073002BBA
:1045F00018D1744B1B68734A43F48073136001F045
:10460000E3FA386108E001F0DFFA02463B69D31AA9
:10461000022B01D903230CE16A4B1B6803F480735E
:10462000002BF0D07B689B68012B06D1644B1B6F7D
:10463000634A43F0010313671CE07B689B68052B0A
:104640000CD15F4B1B6F5E4A43F0040313675C4B56
:104650001B6F5B4A43F0010313670BE0584B1B6F62
:10466000574A23F001031367554B1B6F544A23F03D
:10467000040313677B689B68002B15D001F0A4FA34
:1046800038610AE001F0A0FA02463B69D31A41F210
:104690008832934201D90323CBE0494B1B6F03F0CF
:1046A0000203002BEED014E001F08EFA38610AE02C
:1046B00001F08AFA02463B69D31A41F288329342EA
:1046C00001D90323B5E03E4B1B6F03F00203002B1F
:1046D000EED1FB7D012B05D1394B1B6C384A23F001
:1046E000805313647B689B69002B00F0A180344BDE
:1046F0009B6803F00C03082B5CD07B689B69022B42
:1047000041D1314B00221A6001F05EFA386108E0B5
:1047100001F05AFA02463B69D31A022B01D903234E
:1047200087E0274B1B6803F00073002BF0D17B68F8
:10473000DA697B681B6A1A437B685B6A9B011A43D0
:104740007B689B6A5B08013B1B041A437B68DB6A3E
:104750001B061B4913434B601B4B01221A6001F0DF
:1047600033FA386108E001F02FFA02463B69D31AA8
:10477000022B01D903235CE0114B1B6803F000738B
:10478000002BF0D054E0104B00221A6001F01CFA0C
:10479000386108E001F018FA02463B69D31A022B8F
:1047A00001D9032345E0064B1B6803F00073002B7F
:1047B000F0D13DE07B689B69012B07D1012338E0F4
:1047C0000038024000700040600047421B4B5B68AD
:1047D000FB607B689B69012B28D0FB6803F4800297
:1047E0007B68DB699A4221D1FB6803F03F027B685A
:1047F0001B6A9A421AD1FA6847F6C07313407A6866
:10480000526A9201934211D1FB6803F440327B68F3
:104810009B6A5B08013B1B049A4207D1FB6803F0CB
:1048200070627B68DB6A1B069A4201D0012300E0BC
:10483000002318461837BD4680BD00BF003802402F
:1048400080B584B000AF786039607B68002B01D1FF
:104850000123CCE0684B1B6803F007033A689A42D7
:104860000CD9654B3A68D2B21A70634B1B6803F0DF
:1048700007033A689A4201D00123B8E07B681B68BD
:1048800003F00203002B20D07B681B6803F00403B5
:10489000002B05D0594B9B68584A43F4E053936072
:1048A0007B681B6803F00803002B05D0534B9B6803
:1048B000524A43F460439360504B9B6823F0F002EC
:1048C0007B689B684D4913438B607B681B6803F0D2
:1048D0000103002B44D07B685B68012B07D1474B59
:1048E0001B6803F40033002B19D101237FE07B68A0
:1048F0005B68022B03D07B685B68032B07D13F4BBF
:104900001B6803F00073002B09D101236FE03B4BC0
:104910001B6803F00203002B01D1012367E0374B32
:104920009B6823F003027B685B68344913438B6008
:1049300001F04AF9F8600AE001F046F90246FB6826
:10494000D31A41F28832934201D903234FE02B4B13
:104950009B6803F00C027B685B689B009A42EBD17A
:10496000254B1B6803F007033A689A420CD2224B8E
:104970003A68D2B21A70204B1B6803F007033A68FA
:104980009A4201D0012332E07B681B6803F00403E4
:10499000002B08D0194B9B6823F4E0527B68DB683E
:1049A000164913438B607B681B6803F00803002BD8
:1049B00009D0124B9B6823F460427B681B69DB00C3
:1049C0000E4913438B6000F021F802460B4B9B68A5
:1049D0001B0903F00F030A49CB5C22FA03F3094ACF
:1049E0001360094B1B681846FEF7CCFF00231846DE
:1049F0001037BD4680BD00BF003C02400038024079
:104A0000B89A000888010020800100202DE9B04FED
:104A100090B000AF00237B630023FB6300233B6364
:104A20000023BB63594B9B6803F00C03082B0DD08C
:104A3000082B00F2A180002B02D0042B03D09BE0B6
:104A4000534BBB639BE0534BBB6398E04F4B5B689E
:104A500003F03F037B634D4B5B6803F48003002B43
:104A600028D04A4B5B689B0900223B627A623B6A12
:104A7000C3F308000021474B03FB01F2002300FBB6
:104A800003F31344434AA0FB0212FA620A46BA62D5
:104A9000FA6A1344FB627B6B0022BB61FA61D7E9BF
:104AA0000623D7E90A01FBF773FB02460B461346C0
:104AB000FB6353E0354B5B689B0900223B617A61E5
:104AC0003B69C3F3080A4FF0000B52465B464FF0B8
:104AD00000004FF00001590141EAD2615001024645
:104AE0000B46B2EB0A0863EB0B094FF000024FF0E4
:104AF00000034FEA891343EA98634FEA8812B2EB46
:104B0000080463EB09054FF000024FF00003EB00CF
:104B100043EA5473E20014461D4614EB0A033B605B
:104B200045EB0B037B604FF000024FF00003D7E929
:104B3000004529468B02214643EA915321468A02C9
:104B4000104619467B6B0022BB60FA60D7E902234E
:104B5000FBF71EFB02460B461346FB630B4B5B68E1
:104B60001B0C03F0030301335B003B63FA6B3B6BED
:104B7000B2FBF3F3BB6302E0054BBB6300BFBB6B4F
:104B800018464037BD46BDE8B08F00BF0038024030
:104B90000024F400001BB70080B400AF034B1B6877
:104BA0001846BD465DF8047B704700BF88010020B1
:104BB00080B500AFFFF7F0FF0246054B9B689B0AEC
:104BC00003F007030349CB5C22FA03F3184680BDC8
:104BD00000380240C89A000880B500AFFFF7DCFF3C
:104BE0000246054B9B685B0B03F007030349CB5C54
:104BF00022FA03F3184680BD00380240C89A000824
:104C000080B483B000AF786039607B680F221A608F
:104C1000124B9B6803F003027B685A600F4B9B6842
:104C200003F0F0027B689A600C4B9B6803F4E0523F
:104C30007B68DA60094B9B68DB0803F4E0527B6811
:104C40001A61074B1B6803F007023B681A6000BF3C
:104C50000C37BD465DF8047B704700BF003802404A
:104C6000003C024080B586B000AF786000237B61D5
:104C700000233B617B681B6803F00103002B05D117
:104C80007B681B6803F00403002B35D0624B0022C5
:104C90001A6000F099FF786108E000F095FF024685
:104CA0007B69D31A022B01D90323B0E05B4B1B684D
:104CB00003F00063002BF0D17B685B689A017B688E
:104CC0009B681B0755491343C1F88430524B01229E
:104CD0001A6000F079FF786108E000F075FF024685
:104CE0007B69D31A022B01D9032390E04B4B1B683D
:104CF00003F00063002BF0D07B681B6803F0020315
:104D0000002B00F083800023FB60444B1B6C434A64
:104D100043F080531364414B1B6C03F08053FB60E2
:104D2000FB683F4B1B683E4A43F48073136000F0FE
:104D30004BFF786108E000F047FF02467B69D31A19
:104D4000022B01D9032362E0354B1B6803F4807307
:104D5000002BF0D0314B1B6F03F440733B613B6978
:104D6000002B2FD07B68DB6803F440733A699A42CA
:104D700028D02A4B1B6F23F440733B61294B01223F
:104D80001A60284B00221A60244A3B691367234BA0
:104D90001B6F03F00103012B14D100F015FF7861A4
:104DA0000AE000F011FF02467B69D31A41F2883213
:104DB000934201D903232AE0184B1B6F03F002032F
:104DC000002BEED07B68DB6803F44073B3F5407FC3
:104DD0000DD1124B9B6823F4F8127B68DB6823F03B
:104DE000704323F440730D4913438B6005E00B4B74
:104DF0009B680A4A23F4F8139360084B1A6F7B6888
:104E0000DB68C3F30B03054913430B670023184604
:104E10001837BD4680BD00BF6800474200380240D9
:104E200000700040400E474280B489B000AF786007
:104E3000396000237B6100233B610023BB610023B9
:104E4000FB616BE10122FB6902FA03F37B613B68C2
:104E50001B687A6913403B613A697B699A4240F06A
:104E60005A813B685B6803F00303012B05D03B6864
:104E70005B6803F00303022B30D17B689B68BB6146
:104E8000FB695B00032202FA03F3DB43BA691340B8
:104E9000BB613B68DA68FB695B0002FA03F3BA693D
:104EA0001343BB617B68BA699A607B685B68BB61CE
:104EB0000122FB6902FA03F3DB43BA691340BB61C9
:104EC0003B685B681B0903F00102FB6902FA03F30C
:104ED000BA691343BB617B68BA695A603B685B6817
:104EE00003F00303032B17D07B68DB68BB61FB690E
:104EF0005B00032202FA03F3DB43BA691340BB6190
:104F00003B689A68FB695B0002FA03F3BA691343D2
:104F1000BB617B68BA69DA603B685B6803F00303D6
:104F2000022B23D1FB69DA087B68083253F8223060
:104F3000BB61FB6903F007039B000F2202FA03F336
:104F4000DB43BA691340BB613B681A69FB6903F034
:104F500007039B0002FA03F3BA691343BB61FB69C1
:104F6000DA087B680832B96943F822107B681B684D
:104F7000BB61FB695B00032202FA03F3DB43BA69FE
:104F80001340BB613B685B6803F00302FB695B0095
:104F900002FA03F3BA691343BB617B68BA691A600A
:104FA0003B685B6803F44033002B00F0B4800023BF
:104FB000FB60604B5B6C5F4A43F4804353645D4B22
:104FC0005B6C03F48043FB60FB685B4AFB699B08F6
:104FD000023352F82330BB61FB6903F003039B00EB
:104FE0000F2202FA03F3DB43BA691340BB617B680B
:104FF000524A93422BD07B68514A934225D07B681A
:10500000504A93421FD07B684F4A934219D07B6825
:105010004E4A934213D07B684D4A93420DD07B6831
:105020004C4A934207D07B684B4A934201D10723F5
:105030000EE008230CE006230AE0052308E0042321
:1050400006E0032304E0022302E0012300E0002342
:10505000FA6902F0030292009340BA691343BB61FC
:105060003549FB699B080233BA6941F823203B4B61
:105070009B68BB613B69DB43BA691340BB613B681A
:105080005B6803F48013002B03D0BA693B691343B8
:10509000BB61324ABB699360304BDB68BB613B69E3
:1050A000DB43BA691340BB613B685B6803F40013E0
:1050B000002B03D0BA693B691343BB61274ABB6924
:1050C000D360264B5B68BB613B69DB43BA69134025
:1050D000BB613B685B6803F40033002B03D0BA6903
:1050E0003B691343BB611D4ABB6953601B4B1B6883
:1050F000BB613B69DB43BA691340BB613B685B68DA
:1051000003F48033002B03D0BA693B691343BB61BE
:10511000124ABB691360FB690133FB61FB690F2B0A
:105120007FF690AE00BF00BF2437BD465DF8047B1C
:10513000704700BF003802400038014000000240C4
:105140000004024000080240000C0240001002402F
:105150000014024000180240001C0240003C0140C4
:1051600080B483B000AF78600B467B8013467B70C1
:105170007B78002B03D07A887B689A6103E07B8878
:105180001A047B689A6100BF0C37BD465DF8047B4A
:105190007047000080B586B000AF786000237B6167
:1051A00000F012FD38617B68002B01D1012399E0EA
:1051B0007B68022283F835207B68002283F8342044
:1051C0007B681B681A687B681B6822F001021A6002
:1051D0000FE000F0F9FC02463B69D31A052B08D911
:1051E0007B6820225A657B68032283F835200323DD
:1051F00078E07B681B681B6803F00103002BE8D193
:105200007B681B681B687B617A69384B13407B6144
:105210007B685A687B689B681A437B68DB681A4323
:105220007B681B691A437B685B691A437B689B69CF
:105230001A437B68DB691A437B681B6A13437A69EC
:1052400013437B617B685B6A042B07D17B68DA6A56
:105250007B681B6B13437A6913437B617B681B6814
:105260007A691A607B681B685B697B617B6923F0E4
:1052700007037B617B685B6A7A6913437B617B68A8
:105280005B6A042B17D17B689B6A7A6913437B6145
:105290007B68DB6A002B0ED0786800F001FB0346C8
:1052A000002B08D07B6840225A657B68012283F876
:1052B0003520012316E07B681B687A695A6178689B
:1052C00000F0B8FA0346FB607B68DB6D3F229A4032
:1052D000FB689A607B6800225A657B68012283F82C
:1052E0003520002318461837BD4680BD3F8010F09A
:1052F00080B586B000AFF860B9607A603B6000238B
:10530000FB75FB689B6D3B61FB6893F83430012BA8
:1053100001D1022340E0FB68012283F83420FB68BE
:1053200093F83530DBB2012B2FD1FB68022283F8D2
:105330003520FB6800225A653B687A68B968F868CE
:1053400000F04AFAFB68DB6D3F229A403B699A60A5
:10535000FB681B681A68FB681B6842F016021A603B
:10536000FB681B6C002B07D0FB681B681A68FB6886
:105370001B6842F008021A60FB681B681A68FB6829
:105380001B6842F001021A6005E0FB68002283F806
:1053900034200223FB75FB7D18461837BD4680BDBF
:1053A00080B584B000AF78607B689B6DFB6000F0D7
:1053B0000BFCB8607B6893F83530DBB2022B08D069
:1053C0007B6880225A657B68002283F834200123A1
:1053D00052E07B681B681A687B681B6822F0160223
:1053E0001A607B681B685A697B681B6822F0800220
:1053F0005A617B681B6C002B03D17B689B6C002B74
:1054000007D07B681B681A687B681B6822F008025B
:105410001A607B681B681A687B681B6822F00102AF
:105420001A6013E000F0D0FB0246BB68D31A052BCC
:105430000CD97B6820225A657B68032283F83520CB
:105440007B68002283F83420032315E07B681B6807
:105450001B6803F00103002BE4D17B68DB6D3F2266
:105460009A40FB689A607B68012283F835207B684C
:10547000002283F83420002318461037BD4680BD33
:1054800080B483B000AF78607B6893F83530DBB2CE
:10549000022B04D07B6880225A6501230CE07B68D4
:1054A000052283F835207B681B681A687B681B68B7
:1054B00022F001021A60002318460C37BD465DF841
:1054C000047B704780B586B000AF78600023BB6076
:1054D0008E4B1B688E4AA2FB03239B0A7B617B6871
:1054E0009B6D3B613B691B68FB607B68DB6D082241
:1054F0009A40FB681340002B1AD07B681B681B681E
:1055000003F00403002B13D07B681B681A687B68C8
:105510001B6822F004021A607B68DB6D08229A4047
:105520003B699A607B685B6D43F001027B685A655A
:105530007B68DB6D01229A40FB681340002B12D080
:105540007B681B685B6903F08003002B0BD07B68D2
:10555000DB6D01229A403B699A607B685B6D43F08A
:1055600002027B685A657B68DB6D04229A40FB6807
:105570001340002B12D07B681B681B6803F00203EA
:10558000002B0BD07B68DB6D04229A403B699A604C
:105590007B685B6D43F004027B685A657B68DB6D5A
:1055A00010229A40FB681340002B43D07B681B6895
:1055B0001B6803F00803002B3CD07B68DB6D1022D6
:1055C0009A403B699A607B681B681B6803F48023E0
:1055D000002B18D07B681B681B6803F40023002B8A
:1055E00008D17B681B6C002B24D07B681B6C78680F
:1055F00098471FE07B689B6C002B1BD07B689B6CE3
:105600007868984716E07B681B681B6803F4807312
:10561000002B07D17B681B681A687B681B6822F027
:1056200008021A607B681B6C002B03D07B681B6C24
:10563000786898477B68DB6D20229A40FB681340AE
:10564000002B00F08F807B681B681B6803F0100341
:10565000002B00F087807B68DB6D20229A403B693D
:105660009A607B6893F83530DBB2052B36D17B68C6
:105670001B681A687B681B6822F016021A607B6838
:105680001B685A697B681B6822F080025A617B683C
:105690001B6C002B03D17B689B6C002B07D07B68B5
:1056A0001B681A687B681B6822F008021A607B6816
:1056B000DB6D3F229A403B699A607B68012283F848
:1056C00035207B68002283F834207B681B6D002B1B
:1056D0007ED07B681B6D7868984779E07B681B6893
:1056E0001B6803F48023002B1DD07B681B681B689C
:1056F00003F40023002B0DD17B685B6C002B31D0B1
:105700007B685B6C786898472CE000BF88010020BC
:10571000B5814E1B7B68DB6B002B23D07B68DB6B7A
:10572000786898471EE07B681B681B6803F48073E9
:10573000002B0FD17B681B681A687B681B6822F0FE
:1057400010021A607B68012283F835207B680022F2
:1057500083F834207B68DB6B002B03D07B68DB6B2A
:10576000786898477B685B6D002B32D07B685B6DF7
:1057700003F00103002B22D07B68052283F835203B
:105780007B681B681A687B681B6822F001021A603C
:10579000BB680133BB607A699A4207D37B681B6898
:1057A0001B6803F00103002BF2D100E000BF7B680F
:1057B000012283F835207B68002283F834207B683F
:1057C000DB6C002B05D07B68DB6C7868984700E0C9
:1057D00000BF1837BD4680BD80B485B000AFF8600B
:1057E000B9607A603B60FB681B681A68FB681B68DD
:1057F00022F480221A60FB681B683A685A60FB68D2
:105800009B68402B08D1FB681B687A689A60FB682C
:105810001B68BA68DA6007E0FB681B68BA689A60C0
:10582000FB681B687A68DA6000BF1437BD465DF814
:10583000047B704780B485B000AF78607B681B68DC
:10584000DBB2103B144AA2FB03231B09FB60134A83
:10585000FB6813441B781A467B68DA65FB68032BE8
:1058600009D97B681B6823F47F7323F003031A1D97
:105870007B689A6507E07B681B6823F47F7323F0DD
:1058800003037A6893657B689B6D18461437BD46A1
:105890005DF8047B704700BFABAAAAAAB09A0008C3
:1058A00080B485B000AF78600023FB737B689B6A8F
:1058B000BB607B689B69002B1FD1BB68032B56D84C
:1058C00001A252F823F000BFD9580008EB58000895
:1058D000D95800086F5900087B68DB6A03F08073B1
:1058E000002B46D00123FB7343E07B68DB6AB3F1F6
:1058F000C07F40D10123FB733DE07B689B69B3F51A
:10590000005F21D1BB68032B37D801A252F823F0E6
:105910002159000827590008215900083959000861
:105920000123FB7330E07B68DB6A03F08073002B9C
:1059300025D00123FB7322E07B68DB6AB3F1C07FD3
:105940001FD10123FB731CE0BB68022B03D9BB688A
:10595000032B03D018E00123FB7315E07B68DB6A9F
:1059600003F08073002B0ED00123FB730BE000BF0C
:105970000AE000BF08E000BF06E000BF04E000BF8F
:1059800002E000BF00E000BFFB7B18461437BD46B5
:105990005DF8047B704700BF80B485B000AF7860CD
:1059A0007B6803F00703FB600C4BDB68BB60BA68E5
:1059B0004FF6FF031340BB60FB681A02BB6813433A
:1059C00043F0BF6343F40033BB60044ABB68D36059
:1059D00000BF1437BD465DF8047B704700ED00E062
:1059E00080B400AF044BDB681B0A03F007031846C2
:1059F000BD465DF8047B704700ED00E080B483B0E5
:105A000000AF0346FB7197F90730002B0BDBFB79E6
:105A100003F01F02074997F907305B09012000FADC
:105A200002F241F8232000BF0C37BD465DF8047B2D
:105A3000704700BF00E100E080B483B000AF0346D0
:105A40003960FB7197F90730002B0ADB3B68DAB24B
:105A50000C4997F907301201D2B20B4483F80023A6
:105A60000AE03B68DAB20849FB7903F00F03043B14
:105A70001201D2B20B441A7600BF0C37BD465DF856
:105A8000047B704700E100E000ED00E080B489B0E5
:105A900000AFF860B9607A60FB6803F00703FB6150
:105AA000FB69C3F10703042B28BF0423BB61FB6917
:105AB0000433062B02D9FB69033B00E000237B6122
:105AC0004FF0FF32BB6902FA03F3DA43BB681A40B6
:105AD0007B699A404FF0FF317B6901FA03F3D943A8
